:020000040000FA
:1000000078D10720C5010000CD010000CF0100001C
:10001000D1010000D3010000D50100000000000064
:10002000000000000000000000000000D7010000F8
:10003000D901000000000000DB010000A53D000028
:10004000DF010000DF010000DF010000DF01000030
:10005000DF010000DF010000153F00007D3F0000D0
:10006000E53F0000DF010000F91A0000DF01000099
:10007000DF010000013C0000DF010000DF010000A3
:10008000DF010000DF010000DF010000DF010000F0
:10009000DF010000E7020000DF010000DF010000D7
:1000A000DF010000B1130000DF010000DF010000EC
:1000B000DF010000DF010000DF010000DF010000C0
:1000C000DF010000DF010000DF01000000F002F8A6
:1000D00000F068F80AA090E8000C82448344AAF17A
:1000E0000107DA4501D100F05DF8AFF2090EBAE878
:1000F0000F0013F0010F18BFFB1A43F0010318475C
:1001000084480000C44800000A444FF0000C10F876
:10011000013B13F0070408BF10F8014B1D1108BF85
:1001200010F8015B641E05D010F8016B641E01F825
:10013000016BF9D113F0080F1EBF10F8014BAD1C75
:100140000C1B09D16D1E58BF01F801CBFAD505E093
:1001500014F8016B01F8016B6D1EF9D59142D6D3ED
:1001600070470000103A24BF78C878C1FAD8520707
:1001700024BF30C830C144BF04680C607047000021
:100180000023002400250026103A28BF78C1FBD8A0
:10019000520728BF30C148BF0B6070471FB51FBD55
:1001A00010B510BD00F02FF81146FFF7F7FF04F06F
:1001B0003DF800F04DF803B4FFF7F2FF03BC00F088
:1001C00055F800000948804709480047FEE7FEE768
:1001D000FEE7FEE7FEE7FEE7FEE7FEE7FEE7FEE7F7
:1001E00004480549034A054B70470000493E00009A
:1001F000CD0000007811001078D1072078CF0720BB
:10020000704770477047754600F02CF8AE46050001
:100210006946534620F00700854618B020B5FFF721
:10022000DFFFBDE820404FF000064FF000074FF021
:1002300000084FF0000B21F00701AC46ACE8C00904
:10024000ACE8C009ACE8C009ACE8C0098D4670470D
:1002500010B50446AFF300802046BDE81040FFF71C
:10026000AABF00000048704714CF0720014918209A
:10027000ABBEFEE72600020070470000000940F612
:100280003F1148430149B0FBF1F07047FFFF0F00F9
:1002900030B403F00703029C01F01F01E40344EAB9
:1002A000033343EA411102F01F02114300F03F0201
:1002B000044802700A0A4270817030BC032103F0C6
:1002C00003BD0000D4C8072070B5044601200023F8
:1002D00006E0E55CCE5CB54200D000205B1CDBB2E2
:1002E0009342F6D370BD704700220F21012001F028
:1002F000BFBB00000000000000000000FFFFFFFF88
:1003000070B50446214842210170FF21417081707F
:10031000C1700171052103F0D7FC1D4D1D4869789E
:1003200000F8241000EB8400AA784270EB78837008
:100330002D79C57002EB0120174D03EB0022174801
:1003400004EB840100EB0110EA60297840F82120D9
:100350001CB9132915D0491C2970697801290FD1BE
:100360000022114650F82130491CC9B21A44142900
:10037000F8D31420B2FBF0F00849283941F82400E2
:1003800070BD0021297001216970E9E7D4C80720F8
:1003900010110010C4CE0720DCC40720A4CB072016
:1003A0002DE9F05F3A4C41204FF00D0820704420B9
:1003B00060703720A0703120E0703220207134202E
:1003C00060710A2584F806800821E57100204FF04D
:1003D000430B4FF0480E04F5FA7A42F210794FF4CD
:1003E0007A764FF0640CB0FBF5F3621804F801B0B4
:1003F00082F801E030339370B0FBF5F305FB130393
:100400003033D37020231371491D8AB25AF820105B
:100410004B46B1FBF3F73037A754B1FBF9F709FBB3
:100420001713B3FBF6F7A31830375F70B1FBF6F77D
:1004300006FB1717B7FBFCF730379F70B1FBFCF7D3
:100440000CFB1717B7FBF5F73037DF70B1FBF5F78B
:1004500005FB171130311971521D91B2621804F861
:100460000180891C401CC0B2557089B20128BAD9DC
:1004700004F801806018891C45708CB2214604483C
:1004800004F050FA2146BDE8F05F014804F0C8B915
:1004900038C90720F0B4C907090D02F00302DDE9ED
:1004A000044541EA422103F0010241EA022104F03D
:1004B0000102DDE9066741EAC21105F0010241EAE5
:1004C000821106F0010241EA421107F00302DDF851
:1004D00020C041EAC2010CF00702114300F03F02C4
:1004E000044802700A0A42708170F0BC032103F0D4
:1004F000EBBB0000D4C8072030B44905DDE9024554
:1005000002F0010241EA025141EA435104F00102C2
:1005100041EA0241C5F30902114300F03F020548D8
:1005200002700A0C42700A0A8270C17030BC042149
:1005300003F0CABBD4C8072070B5424C0026012581
:1005400060684149072286B0B0F5617F43D010DC76
:10055000B0F5FA7F3BD0B0F52F7F62D10D704A70B5
:100560005020887006B00321BDE87040364803F083
:10057000ABBBB0F57A7F4DD0A0F58060013850D18B
:10058000FFF7BEFE00231122194609200096FFF74F
:100590007FFE2E4E002206F15005A5F5257355F875
:1005A0002200FFF76BFE46F82200A0680F2808D251
:1005B00055F82200FFF762FE53F82210084443F872
:1005C0002200A068401CA06010282CD032E00D70E2
:1005D0004A705420C5E70D704A70C020887003210E
:1005E000194803F071FB022001950295CDE903063D
:1005F00000231A46194619200096FFF74BFF3C20AE
:10060000CDE900600022032311462120FFF774FF8B
:10061000009600E000950023112219460920FFF7FB
:1006200037FE06B070BD53F822000F21B0FBF1F089
:1006300043F82200521C92B2072AB0D940F2E730A8
:100640006060EEE7DCC40720D4C807202CCB07206D
:1006500000B501F06FF800F079FF03F07BFA044871
:100660000068192803D95DF804EB00F055BE00BD01
:1006700028C007205C4810B501468269096D9405C1
:1006800042F2107321F0004105D5994203D9C469A3
:1006900044F00804C461D20505D5994203D9C16963
:1006A00041F00401C161817A0A29C16902D241F491
:1006B000803101E021F48031C1614C490A68012A8E
:1006C0007ED14B4C00220A60B4F8641146F29C3390
:1006D000994209D2016A491C01623C2905D9C169C4
:1006E00041F02001C16100E00262B4F8621148F6F5
:1006F0009463994209D9416A491C4162282905D964
:10070000C16941F01001C16100E04262836D49F2AC
:100710006A518B4209D2816A491C8162282905D914
:10072000C16941F08001C16100E082624DF2DE5199
:100730008B4209D9C16A491CC162282905D9C169FE
:1007400041F04001C16100E0C262B4F80632A02B62
:1007500008D9016B491C0163642903D9C16941F4BB
:100760008071C161962B04D20263C16921F480714A
:10077000C161B4F808123C2908D2446B641C44637C
:10078000642C03D9C46944F40074C461412904D9B8
:100790004263C46924F40074C461642908D2846B80
:1007A000641C8463642C03D9C46944F40034C461B8
:1007B000662904D98263C46924F40034C46100E06A
:1007C0000BE0591A0F2909DDC16B491CC16364296B
:1007D00003D9C16941F48061C16110BDC263C169BF
:1007E00021F48061F8E700003CC3072014C0072013
:1007F000780000102DE9F05FFE4B42204FF0410ED3
:10080000187083F801E0542098700D25DD700A24DB
:100810001C714220587119464FF05608481D81F846
:10082000068020218170C1706D220271DFF8C8B38B
:1008300080F805808171F14FDBF8582042F2107A80
:10084000B2FBF7F63036C671B2FBF7F607FB162C93
:10085000BCFBFAF6B2FBFAFC30360AFB1C2C067223
:100860004FF47A79BCFBF9F6B2FBF9FC30364672EC
:1008700009FB1C2C6426BCFBF6FC0CF1300C80F848
:100880000AC0B2FBF6FC06FB1C2CBCFBF4FC0CF112
:10089000300C80F80BC0B2FBF4FC04FB1C2230329D
:1008A000027345738473502018751A4602F11400C0
:1008B00082F815809175D1756D22027180F80580DE
:1008C0008171DBF85C20B2FBF7FC0CF1300C80F896
:1008D00007C0B2FBF7FC07FB1C2CBCFBFAF7B2FB12
:1008E000FAFC30370AFB1C2C0772BCFBF9F7B2FB91
:1008F000F9FC3037477209FB1C27B7FBF6F7303796
:100900008772B2FBF6F706FB1726B6FBF4F6303615
:10091000C672B2FBF4F604FB162230320273457342
:100920008473432083F823001A4602F1230082F8DF
:10093000241081704F22C2704622027153224271EC
:1009400081713022C271027231264672322787725B
:100950003726C6723926067345738473482083F898
:1009600032001E464FF0430C06F1320086F833C0C9
:1009700081704F26C67046260671532646718171D6
:10098000C27102723126467287723526C6720273B0
:1009900045738473432083F841001A4602F14100F5
:1009A00082F8421081706D22C27080F804E04171BB
:1009B000DBF85010002901DA2D2200E02B228D4BAC
:1009C0008E4E42F2107783F8472021F07842B2FB36
:1009D000F6F1303183F84810B2FBF6F106FB112135
:1009E000B1FBF7F130310172B2FBF7F107FB1121D6
:1009F0004FF47A74B1FBF4F130314172B2FBF4F18F
:100A000004FB11216423B1FBF3F130318172B2FB9D
:100A1000F3F103FB11250A21B5FBF1F53035C57261
:100A2000B2FBF1F501FB1522303202734FF00D08D5
:100A3000DFF8C09180F80D808173442289F850203E
:100A40004A46532582F8515002F1500047228270E5
:100A50005222C2704FF0410A80F804A05422427121
:100A6000DFF894B1452282712025C571BBF80C20B6
:100A7000B2FBF4FC04FB1C2CBCFBF3FC0CF1300CB3
:100A800080F808C0B2FBF3FC03FB1C2CBCFBF1FCA0
:100A90000CF1300C80F809C0B2FBF1FC01FB1C2208
:100AA0003032827280F80B8001734FF0430E4A4659
:100AB00089F85DE04FF0480C02F15D0082F85EC0FD
:100AC000472282705222C27080F804A054224271E0
:100AD00045228271C571BBF80E20B2FBF4FC04FB09
:100AE0001C2CBCFBF3FC0CF1300C80F808C0B2FBF2
:100AF000F3FC03FB1C2CBCFBF1FC0CF1300C80F86C
:100B000009C0B2FBF1FC01FB1C223032827280F87A
:100B10000B800173482289F86A204A4602F16A0074
:100B200082F86BE08570C5706D22027180F805A0B7
:100B30008571DBF85420B2FBF6FC0CF1300C80F828
:100B400007C0B2FBF6FC06FB1C2CBCFBF7FC0CF14F
:100B5000300C80F808C0B2FBF7FC07FB1C2CBCFB78
:100B6000F4FC0CF1300C80F809C0B2FBF4FC04FB7F
:100B70001C2CBCFBF3FC0CF1300C80F80AC0B2FB5F
:100B8000F3FC03FB1C2CBCFBF1FC0CF1300C80F8DB
:100B90000BC0B2FBF1FC01FB1C223032027380F867
:100BA0000D808173462289F879204A4602F1790046
:100BB00082F87AE085706D22C27080F804A0682205
:100BC00042718571DBF84050B5FBF6FC0CF1300C3E
:100BD00080F807C0B5FBF6FC06FB1C56B6FBF7F623
:100BE00030360672B5FBF7F607FB1656B6FBF4F681
:100BF000303605E0E0C607203CC30720A086010090
:100C00004672B5FBF4F604FB1654B4FBF3F430342F
:100C10008472B5FBF3F403FB1453B3FBF1F33033ED
:100C2000C372B5FBF1F301FB1351303101734B4635
:100C30000D2183F886100A2181739A465346462077
:100C400003F8880F4946432481F8894001F1880060
:100C5000722181706D21C170412101714271202189
:100C60005A468171FE4C516CB1FBF4F43034C471BE
:100C7000FB4CB1FBF4F504FB15143D46B4FBF5F455
:100C8000303404722C46B1FBF4F504FB15144FF418
:100C90007A75B4FBF5F4303444722C46B1FBF4F5AC
:100CA00004FB15156424B5FBF4F430348472642419
:100CB000B1FBF4F504FB15140A25B4FBF5F430344C
:100CC000C4722C46B1FBF4F504FB151130310173ED
:100CD0000D2141730A2181735220D8734946432460
:100CE00081F8984001F19700202181706D21C17039
:100CF000412101716821417120218171D84C916C91
:100D0000B1FBF4F43034C471D54CB1FBF4F504FB01
:100D100015143D46B4FBF5F4303404722C46B1FB97
:100D2000F4F504FB15144FF47A75B4FBF5F4303484
:100D300044722C46B1FBF4F504FB15146425B4FB96
:100D4000F5F4303484722C46B1FBF4F504FB151431
:100D50000A25B4FBF5F43034C4722C46B1FBF4F52B
:100D600004FB1511303101730D2141730A21817388
:100D7000522098774946432401F1A60081F8A74004
:100D8000202181706D21C170412101716D2141715E
:100D9000732181712021C171B24C516FB1FBF4F408
:100DA00030340472AF4CB1FBF4F504FB1514AE4DB6
:100DB000B4FBF5F4303444722C46B1FBF4F504FB7B
:100DC0001514AA4DB4FBF5F4303484722C46B1FBF3
:100DD000F4F504FB1514A24DB4FBF5F43034C472E1
:100DE0002C46B1FBF4F504FB15143D46B4FBF5F4B9
:100DF000303404732C46B1FBF4F504FB15144FF4A6
:100E00007A75B4FBF5F4303444732C46B1FBF4F539
:100E100004FB15146425B4FBF5F4303484732C46BC
:100E2000B1FBF4F504FB15150A24B5FBF4F43034DA
:100E3000C4730A24B1FBF4F504FB151130310174BD
:100E40000D2141748474522083F8310049464324B3
:100E500001F1B90081F8BA40202181702521C170CB
:100E60002021017141718171917A6424B1FBF4F404
:100E70003034C4716424B1FBF4F504FB15140A2565
:100E8000B4FBF5F4303404722C46B1FBF4F504FBEA
:100E90001511303141720D2181720A21C1724C2429
:100EA000494683F83D40442581F8C65001F1C5000C
:100EB000432181702021C1706D2101714121417157
:100EC000682181712021C171664D916FB1FBF5F5EB
:100ED00030350572634DB1FBF5F605FB1615624E14
:100EE000B5FBF6F5303545723546B1FBF5F605FB39
:100EF00016155E4EB5FBF6F5303585723546B1FBFD
:100F0000F5F605FB1615564EB5FBF6F53035C572F0
:100F10003546B1FBF5F605FB16153E46B5FBF6F575
:100F2000303505733546B1FBF5F605FB16154FF464
:100F30007A76B5FBF6F5303545733546B1FBF5F6F7
:100F400005FB16156426B5FBF6F530358573354679
:100F5000B1FBF5F605FB16150A26B5FBF6F530359F
:100F6000C5733546B1FBF5F605FB1611303101743A
:100F70000D2141740A21817483F85040494643246D
:100F800001F1D80081F8D94084702021C1706D2111
:100F9000017141214171682181712021C17102F1EA
:100FA0008001304C0968B1FBF4F4303404722D4CEC
:100FB000B1FBF4F504FB15142B4DB4FBF5F4303400
:100FC00044722C46B1FBF4F504FB1514274DB4FB19
:100FD000F5F4303484722C46B1FBF4F504FB15149F
:100FE0001F4DB4FBF5F43034C4722C46B1FBF4F55C
:100FF00004FB15143D46B4FBF5F4303404732C4661
:10100000B1FBF4F504FB15144FF47A75B4FBF5F459
:10101000303444732C46B1FBF4F504FB15146425FD
:10102000B4FBF5F4303484732C46B1FBF4F504FBC7
:1010300015150A24B5FBF4F43034C4730A24B1FB4B
:10104000F4F504FB1511303101740D2141748474E1
:1010500042208AF8EB004846502300F1EB0107E0FC
:10106000A086010000E1F5058096980040420F003F
:1010700080F8EC30202088705320C870542008710C
:101080005520487120208871D0690923B3EB107F67
:1010900001D2372300E030239D4C03EB1073C0F3E3
:1010A000036984F8F230B9F1090F02D909F1370365
:1010B00001E009F13003964CC0F30357092F84F87F
:1010C000F33002D907F1370301E007F13003904C08
:1010D000C0F30346092E84F8F43002D906F1370331
:1010E00001E006F130038A4CC0F30335092D84F882
:1010F000F53002D905F1370301E005F13003844CE6
:1011000084F8F630C0F30324092C02D904F1370324
:1011100001E004F13003DFF8F8C18CF8F730C0F3D8
:101120000313092B02D903F1370C01E003F1300C52
:10113000DFF8DC8100F00F02092A88F8F8C002D934
:1011400002F1370C01E002F1300CDFF8C4814FF0FE
:101150000D0B4FF00A0E88F8F9C088F8FAB081F844
:1011600010E04FF0570C8AF8FCC0DFF8A4C14FF034
:101170004B080CF1FC018CF8FD804FF020088CF836
:10118000FE804FF0530C81F803C04FF0540C81F8EF
:1011900004C04FF0550C81F805C0DFF878C181F824
:1011A00006804FF00908DCF818C0B8EB107F07D2B2
:1011B000372000EB1C70DFF858C18CF8030105E004
:1011C000302000EB1C7C524880F803C1DFF844C19A
:1011D000DFF83C816046B9F1090F8069C0F3036014
:1011E00001D9373000E0303088F804014948092F30
:1011F000474F8069C0F3035001D9373000E03030E9
:1012000087F805014348092E414E8069C0F3034029
:1012100001D9373000E0303086F806013D48092D0D
:101220003B4D008BC0F3033001D9373000E0303044
:1012300085F807013748092C354C008BC0F3032093
:1012400001D9373000E0303084F808013148092BEB
:101250002F4B007EC0F3031001D9373000E030304F
:1012600083F809012B48092A294A007E00F00F0063
:1012700001D9373000E0303082F80A0124484D258A
:10128000544680F80BB181F810E0542020498AF8C8
:101290000D0101F20D1081F80E5150218170702165
:1012A000C1706121017172214171202181719CF80D
:1012B00004006421B0FBF1F5303584F81451B0FB23
:1012C000F1F501FB15017246B1FBF2F6104930361B
:1012D00001F58A7581F81561B0FBF2F102FB11008E
:1012E0003030A8705B4684F81731094840F21B146F
:1012F000214680F818218AF8193180F81A2103F064
:1013000011FB2146BDE8F05F014803F089BA0000F7
:10131000E0C607203CC307200021084A08468B236B
:10132000434302EB8303401CB3F81432C0B201EB19
:1013300043010228F3D3024881657047780000100A
:101340003CC30720F0B5194E00208B21414306EB2A
:101350008101401CCA8980B202F47042CA8102280D
:10136000F3D30022012700208B21514306EB81019A
:10137000B1F8405007FA00F39CB21D420CD001EBCB
:101380004003B3F842C0B1F8643103F5FA739C45E9
:1013900002D9CB892343CB81401C80B20C28E9D3EE
:1013A000521C92B2022ADED3F0BD00007800001079
:1013B00078B51248C0680090114EC0074FF0010484
:1013C00004D01049002000F021F8346000980C4D42
:1013D0008007A5F1080500D52C600B48C068009077
:1013E000C00705D007490120103100F00FF87460E4
:1013F0000098800700D56C6078BD00000040044074
:1014000014C30720F01000100080044068B10B489E
:10141000026AD30F4B73C2F380738B73C2F3034220
:101420000A73426A0A6013B105E00548F0E7826A70
:101430004A60C26A8A6004214160704700800440AB
:10144000004004402DE9F843071E2948294DDFF8E4
:10145000A8804FF0000613D0444650F8C41F11D1A5
:1014600041F40051016000230122194618460096FC
:1014700002F0CCFA0023012211461846009610E033
:101480002C46EAE741F48041016000230122072154
:101490000220009602F0BAFA00230122082102205D
:1014A000009602F0B3FA01204FF0E0224106C2F8A4
:1014B0000011124A102182F80014114A0221116011
:1014C00020602661A6600F4807B145460E4A0A21F2
:1014D000B2FBF1F1B1FBF0F0401EC0F309010B4883
:1014E000806A0843686103202061BDE8F88300003A
:1014F00000C00F40004004400080044019E000E0BC
:1015000000C0034020A1070040787D014049000051
:1015100018B103480021016070470248FAE7000053
:10152000008004400040044040B10549CA695207A8
:10153000FCD5044A012142F8201070470249F5E722
:10154000008004400CC3072000400440F0B5384B35
:10155000384C18469A69006DD10520F000404FF0D4
:1015600000051BD5D96F0144D967A14209D9B1FB48
:10157000F4F69F6F3E449E67B1FBF4F604FB161130
:10158000D967596F884202D2091A596706E09E6CE2
:101590001EB1761E21449E64F6E75D6791052ED547
:1015A00091032CD4224A8032516801445160A142F7
:1015B00009D9B1FBF4F617683E441660B1FBF4F6A6
:1015C00004FB16115160596F08445867A0420CD9AA
:1015D000996C184A491C524210449964586745F264
:1015E0000820814201D35D679864134848F6AC2116
:1015F000B0F86201884202D9986C58641864D86FB8
:101600009630D867586F962801D9963806E0996CBD
:1016100031B1491E9964074996390844586700E07A
:101620005D67986F4FF47A51B0FBF1F09882F0BD8E
:101630003CC3072080EE36007800001010B50B4C3C
:10164000012809D000221121012000F011FAA0691F
:1016500020F00200A06110BD01221121104600F00F
:1016600007FAA06940F00200F4E700003CC307203D
:1016700018B50C46010A217060708DF800108DF8C5
:1016800001000221684603F057F8010AA170E070DA
:1016900018BD00002DE9F043DFF894800C26354694
:1016A000B8F84240002123464FF0010900208B2268
:1016B0004A4308EB820CBCF8407009FA00F217426A
:1016C00017D00CEB4002B2F84220A24207D9C1F178
:1016D000010606EB460600EB86061446B6B29A42B1
:1016E00007D21346C1F1010202EB420200EB820273
:1016F00095B2401CC0B20C28DFD3491CC9B20229E4
:10170000D4D3E01A82B200218B20484308EB80003A
:10171000491CA0F86241A0F86431A0F86621A0F845
:101720006861C9B2A0F86A510229EDD3BDE8F0831F
:1017300078000010F0B51B481B4D00260468AB690B
:10174000EA6C23F400714FF49677A4F2FF40B4F5ED
:10175000A06F12D26FF01304604364244443B4FBBF
:10176000F2F2AA81B84218D940F00040286523F46B
:10177000007040F48070A861F0BD00EB8000800034
:1017800064244443B4FBF2F2EA81B84205D92865E7
:1017900023F4807040F40070EDE721F480702E6532
:1017A000E9E700002CCB07203CC3072010B50B4C09
:1017B000012809D000221021012000F059F9A06968
:1017C00020F00100A06110BD01221021104600F0A0
:1017D0004FF9A06940F00100F4E700003CC3072086
:1017E000274810B5A0210170012141708170A1210D
:1017F000C170C1790279837901EB026142791204E7
:1018000002EB03220A44A0F58F710A66C27A037ABA
:10181000847A02EB0362437A1B0403EB04231A4429
:101820004A66027B4A72027C437BC47B02EB036202
:10183000837B1B0403EB04231A448A66027D437CEA
:10184000C47C02EB0362837C1B0403EB04231A4475
:10185000CA66027E437DC47D02EB0362837D1B0466
:1018600003EB04231A440A67827E437E02EB0322C1
:101870000A82027FC07E02EB0020488210BD000079
:101880005AC407202DE9F0433F48A021A0F58F79E5
:1018900001700021417001218170A121C170C179C5
:1018A0000279837901EB02614279120402EB03228F
:1018B0000A44C9F86020C37A047A857A03EB04638A
:1018C000447A4946240404EB052403EB0408C9F8D0
:1018D000648090F80CC089F809C0047C437BC57B08
:1018E00004EB0363847B240404EB05241F198F6637
:1018F000037D447CC57C03EB0463847C240404EBFB
:1019000005241E19CE66037E447DC57D03EB04636A
:10191000847D240404EB05241D190D67837E447E19
:1019200003EB04239CB20C82037FC07E03EB0020F8
:1019300083B24B82D9F8581001208A4200D000208F
:10194000D9F848204946904500D000208A7A94452D
:1019500000D000200A6C974200D000208A6F964287
:1019600000D00020084A9E3A1268954200D000201C
:10197000B9F814108C4200D00020A3F5B441A53969
:1019800000D00020BDE8F0835AC407201E48A021E3
:10199000A0F1EC020170012141708170916D0B0E7C
:1019A000C3700B0C03710B0A43718171916C0B0EA8
:1019B000C3710B0C03720B0A43728172917AC1726C
:1019C000116C0B0E03730B0C43730B0A8373C173FF
:1019D000916F0B0E03740B0C43740B0A8374C17468
:1019E000A0F16C0109680B0E03750B0C43750B0A13
:1019F0008375C175918A0A0A027641765A218176E9
:101A0000A521C1767047000028C4072030B51048D2
:101A1000104AB0F80812107802F11403A2F1C404BD
:101A2000884201D91878E070D07C884201D2D87CF5
:101A3000E0700020155C8D4205D215186D788D423E
:101A400001D91D5CE570401CC0B21328F2D330BD33
:101A50007800001000C40720044A02EB40104069DF
:101A600001228A40104000D00120704700C00920A8
:101A700001238B40034901EB40100AB18361704799
:101A8000C361704700C009200549002851F8C40F00
:101A900002D040F4004001E020F4004008607047AC
:101AA00000C00F4010B5064C012304EB40108B40E2
:101AB00001680AB1194300E09943016010BD0000BC
:101AC00000C0092010B50B4C012809D000220E21BE
:101AD0000120FFF7CDFFA06920F00400A06110BD38
:101AE00001220E211046FFF7C3FFA06940F0040059
:101AF000F4E700003CC307202DE9F04F344841686B
:101B000001F0F80111F0070F5AD1324C4FEAE10809
:101B10000425E77894F801C0791CCBB2A168E346AC
:101B200014264A1CACF1010C94F802904FF0200EE0
:101B30000CF0FF0AB8F10C0F42D2DFE808F04106C2
:101B40000C12191B1932401934450978816005605F
:101B5000C0F818E003E009788160A2600560E370D6
:101B60002EE009788160A260056084F801A0F6E7A4
:101B7000066025E094F804C0BCF1000F05D05FEAD0
:101B80000B060BD084F801A003E04F4501D9066095
:101B90000CE009788160A260E37010E0714601609A
:101BA0000EE02421FBE74F4503D985610021217018
:101BB00006E083680B70A260E178491CE170056063
:101BC00008218161BDE8F08F83680B70A260CFE7C8
:101BD00000C0014000C3072010B501220F211046AC
:101BE000FFF760FF012210211046FFF75BFF012283
:101BF00011211046FFF756FF01220E211046FFF774
:101C000051FF01220A211046FFF74CFF0022052157
:101C10001046FFF747FF002205210220FFF742FF91
:101C2000002203210220FFF73DFF002204210220B1
:101C3000FFF738FF022100220846FFF733FF012299
:101C400018211046FFF72EFF012219211046FFF739
:101C500029FF01221A211046FFF724FF01221B2130
:101C60001046FFF71FFF01221C211046FFF71AFF45
:101C700001221D211046FFF715FF01220F211046FA
:101C8000FFF7F6FE002210210120FFF7F1FE0022EF
:101C900011210120FFF7ECFE00220E210120FFF7A9
:101CA000E7FE012218211046FFF7E2FE012219216A
:101CB0001046FFF7DDFE01221A211046FFF7D8FE7D
:101CC00001221B211046FFF7D3FE01221C211046E2
:101CD000FFF7CEFE0122BDE810401D211046FFF7A0
:101CE000C7BE000010B50D4C6078002814D1052146
:101CF000FFF7B2FE18B9A07840F00100A070A078FC
:101D0000002809D005210020FFF7A6FE012803D1F5
:101D1000A07860700020A07010BD0000700000105E
:101D20002DE9F0474A4800264A4C00780A2801D29B
:101D300026701BE0A0F10A01142901D2012014E051
:101D4000A0F11E01142901D202200EE0A0F13201FF
:101D5000142901D2032008E0A0F14601142901D280
:101D6000042002E05A2801D9052020703A4D4FF492
:101D700016774FF4967828684FF4E179C10530D58D
:101D8000810558D4400556D46068B8421FD009DC9C
:101D9000012816D0962816D0404516D048454AD17D
:101DA000022019E0A0F50070EE3812D0FA2812D007
:101DB000A0F58060E2380CD0A0F53060B8383AD198
:101DC00022E0052008E0042006E0032004E00120D2
:101DD00002E0002000E0207800F040F82888C005EC
:101DE00029D42868810526D5400524D46068B842E6
:101DF0001CD00BDC01281CD0962813D0404513D0F2
:101E0000484518D1042014E0666014E0A0F5007085
:101E1000EE3805D0FA280BD0A0F58060E238CBD19F
:101E2000002006E0022004E0032002E0052000E09C
:101E3000207800F013F8286810F4407F05D14005A1
:101E400003D4207800F00AF86660BDE8F08700004F
:101E500046C307207000001054C3072010B50628A1
:101E60005BD2DFE800F003051B222E3F012200E0D9
:101E7000002219210120FFF7FBFD01221A21012078
:101E8000FFF7F6FD01221B210120FFF7F1FD0122E2
:101E90001C210120FFF7ECFD012238E0002219216E
:101EA0000120FFF7E5FD0022E8E7002219210120CB
:101EB000FFF7DEFD00221A210120FFF7D9FD0022E5
:101EC000E1E7002219210120FFF7D2FD00221A21AB
:101ED0000120FFF7CDFD00221B210120FFF7C8FDE7
:101EE0000022D5E7002219210120FFF7C1FD0022C1
:101EF0001A210120FFF7BCFD00221B210120FFF762
:101F0000B7FD00221C210120FFF7B2FD00221D2198
:101F1000BDE810400120FFF7ABBD10BD30B5194A38
:101F20001168814201D2142030BD916B814201D9E8
:101F3000D22030BD002152F82150854205D902EB54
:101F400081056D68854200D20C46491C89B20F2973
:101F5000F1D30D4A04EB8404002102EBC40252F8D1
:101F60002150854205D902EB81056D68854200D27A
:101F70000B46491C89B20A29F1D303EB44003C30DB
:101F800080B230BDC4C2072094C0072000B54649C6
:101F90000120FFF76DFB44490220091DFFF768FB94
:101FA000414904200831FFF763FB3F4906200C310B
:101FB000FFF75EFB3C4908201031FFF759FB3A4917
:101FC0000A201431FFF754FB37490C201831FFF772
:101FD0004FFB35490E201C31FFF74AFB32491020D8
:101FE0002031FFF745FB304912202431FFF740FB39
:101FF0002D494FF458702831FFF73AFB2A494FF426
:102000005A702C31FFF734FB27494FF44A703031B6
:10201000FFF72EFB244940F247303431FFF728FB0D
:10202000214940F201203831FFF722FB1E4940F2DE
:1020300001303C31FFF71CFB1B494FF4A0604031DD
:10204000FFF716FB184940F247504431FFF710FBE9
:1020500015494FF4A1604831FFF70AFB124940F2DD
:102060004F504C31FFF704FB0F4940F26F50503195
:10207000FFF7FEFA0C4940F267505431FFF7F8FAC7
:10208000094940F211705831FFF7F2FA064940F25F
:1020900012705C31FFF7ECFA034940F213706031C3
:1020A0005DF804EBFFF7E4BA30C007202DE9F05FDC
:1020B000F74EDFF8E0A34FF00109307800254FF02C
:1020C0000A0BAAF62844F8B1802874D0012873D1ED
:1020D000012216211046FFF7CBFC40F2CF10A4F8E6
:1020E000400040F2CF30A4F86C02B08819287AD0B2
:1020F0007ADC0F2879D079DC032859D077DC0128E5
:1021000045D00228E3D10DE1B08846F6AA2833284D
:102110006ED03DDC17286CD025DC0E28F0D00ADC10
:102120000128EDD0022874D0042873D00528CED120
:10213000D74858301DE20F286DD011286CD01328D5
:102140006BD01528C3D100258B20684304EB800099
:1021500029461C3000F044FF6D1CEDB2022DF3D374
:10216000CB4838301BE225287ED008DC18287CD0EC
:1021700019287BD02228C3D02328A8D185E127287D
:1021800075D0282874D0292873D032289FD1FCE339
:102190004FF0150B87286DD02CDC7E28F7D00CDC97
:1021A000352868D0372867D0742833D0752873D184
:1021B000B7484C30DDE1A3E36EE07F282BD08128C7
:1021C0007ED083287DD0852866D100258B2068436A
:1021D00004EB800029461C3000F002FF6D1CEDB2BC
:1021E000022DF3D3BCE7FDE3A3E3FCE395E38EE329
:1021F000C3E1BDE0B0F5DA7F7ED00FDC88287CD06B
:10220000A0F580701D38C2D0012877D0962843D120
:10221000BBE343E073E088E08AE099E0B0F5DB7F60
:102220006DD0A0F58070B738A1D00128AAD00228BF
:1022300032D186F80090002100208B2201FB02F3AE
:1022400004EB830202EB4002401CC0B2A2F84250F1
:102250000C28F5D3491CC9B20229EDD30021002076
:102260008B2201FB02F308E016E108E10AE122E11A
:102270007DE17FE10BE283E195E104EB830202EB78
:102280004002401CC0B2A2F86E510528EBD3491C95
:10229000C9B20229E3D3B580BDE8F09FA846002764
:1022A0004FF0BE0B4FF0910925468B2207FB02F041
:1022B000FE2105F8201005EB80044021617001E04B
:1022C000C9E1D6E184F802B084F80390A4F80E8046
:1022D00084F80480102060712046062102F02CFA58
:1022E000010AF0807F1CA171FFB2E071022FDCD3E4
:1022F00000215346002003E0D2E26BE29BE211E0B2
:102300008B224A4305EB820400EBC106245C1E4489
:10231000401CC0B234710828F4D3491CC9B2022948
:10232000E8D387E25A487C3023E159482C3036E123
:1023300000258B20684304EB80002946103000F014
:102340004FFE6D1CEDB2022DF3D35148303026E123
:1023500000258B20684304EB80002946163000F0EE
:102360003FFE6D1CEDB2022DF3D34948343016E127
:1023700000278B20784304EB80003946223000F0A0
:102380002FFE7F1CFFB2022FF3D300218B2201FB13
:1023900002F004EB8000491C10F8102FC9B24378FA
:1023A000022902EB0322A0F84A208278C37802EBCC
:1023B0000322A0F84C200279437902EB0322A0F813
:1023C0004E208279C37902EB0322A0F85020027AD2
:1023D000437A02EB0322A0F85220827AC37A02EBFE
:1023E0000322A0F85420027B437B02EB0322A0F8D7
:1023F0005620827BC37B02EB0322A0F85820027C8C
:10240000437C02EB0322A0F85A20827CC37C02EBBF
:102410000322A0F85C20027D437D02EB0322A0F89A
:102420005E20827DC37D02EB0322A0F86020ADD345
:102430000021474680234FF08B0C002001FB0CF25B
:1024400004EB820C0CEB400CBCF85AC0BC4500D02D
:102450003370401CC0B20C28F2D3491CC9B2022907
:10246000E9D3307880287DD17078052805D2401CCA
:1024700070703570A6F804900EE733700CE70448CE
:10248000803076E00248683073E001483C3086E0F6
:102490000CC00720A00C001000258B20684304EB23
:1024A00080002946283000F09BFD6D1CEDB2022D06
:1024B000F3D3FA4873E000278B20784304EB8000C5
:1024C00039462E3000F08CFD7F1CFFB2022FF3D373
:1024D00000218B20484304EB8000491C10F8282F72
:1024E000C9B24378022902EB032242868278C3787C
:1024F00002EB032282860279437902EB0322C28631
:102500008279C37902EB03220287027A437A02EBD3
:1025100003224287827AC37A02EB03228287D8D3CE
:102520000021C446802700208B2201FB02F304EB2C
:10253000830202EB4002B2F85A20624500D03770A5
:10254000401CC0B20628F2D3491CC9B20229EAD302
:102550003078802806D17078052806D2401C70702B
:10256000357000E0EAE00C202FE1377094E6CB48AC
:102570004430E7E3C9483030E4E3C848001D0EE0CA
:1025800000258B20684304EB80002946343000F09E
:1025900027FD6D1CEDB2022DF3D3C0480830BDE815
:1025A000F05F00F063BD00278B20784304EB8000D0
:1025B00039463A3000F014FD7F1CFFB2022FF3D3EE
:1025C00000218B20484304EB8000491C10F8342F75
:1025D000C9B24378022902EB0322C2848278C3780D
:1025E00002EB032202850279437902EB0322428542
:1025F0008379C27903EB02228285E2D3002043462D
:1026000080228B21414304EB8101B1F85A709F4233
:1026100000D03270B1F85C709F4200D03270B1F8D7
:102620005E709F4200D03270B1F86010994200D0C5
:102630003270401CC0B20228E3D3307880287DD1AC
:102640007078052805D2401C70703570A6F804B06B
:1026500022E6327020E600258B20684304EB8000E0
:102660002946103000F0BCFC6D1CEDB2022DF3D3F6
:102670006BE600258B20684304EB8000294616306A
:1026800000F0AEFC6D1CEDB2022DF3D36DE6002719
:102690008B20784304EB80003946223000F0A0FC08
:1026A0007F1CFFB2022FF3D300218B20484304EBA1
:1026B0008000491C10F8102FC9B2437802EB0322A6
:1026C00042868278C37802EB0322828602794379BC
:1026D00002EB0322C2868279C37902EB03220287CE
:1026E000027A437A02EB03224287827AC37A02EBB0
:1026F00003228287027B437B02EB0322C287827B19
:10270000C37B02EB0322A0F84020027C437C02EB57
:102710000322A0F84220827CC37C02EB0322A0F8B3
:102720004420027D437D02EB0322A0F84620827DF7
:10273000C37D02EB0322A0F8482000E03CE0022920
:10274000B3D3002246F2A81A00218B204AF2F87B6C
:10275000C84602FB00FC04EB8C0000EB4103B3F81D
:102760004230534501D85B4506D2B0F8403008FAF4
:1027700001F73B43A0F84030491CC9B20C29EAD309
:10278000002142F2107300EB4107B7F842709F42FC
:1027900007D8B0F8407008FA01FC27EA0C07A0F847
:1027A0004070491CC9B20C29EDD3521CD2B2022A86
:1027B000CAD33078802801D075706DE5707805280F
:1027C00005D2401C707035703E20B08064E58020DA
:1027D000307061E5D946002740F255584FF0550B4F
:1027E0008B21794304EB81052846A5F80E8085F8F6
:1027F00004B085F80590062101F09EFF010AF080E3
:102800007F1CA971FFB2E871022FE9D30021534662
:1028100000208B224A4304EB820500EBC1062D5CAD
:102820001E44401CC0B235710828F4D3491CC9B2FB
:102830000229EDD345E2002740F6AA284FF0AA0965
:102840004FF01A0B8B21794304EB81052846A5F83C
:102850000E8085F8049085F805B0062101F06CFF24
:10286000010AF0807F1CA971FFB2E871022FE9D341
:102870000021534600208B224A4304EB820500EBE3
:10288000C1062D5C1E44401CC0B235710828F4D32B
:10289000491CC9B20229EDD313E200004CC0072045
:1028A00000278B20784304EB80050621E88900F49B
:1028B0007040E8812871C0F3032040F01000687177
:1028C000284601F039FF010AF0807F1CA971FFB290
:1028D000E871022FE5D30021534600208B224A43A2
:1028E00004EB820500EBC1062D5C1E44401CC0B207
:1028F00035710828F4D3491CC9B20229EDD3E0E1AF
:10290000BDE8F05F002216210120FFF7B1B80C28C6
:102910003BD00D287FF4B0AD07E511380828BFF48F
:10292000ABADDFE800F09C05AA05B9FD0504A6E5FE
:10293000B2E44FF6FF7A29287ED00CDCA0F1220009
:102940000728F5D2DFE800F0210605EF05EE0400C8
:102950000DE6A1E499E53228DAD033283FF40DAE34
:1029600035286AD03728E3D100278B20784304EB41
:10297000800039463A3000F033FB7F1CFFB2022F53
:10298000F3D300218B20484300E058E204EB8000A1
:10299000491C10F8342FC9B24378022902EB0322F4
:1029A000A0F8E2218278C37802EB0322A0F8E621A6
:1029B0000279437902EB0322A0F8EA218279C379F4
:1029C00002EB0322A0F8EE21C27A80F8F121D9D3DC
:1029D000002153468B20484304EB8000B0F81622B8
:1029E0009A4201E0ACE12CE001D0A0F81422B0F84A
:1029F0001A229A4201D0A0F81822B0F81E229A4258
:102A000001D0A0F81C22B0F822229A4201D0A0F8EE
:102A1000202290F82522FF2A01D080F82422491C88
:102A2000C9B20229D6D3F069401CF061316A0A2983
:102A300001D2491C316201E0FBE104E20A2970D0B5
:102A400011E200258B20684304EB800029461030FA
:102A500000F0C6FA6D1CEDB2022DF3D375E400252B
:102A60008B20684304EB80002946163000F0B8FA4A
:102A70006D1CEDB2022DF3D377E400258B20684363
:102A800004EB800029461C3000F0AAFA6D1CEDB260
:102A9000022DF3D3FFF764BB00258B20684304EBC2
:102AA00080002946223000F09BFA6D1CEDB2022D09
:102AB000F3D300218B20484304EB800010F8102F43
:102AC000437802EB0322A0F84A208278C37802EB15
:102AD0000322A0F84C200279437902EB0322A0F8EC
:102AE0004E208279C37902EB0322A0F85020027AAB
:102AF000437A02EB0322A0F85220827AC37A02EBD7
:102B00000322A0F85420027B437B02EB0322A0F8AF
:102B10005620827BC37B02EB0322A0F8582003E0FF
:102B200075E09FE11EE10EE1027C437C491C02EB53
:102B30000322A0F85A20827CC37CC9B202EB032294
:102B4000A0F85C20027D437D022902EB0322A0F85D
:102B50005E20827DC37D02EB0322A0F86020A9D312
:102B60000021CC4644F24F6500208B2201FB02F786
:102B700004EB87020CFA00F6B2F8403033420AD078
:102B800002EB4003B3F85A20A2F5C246A93EAE427A
:102B900001D2A3F84220401CC0B20C28E8D3491C43
:102BA000C9B20229E0D3FEF775FDB4F8640148F21A
:102BB000E801884205D8B4F8621148F2D042914247
:102BC00017D9B4F86211081AB0F5FA7F03DDBDE831
:102BD000F05FFEF7B7BB00208B21414304EB81017E
:102BE000401CCA89C0B202F47042CA810228F3D3E1
:102BF00042E400208B21414304EB8101401CCA893F
:102C0000C0B202F47042CA810228F3D334E4D6E998
:102C100005504FF400594FF4805C4FF480474FF457
:102C20000048A8425DD90025A3468B2205FB02F08F
:102C3000FE210BF820100BEB800440216170BE20B8
:102C4000A0709120E070E08900F47041B1F5805FE0
:102C50000CD049453BD0B9423ED041450ED100F0A1
:102C600088012171082101EA102004E000F011011F
:102C70002171C0F3002040F0100060715E462046D4
:102C8000062101F059FDD4496D1CEDB2C880010A3E
:102C9000A171E071022DC8D30021534634460020B3
:102CA0008B224A4304EB820500EBC1062D5C1E44D7
:102CB000401CC0B235710828F4D3491CC9B202299E
:102CC000EDD3BDE8F05FC448243000F08DBE00F0C5
:102CD000220121710221C6E700F044012171042183
:102CE000C1E700238B20584304EB8001C88900F41E
:102CF00070424A4512D008DC5AB1624518D1C0F37F
:102D00000B0040F40050C88112E0BA420BD042459B
:102D10000ED1C0F30B0040F48050F4E7C0F30B0079
:102D200040F48040EFE7C0F30B0040F40040EAE7D6
:102D30005B1CDBB2022BD5D305F57A75B56115E4C2
:102D4000A548643077E000258B20684304EB8000C1
:102D50002946283000F044F96D1CEDB2022DF3D362
:102D6000FFF7A7BB00258B20684304EB80002946B2
:102D70002E3000F035F96D1CEDB2022DF3D3002199
:102D80008B20484304EB8000491C10F8282FC9B25F
:102D90004378A04602EB0322A0F850218278C37842
:102DA000022902EB0322A0F852210279437902EBB7
:102DB0000322A0F854218279C37902EB0322A0F800
:102DC0005621027A437A02EB0322A0F85821827A34
:102DD000C37A02EB0322A0F8EA21D1D3002147F6FF
:102DE0004F0C00208B22376A01FB02F308EB8302B1
:102DF00002EB4004B4F87841A4F1C905654507D257
:102E000000EB800502EB850505EB4705A5F882413F
:102E1000401CC0B20528E9D308EB8300B0F81202C9
:102E2000504501D0A2F81002491CC9B20229D8D3DA
:102E30000EE469486C30BDE8F05F00F03BB9BDE8D6
:102E4000F05F00F0B9BD00258B20684304EB8000E3
:102E50002946343000F0C4F86D1CEDB2022DF3D3D6
:102E6000FFF79BBB356216287ED9DFF870C10022C0
:102E7000002000214CF82150491CC9B20529F9D382
:102E800000218B2600EB800802FB06F304EB83068F
:102E900006EB880606EB41065CF82070B6F8826106
:102EA000491C3E44C9B24CF820600A29EED3B6FB57
:102EB000FBF104EB830303EB4003401CC0B2A3F817
:102EC0006E110528D5D3521CD2B2022AD0D30021CC
:102ED00047F2305C00208B2201FB02F704EB8703F2
:102EE00003EB400242F21076B2F86E2103EB80034E
:102EF0005643ACEB020296FBF2F2401CC0B2C3F8A0
:102F0000E8210528EAD3491CC9B20229E2D30026E8
:102F1000A24600248B2106FB01F80AEB880707EB89
:102F20008400D0F8E801FEF7F9FFD22803D207EBBE
:102F30004401A1F8FC01641CE4B2052CEDD3761C1D
:102F4000F6B2022EE5D3BAF8FC31D4461F461C4631
:102F5000002200208B2102FB01F60CEB860101EB25
:102F60004001B1F8FC1100E033E0994200D90B4672
:102F7000A14200D20C46401CC0B20528EDD3521C21
:102F8000D2B2022AE5D3BCF80402874204D3394600
:102F900000220746042302E0042201460023002009
:102FA000CC1B1FFA84F88B2600FB06F40CEB840480
:102FB000401CA4F80612A4F80872A4F80A82A4F827
:102FC0000C22C0B2A4F80E320228ECD30249C1F898
:102FD0000890014885800BE60CC007209410001073
:102FE0007CB5214D0446C1F10106286900EBC600FD
:102FF00001798DF8001041798DF8011081798DF8F3
:103000000210C1798DF80310017A8DF80410407A0E
:103010008DF805000621684601F08EFBE880010A64
:103020008DF80610C0B28DF807002A6902EBC602BF
:10303000937A994216D1D17A884213D19DF8000033
:1030400020709DF8010060709DF80200A0709DF84E
:103050000300E0709DF8040020719DF80500607188
:1030600001207CBD00207CBD0CC0072030B40F4A7D
:10307000017811704178517081789170C078002189
:10308000D070FF23002000EBC1041444401CC0B2E8
:1030900023710828F7D3491CC9B20229F2D3044A84
:1030A00014210248D26830BC10470000A00C001068
:1030B0000CC00720064902780A7042784A7082786C
:1030C0008A70C078034AC8700421D268004810474B
:1030D000A00C00100CC007202DE9F05FF9484C212E
:1030E000432301705421417083703621C17038210F
:1030F00001713121417181710D21C1710A210922B2
:103100000172002642F2107E4FF0200B43238354BD
:10311000831856245C7083F802B0D21C00258B23E0
:1031200006FB03F4E84B92B20746884603EB840A99
:103130000AEB45036D1CB3F842407346B4FBF3FC45
:103140000CF1300C07F802C0B4FBFEFC0EFB1C4374
:103150004FF47A7CB3FBFCF9BB1809F1300983F812
:103160000190B4FBFCF90CFB19494FF0640CB9FB5E
:10317000FCF909F1300983F80290B4FBFCF90CFB6F
:10318000194CBCFBF8FC0CF1300C83F803C0B4FB09
:10319000F8FC08FB1C4430341C71D21D83F805B0C8
:1031A000EDB283F806B092B20C2DC1D30D23BB54FF
:1031B000BB18921C761CF6B283F8018092B2022EE4
:1031C000A4D34D23835483184124121D5C701FFA2D
:1031D00082F95824BC4A9C7083F803B0B2F862614B
:1031E0007346B6FBF3F4B6FBF3F2303400F8094053
:1031F0000EFB12624FF47A74B2FBF4F500EB090295
:1032000030355570B6FBF4F504FB156C6425BCFB3A
:10321000F5FC0CF1300C82F802C0B6FBF5FC05FBA6
:103220001C6CBCFBF1FC0CF1300C82F803C0B6FB4B
:10323000F1FC01FB1C66303616710D26567191713A
:1032400009F1070292B24D26865486184FF0490CB8
:10325000121D86F801C01FFA82F94FF04E0C9A4AEF
:10326000DA4686F802C086F803A0B2F86461B6FBBD
:10327000F3FCB6FBF3F20CF1300C03FB126200F826
:1032800009C0B2FBF4FC00EB09020CF1300C82F82F
:1032900001C0B6FBF4FC04FB1C6CBCFBF5FC0CF1A0
:1032A000300C82F802C0B6FBF5FC05FB1C6CBCFBC5
:1032B000F1FC0CF1300C82F803C0B6FBF1FC01FB11
:1032C0001C66303616710D265671917109F1070290
:1032D00092B25826865486184FF04E0C121D86F86E
:1032E00001C01FFA82F94FF04D0C774A86F802C0F0
:1032F00086F803A0B2F86861B6FBF3FCB6FBF3F204
:103300000CF1300C03FB126200F809C0B2FBF4FCB4
:1033100000EB09020CF1300C82F801C0B6FBF4FCA2
:1033200004FB1C6CBCFBF5FC0CF1300C82F802C0F9
:10333000B6FBF5FC05FB1C6CBCFBF1FC0CF1300C86
:1033400082F803C0B6FBF1FC01FB1C663036167137
:103350000D265671917109F1070292B24E268654DC
:10336000B4468618121D86F801C01FFA82F94FF084
:103370004D0C554A86F802C086F803A0B2F86A617F
:10338000B6FBF3FCB6FBF3F20CF1300C03FB12625C
:1033900000F809C0B2FBF4FC00EB09020CF1300CA0
:1033A00082F801C0B6FBF4FC04FB1C6CBCFBF5FC12
:1033B0000CF1300C82F802C0B6FBF5FC05FB1C6C6E
:1033C000BCFBF1FC0CF1300C82F803C0B6FBF1FC45
:1033D00001FB1C66303616710D265671917109F18C
:1033E000070292B24426865486184FF04C0C86F899
:1033F00001C04FF0540C86F802C086F803A0121DDD
:1034000096B2314ADFF8C0904FF00D0AB2F866214B
:10341000B2FBF3FC0CF1300C00F806C0B2FBF3FC7D
:103420000EFB1C23B3FBF4F3B81930334370B2FB2B
:10343000F4F304FB1323B3FBF5F330338370B2FBD7
:10344000F5F305FB1323B3FBF1F33033C370B2FB89
:10345000F1F301FB1322303202710D2242718171AE
:10346000F61DB0B200214FF0420C5A4607F800C0DA
:103470003B184C245C70C01C9A7080B230233B54C3
:103480008B2301FB03F409EB840407EB0006E489BA
:10349000C4F30325092D01D9373500E030357570A7
:1034A000C4F30315092D07EB000601D9373500E0F9
:1034B0003035B57004F00F04092C07EB000505D971
:1034C000373404E0D0040010780000103034001DC0
:1034D000EC7080B23C1807F800A0801C491CC9B2EF
:1034E00084F8018080B20229C0D3F34600244FF44F
:1034F0007A7EBC4647210CF800100CEB00015622E6
:103500004A702022C01C8A7000238B2104FB01F228
:1035100080B209EB820707EB43015B1CB1F86E2117
:103520005946B2FBF1F530350CF80050B2FBFBF513
:103530000BFB15217546B1FBF5F60CEB000130369F
:103540004E70B2FBFEF60EFB16266425B6FBF5F6B2
:1035500030368E70B2FBF5F605FB1626B6FBF8F694
:103560003036CE70B2FBF8F608FB162230320A7104
:103570002022C01D4A71DBB28A7180B2052BCAD3EA
:103580000CF800A00CEB0001801C641CE4B2534654
:1035900081F8018080B2022CACD3DA4600214C467F
:1035A000AB4666469E4652233354331846255D701B
:1035B0009A70C01C83B28B2501FB05F004EB8000E0
:1035C0005546B0F810024FF47A7CB0FBF5F730376F
:1035D000F754B0FBFAF70AFB17056746B5FBF7F996
:1035E000F51809F1300985F80190B0FBFCF90CFBE6
:1035F0001907D946B7FBF9F73037AF70B0FBF9F7C9
:103600000BFB1707B7FBF8F73037EF70B0FBF8F795
:1036100008FB1700303028715B1D98B2351806F88A
:1036200000E0801C491CC9B2734685F8018080B255
:103630000229B8D300214FF0430BE64692465322AD
:1036400032543218C01C82F801B082F802A082B253
:103650008B20484304EB800042F21075B0F814024E
:10366000491CB0FBF5F73037B754B0FBF5F705FB55
:1036700017077546B7FBF5FCB7180CF1300C87F847
:1036800001C0B0FBFEFC0EFB1C0C4D46BCFBF5FC68
:103690000CF1300C87F802C0B0FBF5FC09FB1C0CE8
:1036A000BCFBF8FC0CF1300C87F803C0B0FBF8FC55
:1036B00008FB1C0030303871521D90B23218335460
:1036C000801CC9B282F8018080B20229B7D352228D
:1036D00032543218452757704FF0560982F802903D
:1036E00082F803A08B22514304EB8101001D91F865
:1036F0002422AE49092780B291F824124FF0370EE8
:10370000B7EB121F02D20EEB111102E0302707EBCC
:1037100011113154A54902F00F02092A91F824121F
:1037200006EB000201F00F0101D9373100E0303122
:103730005170801C80B23118335481F80180801C94
:1037400081B24FF04D0C701806F801C06E22427025
:103750006D228270964A80F803A05746D269B8EB72
:10376000127F03D9302404EB127401E00EEB1274C3
:103770000471C2F303640A2C01D2303400E0373400
:103780004471C2F303540A2C01D2303400E03734C0
:103790008471C2F303440A2C01D2303400E0373480
:1037A000C471C2F303340A2C01D2303400E0373440
:1037B0000472C2F303240A2C01D2303400E03734FF
:1037C0004472C2F303140A2C01D2303400E03734BF
:1037D00002F00F0284720A2A01D2303200E037323E
:1037E000C2720C3188B231183354801C81F80180C8
:1037F00080B231183354801C81F8018080B24C2192
:10380000315431189A461A4654234B7081F802B04D
:103810003624CC7038240C71401D80B231183754D6
:103820004B7045238B704D24CC705024401D0C717F
:1038300080B231183254801CB946DFF870B181F87B
:10384000018080B200223746C646442139543918D7
:1038500045234B7056238B70F446B2FBFCF3303398
:10386000CB70B2FBFCF30EFB132330330B7181F8EA
:103870000590801D00218B2602FB06F380B20BEB26
:10388000830606EB4103491CB3F8FC41C9B2B4FB03
:10389000F5F330333B54B4FBF5F305FB1343B3FBB3
:1038A000FCF83B1808F1300883F80180B4FBFCF801
:1038B0000CFB18443034001D9C7083F8039080B2D8
:1038C0000529DED307F800A03918801C521CD2B29B
:1038D00081F801E080B2022AB7D34D223A54391858
:1038E00041234B7058238B7081F80390001DBBF867
:1038F000066281B2B6FBF5F030307854B6FBF5F0D5
:1039000005FB106C7046BCFBF0F807EB010C08F1EE
:1039100030088CF80180B6FBF0F80EFB18663036E4
:103920008CF80260C91C89B207EB010C07F801A0F2
:10393000891C89B28CF801E07A547A184FF0490C4E
:1039400082F801C04FF04E0C4B4682F802C0D37093
:10395000BBF80822091DB2FBF5F389B230337B5462
:10396000B2FBF5F305FB1323B3FBF0F47B18303403
:103970005C70B2FBF0F400FB14223032C91C9A7068
:1039800089B256467E547A18891C507089B27A18CA
:103990007E54891C50708CB22146064800F0C2FF4C
:1039A0002146BDE8F05F034800F03ABF7800001000
:1039B0000CC00720D00400100020094BAA2203EB02
:1039C000800103F820204A70401C8A70C0B2CA707F
:1039D0000228F4D3034A08210148D26810470000A6
:1039E000A00C00100CC00720064902780A7042782B
:1039F0004A7082788A70C078034AC8701421D268ED
:103A000000481047A00C00100CC00720F0B500249F
:103A1000059E0D46102903D3A1F11004E5B201243F
:103A2000C70007EB8407124C3C4427686D004FF039
:103A3000030C0CFA05FC27EA0C0727602768AA404C
:103A400017432760226C22EA0C022264226CAB40EE
:103A50001A43226401228A400549012E01EB8000AD
:103A6000816E03D0914381660020F0BD1143FAE7D7
:103A700000C002400022022800D1052209B942F00C
:103A80000A020248C26700207047000000C00240DE
:103A900070B52F4E00250124F57175713470747066
:103AA000F069C10200D57471C10300D5747141057C
:103AB00000D57471810304D53570B16921F080712E
:103AC000B161010301D4410300D5F471C10601D5F0
:103AD0003570F471410600D5F471810608D5B169DD
:103AE000B56441F080717567B161B5727570F4713C
:103AF000010600D5F471C10501D4810502D53570E8
:103B00007570F471010701D53570F471400701D566
:103B10007570F471307800B10120FDF78FFD707879
:103B200000B10120FDF742FEB07800B10120FDF7A1
:103B3000C9FFF07908B1002204E0707908B1B471CE
:103B400070BD012218210120FDF792FFB57170BDF3
:103B50003CC307201C4B10B5996C64204143186C82
:103B6000B1FBF0F4B1FBF0F200FB1414D2B29A7284
:103B7000B4EB500F01D9521C9A72D2B2642A21D9E7
:103B8000B1FBF0F4B1FBF0F200FB1414D2B29A7264
:103B9000B4EB500F01D9521C9A72D2B2642A11D9D7
:103BA000B1FBF0F2B1FBF0F400FB1411D2B29A7247
:103BB000B1EB500F01D9521C9A72D0B2642801D9CE
:103BC0006420987210BD00003CC3072010B50A4C59
:103BD000A060218000206080A08002461021FDF7B7
:103BE00047FFA068054A10F8011B9160A06020887B
:103BF000401E208010BD000000C0072000000240D1
:103C00000F4A10B50120D061506800060FD59168A9
:103C10000D4C0C4B60881954401C6080208838B1D2
:103C2000A16811F8013B9360401EA160208010BD87
:103C3000012210210020FDF71BFF0020A08010BDF5
:103C400000000240ECC4072000C0072038B51C4823
:103C5000D0F8A81141F40031C0F8A81150F8C41FE1
:103C600041F4807101600024234603220F21204685
:103C70000094FFF7CBFE0023032211211846009485
:103C8000FFF7C4FE00230322122118460094FFF719
:103C9000BDFE012210210020FDF704FF01221021AA
:103CA0000020FDF7E5FE0748B82101603221C16020
:103CB0004FF0E0214FF40050C1F8000138BD000082
:103CC00000C00F400000024070B5174D0026174C91
:103CD000A86029806E80AE80022060603246062196
:103CE0003046FDF7C5FE124A14E0E1688907FCD5AD
:103CF000A96811F8013BA360401EA9602880E06814
:103D0000C007FCD0E0684007FCD5A1686888115462
:103D1000401C688028880028E7D101220621FDF791
:103D2000A7FE666070BD0000D0C4072000000340FD
:103D30001011001038B51948D0F8A81141F400113D
:103D4000C0F8A81150F8C41F41F48061016000243C
:103D500023460222072120460094FFF757FE002346
:103D60000222082118460094FFF750FE0023022289
:103D7000092118460094FFF749FE01220621002080
:103D8000FDF790FE012206210020FDF771FE044898
:103D900040F6C72101600521016138BD00C00F4018
:103DA0000000034030B51E491E4C012008702078E9
:103DB0001D4A012802D11078401C10701378002091
:103DC00002210A2B06D9194B5D6825F001055D60BB
:103DD00021701070164C174A2378012B02D11378EA
:103DE0005B1C137013780A2B06D9134B5D6825F002
:103DF00001055D6021701070104C114A2378012B71
:103E000002D113785B1C137013780A2B06D90D4B63
:103E10005D6825F001055D602170107030BD000007
:103E200000000010330000103000001000000140BE
:103E300034000010310000100080094035000010EF
:103E40003200001000C0094070B52F482021C0F892
:103E5000A011D0F8A011890603D5D0F8A011490609
:103E6000FBD50326C0F804610024C0F8A841C0F8BF
:103E7000AC410125C0F80C512449C0F88410AA2295
:103E8000C0F88C205523C0F88C30C0F88050C0F8A2
:103E90008C20C0F88C30D0F888104901FBD5C0F8D0
:103EA0008060C0F88C20C0F88C30D0F88810C1F346
:103EB00001610329F9D12321C0F8A410C0F8AC2076
:103EC000C0F8AC30C0F8A050C0F8AC20C0F8AC309E
:103ED000D0F8A8104905FBD5C0F8A060C0F8AC2008
:103EE000C0F8AC30D0F8A810C1F301210329F9D1F2
:103EF0000749C0F8C410C0F8C841016821F47041F6
:103F000041F48041016070BD00C00F4063000500B6
:103F1000DE872804174A9068C0F342011648012939
:103F20001BD0022918D11378816901F8013B0123C4
:103F3000C370816101894FF00003491C0181C18870
:103F4000491E0904090CC180037005D1516821F094
:103F5000010151600221C17070474189491E090465
:103F6000090C4181F8D0C16911F8013B1370C1619E
:103F7000704700000000014030000010174A9068B0
:103F8000C0F34201164801291BD0022918D1137829
:103F9000016A01F8013B012303710162C1894FF0FD
:103FA0000003491CC1818189491E0904090C8181D2
:103FB000437005D1516821F0010151600221017166
:103FC0007047018A491E0904090C0182F8D0416A30
:103FD00011F8013B137041627047000000800940F6
:103FE00030000010174A9068C0F3420116480129BA
:103FF0001BD0022918D11378816A01F8013B0123F3
:1040000043718162818A4FF00003491C8182418A99
:10401000491E0904090C4182837005D1516821F0C1
:1040200001015160022141717047C18A491E090492
:10403000090CC182F8D0C16A11F8013B1370C1624A
:104040007047000000C0094030000010002809DB64
:1040500000F01F02012191404009800000F1E020A2
:10406000C0F800117047002809DB00F01F02012191
:1040700091404009800000F1E020C0F80011704735
:1040800038B52548D0F8A81141F08071C0F8A811C2
:1040900050F8C41F41F480510160002402231A46E5
:1040A000194620460094FFF7B1FC02231A4603216B
:1040B00000200094FFF7AAFC022301221721002010
:1040C0000094FFF7A3FC0223012218210020009492
:1040D000FFF79CFC02230122192100200094FFF726
:1040E00095FC022301221A2100200094FFF78EFC88
:1040F000022303221E2101200094FFF787FC0223E4
:1041000003221F2101200094FFF780FC044803498B
:104110000160C46038BD000000C00F40FF092100ED
:104120000040034010B5002219210320FDF7A0FC38
:1041300001480168016010BD0040034038B51B48CC
:10414000D0F8A81141F40041C0F8A81150F8C41FDC
:1041500041F0800101600124022322461C2100203D
:104160000094FFF753FC022301221B21002000943E
:10417000FFF74CFC01210020FFF77CFC0C48FA21E2
:1041800001614161402101604FF0E0210015C1F85B
:10419000000101221A210320FDF784FCBDE838400C
:1041A00000221A210320FDF763BC000000C00F406D
:1041B00000C0014030B50C4A00240123906091708A
:1041C000D470137002215170C178CD0706D00078E9
:1041D00001F0FE01884201D1137100E0147103491E
:1041E0002020086030BD000000C3072000C001404F
:1041F00070B50C480C4D002144884FF6FF7303EA5C
:10420000C1100822460403EA400000D56040521E57
:104210001204120CF6D125F81100491C89B2FF29AD
:10422000EDD970BD0CC00720940E00100120FDF7E1
:104230002BFC012216211046FDF734FC0122172128
:104240001046FDF72FFC002205211046FDF72AFC41
:10425000012216211046FDF70BFC01221721104602
:10426000FDF706FCFDF7B8FC0520FDF7F7FD002281
:1042700018210120FDF7FCFB012211211046FDF75A
:1042800011FC002211210120FDF7F2FB0122102177
:104290001046FDF707FC002210210120FDF7E8FB86
:1042A00001220F211046FDF7FDFB00220F21012006
:1042B000FDF7DEFB01220E211046FDF7F3FB002285
:1042C0000E210120FDF7D4FB01220A211046FDF743
:1042D000E9FB00220A210120FDF7CAFB012213217C
:1042E0000020FDF7DFFB012213210020FDF7C0FBBA
:1042F00001220F211046FDF7BBFB002217210120F0
:10430000FDF7B6FB002216210120FDF7B1FB0521C8
:104310000020FDF7A1FB0028F9D000F043FA00F0DF
:1043200095FA00F0C9FAFFF791FCFFF703FDFFF7DC
:10433000A7FEFFF703FF00F019FA4FF0E020D6497F
:104340004161D64AF82182F8141D002585610721B4
:104350000161FFF74DFFFDF719FEFFF7E3FE0020B7
:10436000FDF770F80120FDF76DF80020FDF7D0F89B
:104370000120FDF7CDF80020FDF7D6F80120FDF76C
:10438000D3F8DFF81CA3DFF81CB3C74C4FF47A77DF
:1043900001264FF0A0084FF0A10920780128FCD198
:1043A00025706068C149401C60600860C0490860B1
:1043B000B0FBF7F107FB110010B9E068401CE060AA
:1043C000FDF790FCBB48017831B10570E068032827
:1043D00002D9FF20607002E06078FF2802D1E07807
:1043E000401CE070FCF7A8F8B3480168491C016064
:1043F000FDF75CFEB1490888401C088060781028F1
:1044000071D021DC88B30128C7D1DAF80000C106D9
:1044100003D5AB4B1968491C1960810603D5A94B1C
:104420001968491C1960410603D5A74B1968491C36
:104430001960000603D5A5480168491C0160A4481D
:10444000006800287ED092E02028D9D0FF28A4D18F
:10445000E078642877D077DC012876D002289CD1D8
:10446000FDF794FA1E219B4846E0FFE79A48007842
:10447000802801D110206070606840F2A462A0F230
:10448000A46190423BD014DCB0F52F7FE2D0B0F5B0
:10449000966F29D0A0F5C0607238B5D11E228F4921
:1044A0008048FBF711FF0028AED140F28A206060FF
:1044B00073E7642934D0A1F54061E439F8D1FDF700
:1044C000A5FA8748874900780870874909684143F9
:1044D0006420B1FBF0F08549086066700120FDF7AB
:1044E000ADF80120BAE0D0E07C481E2180F80080C1
:1044F0004670867080F80390FFF75CFE4DE7FDF78D
:104500006FF97B480088A0F5B441A53902D020207E
:10451000607042E764480B21103000F003FA3CE77A
:104520007448016874480160744801687448016007
:1045300074487549006808607448754900780870C7
:10454000744903E011E08CE07FE083E00A6866498B
:1045500000280A607049714A09881180A8D1704802
:10456000016841F08071016017E7102060706D48AC
:10457000006834280BD9FCF76BF8FCF77BF8FFF7E1
:1045800087FAFDF7CDFB68480168491C0160606847
:10459000B0FBF7F107FB1100002889D1A068401C8F
:1045A000A060DAF80010CA0503D5604B1A68521CE7
:1045B0001A60890503D55E490A68521C0A600A28F8
:1045C0000BD97821B0FBF1F201FB120028B9FDF7FD
:1045D000DDF91E213F48FFF7EDFD56480078012820
:1045E0000FD1207AC00707D1002218210120FDF742
:1045F0003FFA207AC00704D0012218211046FDF7A7
:1046000037FAA068032884D9A078401CC0B2A070F3
:104610000B2884D2DFE800F006070B11140606060B
:1046200006061700B9E6FEF757FD002200E001225A
:1046300017210120FDF71CFAAFE6FCF7DBF8ACE62A
:10464000FBF7AEFEA9E6A570A7E6C82814D0D228CD
:104650008AD117E00020FCF7F1FF0020FDF7A6F853
:104660009BE68BF800808BF801608BF802608BF87A
:1046700003901E210B483FE7FDF704F90028D1D134
:10468000E5708AE6FBF730FE87E60022162101205E
:10469000FDF7EEF9F6E700009F8601000FE000E06D
:1046A000600000105AC407200000001020C007203E
:1046B00098C4072071000010E0C4072010C0072034
:1046C0008CC407206400001090C40720680000100C
:1046D0002CCB072028C407200CC007209CC407202F
:1046E0003FC3072040C307207CC3072080C30720A7
:1046F0004EC30720A8C30720B4C30720ACC30720BC
:10470000BCC30720A0C3072084C3072045C30720DC
:1047100046C30720A4C307204CC3072050C307206B
:1047200054C3072028C007207400001094C4072039
:104730006C00001042C3072030B5102300220A4D40
:104740000AE0845C521C84EAD314E4B292B235F8D5
:10475000144084EA03239BB28A42F2D34FF6FF70DF
:1047600000EA430030BD0000940E00100B48D0F862
:10477000AC1141F40041C0F8AC1150F8C41F41F431
:10478000000101600648002101673121C16032212A
:104790008161012141610420FFF765BC00C00F4029
:1047A0000040094038B51C48D0F8A81141F44071C8
:1047B000C0F8A81150F8C41F41F010010160002496
:1047C00002231A46214618460094FFF71FF90223D8
:1047D0001A46012118460094FFF718F90221012218
:1047E0000846FDF75FF901220D210220FDF75AF975
:1047F0000A480121017203210173022242608322CF
:104800000273042202700471D92282620173BDE82E
:1048100038400620FFF71ABC00C00F4000000140DE
:1048200070B50D460446022101220846FDF720F925
:10483000044A0549D461558114F8010B0870D4610C
:1048400070BD0000300000100000014038B518486D
:10485000D0F8AC1141F44031C0F8AC1150F8C41F8D
:1048600041F0807101600024022301220A212046C8
:104870000094FFF7CBF8022301220B2100200094C3
:10488000FFF7C4F80B4801210172032101730222D2
:10489000426083220273042202700471D92280F8DC
:1048A00028200173BDE838400720FFF7CFBB000088
:1048B00000C00F400080094038B51848D0F8AC114E
:1048C00041F44021C0F8AC1150F8C41F41F0007110
:1048D00001600024022303221C2104200094FFF71E
:1048E00095F8022303221D2104200094FFF78EF87F
:1048F0000B480121017203210173022242608322CD
:104900000273042202700471D92280F828200173F6
:10491000BDE838400820FFF799BB000000C00F40F9
:1049200000C00940044A054BD062D18210F8011B37
:104930001970D062704700003000001000C00940BC
:104940000000000000000000000000000000000067
:1049500000C001000000000000C0120000000000C4
:1049600000C023000000000000C02500000000007F
:1049700000C03600000000000000000000C0480039
:1049800000C04900C4490000000000107800000089
:10499000640100003C4A000000C00720EC04000055
:1049A000080100003C4A00007800001000110000DF
:1049B00080010000BC4C0000ECC407208C0C0000FF
:1049C0008001000000000000000000000000000066
:1049D00000000000454550524F4D204F4B0A0D003E
:1049E00000000000000000000000000000000000C7
:1049F00000000000000000000000000000000000B7
:104A000000000000000000000000000000000000A6
:104A10000000000000000000000000000000000096
:104A20000000000000000000000000000000000086
:104A3000000000000000000000000000C11201831F
:104A4000994523CD3B0574ECC4072014E9E9021411
:104A500020BF022410980213710214F0490214219D
:104A60003A021428170214B8FF011478E00114F078
:104A7000CC011438B70114E0A50124409601137746
:104A8000011460670114F5540114204801145040CA
:104A9000011BB0301C13190114A40A0114F8010100
:104AA00023A0F523F2E923EEDE2302D22394CA23C6
:104AB0002AC1234CB823DCAF238CA62350A023208B
:104AC00099234A9223CE8B23F68423D07F23447AE2
:104AD0001BF47404226F23D46A239E662348622346
:104AE0002E5E23465A235C5623F85223924F2354BA
:104AF0004C233E49233B461B80434822401B3A3E01
:104B000008223B237239233C37231635230E331BEF
:104B10001A312C222F23782D23C02B1B1C2A8822EC
:104B2000281B102764222523402423EC221BAC21C0
:104B3000E31A2098221F23281E1B241D44221C2315
:104B40001D1B1B2C1A842219236A18238E1723C1BC
:104B5000161BFE153C1904238C1423D8131A2F049A
:104B60001B8E12A422111A62041BCC107819041B8C
:104B7000BE0F90190423C40E1A4C0423DD0D1A66CF
:104B80000423F80C1A94041A30041BCC0BB8190433
:104B90001A180423C80A1A6E041A1D0423CE091A0F
:104BA00088041A420423FC081AB4041A7A041A343A
:104BB0000423F8071ABC041A85041A4E041A1C04AC
:104BC00023EA061AB8041A84041A54041A2C04237B
:104BD000FA051AD2041AAB041A82041A5A041A3CAF
:104BE000041A14041BF3046419041AB0041A92047E
:104BF0001A74041A55041A38041A1A0423FC031AE6
:104C0000E80414E9E9021438B70114A40A01238C5A
:104C1000A623D46A1B3B46E0222F2377204BC116E4
:104C2000EC29C829A42980395C193C11021A0219FF
:104C30002711192F51198F3112101A0104211A202E
:104C400006195921033B6464CB204E04013810152A
:104C50007869487130755C76EC771879E079A87AD4
:104C6000707B387C30147D647D967DC87D2C7EC23F
:104C70007E587F2080E880DC827812030A111B2393
:104C80002B32373C41464B50555A5F64091818691E
:104C90006E73787D82878C91969B3C3F434850543D
:104CA000575A5C5F6264011B6362011AA0FA012E0D
:0C4CB0001932023EA1094042E100000060
:04000005000000CD2A
:00000001FF
