:020000040000FA
:10000000B8D10720C5010000CD010000CF010000DC
:10001000D1010000D3010000D50100000000000064
:10002000000000000000000000000000D7010000F8
:10003000D901000000000000DB0100004140000089
:10004000DF010000DF010000DF010000DF01000030
:10005000DF010000DF010000B14100001942000093
:1000600081420000DF010000511B0000DF010000A1
:10007000DF0100009D3E0000DF010000DF01000005
:10008000DF010000A13C0000DF010000DF010000F3
:10009000DF010000F5020000DF010000DF010000C9
:1000A000DF01000009140000DF010000DF01000093
:1000B000DF010000DF010000DF010000DF010000C0
:1000C000DF010000DF010000DF01000000F002F8A6
:1000D00000F068F80AA090E8000C82448344AAF17A
:1000E0000107DA4501D100F05DF8AFF2090EBAE878
:1000F0000F0013F0010F18BFFB1A43F0010318475C
:10010000544B0000944B00000A444FF0000C10F8D0
:10011000013B13F0070408BF10F8014B1D1108BF85
:1001200010F8015B641E05D010F8016B641E01F825
:10013000016BF9D113F0080F1EBF10F8014BAD1C75
:100140000C1B09D16D1E58BF01F801CBFAD505E093
:1001500014F8016B01F8016B6D1EF9D59142D6D3ED
:1001600070470000103A24BF78C878C1FAD8520707
:1001700024BF30C830C144BF04680C607047000021
:100180000023002400250026103A28BF78C1FBD8A0
:10019000520728BF30C148BF0B6070471FB51FBD55
:1001A00010B510BD00F061F81146FFF7F7FF04F03D
:1001B0008BF900F07FF803B4FFF7F2FF03BC00F007
:1001C00087F800000948804709480047FEE7FEE736
:1001D000FEE7FEE7FEE7FEE7FEE7FEE7FEE7FEE7F7
:1001E00004480549034A054B70470000E5400000FC
:1001F000CD000000B8110010B8D10720B8CF0720FB
:1002000010B5203AC0F00B80B1E81850203AA0E8B1
:100210001850B1E81850A0E81850BFF4F5AF5FEAE5
:10022000027C24BFB1E81850A0E8185044BF18C998
:1002300018C0BDE810405FEA827C24BF51F8043B3F
:1002400040F8043B08BF7047D20728BF31F8023B93
:1002500048BF11F8012B28BF20F8023B48BF00F827
:10026000012B7047704770477047754600F02CF8B7
:10027000AE4605006946534620F00700854618B093
:1002800020B5FFF7ADFFBDE820404FF000064FF06E
:1002900000074FF000084FF0000B21F00701AC46BB
:1002A000ACE8C009ACE8C009ACE8C009ACE8C009DA
:1002B0008D46704710B50446AFF300802046BDE878
:1002C0001040FFF778BF0000004870475811001039
:1002D00001491820ABBEFEE726000200704700006F
:1002E000000940F63F1148430149B0FBF1F0704767
:1002F000FFFF0F007047000000000000FFFFFFFF3E
:1003000070B50446214842210170FF21417081707F
:10031000C1700171052103F025FE1D4D1D4869784E
:1003200000F8241000EB8400AA784270EB78837008
:100330002D79C57002EB0120174D03EB0022174801
:1003400004EB840100EB0110EA60297840F82120D9
:100350001CB9132915D0491C2970697801290FD1BE
:100360000022114650F82130491CC9B21A44142900
:10037000F8D31420B2FBF0F00849283941F82400E2
:1003800070BD0021297001216970E9E714C90720B7
:10039000F410001004CF07208C000010E4CB0720DD
:1003A0002DE9F05F3A4C41204FF00D0820704420B9
:1003B00060703720A0703120E0703220207134202E
:1003C00060710A2584F806800821E57100204FF04D
:1003D000430B4FF0480E04F5FA7A42F210794FF4CD
:1003E0007A764FF0640CB0FBF5F3621804F801B0B4
:1003F00082F801E030339370B0FBF5F305FB130393
:100400003033D37020231371491D8AB25AF820105B
:100410004B46B1FBF3F73037A754B1FBF9F709FBB3
:100420001713B3FBF6F7A31830375F70B1FBF6F77D
:1004300006FB1717B7FBFCF730379F70B1FBFCF7D3
:100440000CFB1717B7FBF5F73037DF70B1FBF5F78B
:1004500005FB171130311971521D91B2621804F861
:100460000180891C401CC0B2557089B20128BAD9DC
:1004700004F801806018891C45708CB2214604483C
:1004800004F0B8FB2146BDE8F05F014804F030BB42
:1004900078C9072030B403F00703029C01F01F0164
:1004A000E40344EA033343EA411102F01F0211431B
:1004B00000F03F02044802700A0A4270817030BCAA
:1004C000032103F04FBD000014C90720F0B4C90791
:1004D000090D02F00302DDE9044541EA422103F07F
:1004E000010241EA022104F00102DDE9066741EA66
:1004F000C21105F0010241EA821106F0010241EA4F
:10050000421107F00302DDF820C041EAC2010CF0FD
:100510000702114300F03F02044802700A0A4270C9
:100520008170F0BC032103F01DBD000014C9072039
:1005300030B44905DDE9024502F0010241EA025109
:1005400041EA435104F0010241EA0241C5F30902C4
:10055000114300F03F02054802700A0C42700A0A7B
:100560008270C17030BC042103F0FCBC14C90720A8
:1005700070B5424C0026012560684149072286B0CB
:10058000B0F5617F43D010DCB0F5FA7F3BD0B0F519
:100590002F7F62D10D704A705020887006B0032101
:1005A000BDE87040364803F0DDBCB0F57A7F4DD031
:1005B000A0F58060013850D1FFF7A2FE0023112280
:1005C000194609200096FFF765FF2E4E002206F11E
:1005D0005005A5F5257355F82200FFF781FE46F872
:1005E0002200A0680F2808D255F82200FFF778FEF5
:1005F00053F82210084443F82200A068401CA06071
:1006000010282CD032E00D704A705420C5E70D70D0
:100610004A70C02088700321194803F0A3FC02200F
:1006200001950295CDE9030600231A4619461920C3
:100630000096FFF74BFF3C20CDE90060002203232A
:1006400011462120FFF774FF009600E0009500237B
:10065000112219460920FFF71DFF06B070BD53F89F
:1006600022000F21B0FBF1F043F82200521C92B29D
:10067000072AB0D940F2E7306060EEE78C00001046
:1006800014C907206CCB072070B504460120002355
:1006900006E0E55CCE5CB54200D000205B1CDBB21E
:1006A0009342F6D370BD000000B501F06FF800F082
:1006B00079FF03F097FB04480068192803D95DF817
:1006C00004EB00F055BE00BD1CC007205C4810B50F
:1006D00001468269096D940542F2107321F00041D0
:1006E00005D5994203D9C46944F00804C461D20510
:1006F00005D5994203D9C16941F00401C161817AEC
:100700000A29C16902D241F4803101E021F480312B
:10071000C1614C490A68012A7ED14B4C00220A6013
:10072000B4F8641146F29C33994209D2016A491C1B
:1007300001623C2905D9C16941F02001C16100E095
:100740000262B4F8621148F69463994209D9416A89
:10075000491C4162282905D9C16941F01001C161D4
:1007600000E04262836D49F26A518B4209D2816A8C
:10077000491C8162282905D9C16941F08001C16104
:1007800000E082624DF2DE518B4209D9C16A491CF8
:10079000C162282905D9C16941F04001C16100E069
:1007A000C262B4F80632A02B08D9016B491C016360
:1007B000642903D9C16941F48071C161962B04D2C7
:1007C0000263C16921F48071C161B4F808123C2947
:1007D00008D2446B641C4463642C03D9C46944F498
:1007E0000074C461412904D94263C46924F40074CB
:1007F000C461642908D2846B641C8463642C03D9AB
:10080000C46944F40034C461662904D98263C469AC
:1008100024F40034C46100E00BE0591A0F2909DD0B
:10082000C16B491CC163642903D9C16941F480616A
:10083000C16110BDC263C16921F48061F8E70000A5
:1008400030C3072008C007209C0000102DE9F05F8E
:10085000FE4B42204FF0410E187083F801E0542007
:1008600098700D25DD700A241C71422058711946BC
:100870004FF05608481D81F8068020218170C17014
:100880006D220271DFF8C8B380F805808171F14FE5
:10089000DBF8582042F2107AB2FBF7F63036C67118
:1008A000B2FBF7F607FB162CBCFBFAF6B2FBFAFC20
:1008B00030360AFB1C2C06724FF47A79BCFBF9F631
:1008C000B2FBF9FC3036467209FB1C2C6426BCFBDB
:1008D000F6FC0CF1300C80F80AC0B2FBF6FC06FB0B
:1008E0001C2CBCFBF4FC0CF1300C80F80BC0B2FBF0
:1008F000F4FC04FB1C2230320273457384735020D5
:1009000018751A4602F1140082F815809175D17598
:100910006D22027180F805808171DBF85C20B2FBEA
:10092000F7FC0CF1300C80F807C0B2FBF7FC07FBBA
:100930001C2CBCFBFAF7B2FBFAFC30370AFB1C2C70
:100940000772BCFBF9F7B2FBF9FC3037477209FBC1
:100950001C27B7FBF6F730378772B2FBF6F706FBBA
:100960001726B6FBF4F63036C672B2FBF4F604FB7B
:1009700016223032027345738473432083F82300B8
:100980001A4602F1230082F8241081704F22C270AF
:10099000462202715322427181713022C271027269
:1009A00031264672322787723726C6723926067379
:1009B00045738473482083F832001E464FF0430C81
:1009C00006F1320086F833C081704F26C670462685
:1009D0000671532646718171C271027231264672C8
:1009E00087723526C672027345738473432083F879
:1009F00041001A4602F1410082F8421081706D22D6
:100A0000C27080F804E04171DBF85010002901DA6F
:100A10002D2200E02B228D4B8E4E42F2107783F870
:100A2000472021F07842B2FBF6F1303183F84810CC
:100A3000B2FBF6F106FB1121B1FBF7F13031017287
:100A4000B2FBF7F107FB11214FF47A74B1FBF4F11B
:100A500030314172B2FBF4F104FB11216423B1FB8C
:100A6000F3F130318172B2FBF3F103FB11250A215E
:100A7000B5FBF1F53035C572B2FBF1F501FB15227E
:100A8000303202734FF00D08DFF8C09180F80D800E
:100A90008173442289F850204A46532582F85150E8
:100AA00002F15000472282705222C2704FF0410A78
:100AB00080F804A054224271DFF894B1452282717B
:100AC0002025C571BBF80C20B2FBF4FC04FB1C2CE8
:100AD000BCFBF3FC0CF1300C80F808C0B2FBF3FC5B
:100AE00003FB1C2CBCFBF1FC0CF1300C80F809C0A2
:100AF000B2FBF1FC01FB1C223032827280F80B80C9
:100B000001734FF0430E4A4689F85DE04FF0480C00
:100B100002F15D0082F85EC0472282705222C270EC
:100B200080F804A05422427145228271C571BBF83D
:100B30000E20B2FBF4FC04FB1C2CBCFBF3FC0CF100
:100B4000300C80F808C0B2FBF3FC03FB1C2CBCFB90
:100B5000F1FC0CF1300C80F809C0B2FBF1FC01FB98
:100B60001C223032827280F80B800173482289F88F
:100B70006A204A4602F16A0082F86BE08570C5700F
:100B80006D22027180F805A08571DBF85420B2FB5C
:100B9000F6FC0CF1300C80F807C0B2FBF6FC06FB4B
:100BA0001C2CBCFBF7FC0CF1300C80F808C0B2FB2D
:100BB000F7FC07FB1C2CBCFBF4FC0CF1300C80F8A0
:100BC00009C0B2FBF4FC04FB1C2CBCFBF3FC0CF1D5
:100BD000300C80F80AC0B2FBF3FC03FB1C2CBCFBFE
:100BE000F1FC0CF1300C80F80BC0B2FBF1FC01FB06
:100BF0001C223032027380F80D808173462289F8FE
:100C000079204A4602F1790082F87AE085706D22F7
:100C1000C27080F804A0682242718571DBF84050F0
:100C2000B5FBF6FC0CF1300C80F807C0B5FBF6FC08
:100C300006FB1C56B6FBF7F630360672B5FBF7F628
:100C400007FB1656B6FBF4F6303605E020C7072042
:100C500030C30720A08601004672B5FBF4F604FB02
:100C60001654B4FBF3F430348472B5FBF3F403FB95
:100C70001453B3FBF1F33033C372B5FBF1F301FB53
:100C80001351303101734B460D2183F886100A2130
:100C900081739A465346462003F8880F49464324F9
:100CA00081F8894001F18800722181706D21C17045
:100CB00041210171427120215A468171FE4C516CD3
:100CC000B1FBF4F43034C471FB4CB1FBF4F504FB1C
:100CD00015143D46B4FBF5F4303404722C46B1FBD8
:100CE000F4F504FB15144FF47A75B4FBF5F43034C5
:100CF00044722C46B1FBF4F504FB15156424B5FBD6
:100D0000F4F4303484726424B1FBF4F504FB15145C
:100D10000A25B4FBF5F43034C4722C46B1FBF4F56B
:100D200004FB1511303101730D2141730A218173C8
:100D30005220D8734946432481F8984001F1970026
:100D4000202181706D21C1704121017168214171A3
:100D500020218171D84C916CB1FBF4F43034C47112
:100D6000D54CB1FBF4F504FB15143D46B4FBF5F48A
:100D7000303404722C46B1FBF4F504FB15144FF427
:100D80007A75B4FBF5F4303444722C46B1FBF4F5BB
:100D900004FB15146425B4FBF5F4303484722C463E
:100DA000B1FBF4F504FB15140A25B4FBF5F430345B
:100DB000C4722C46B1FBF4F504FB151130310173FC
:100DC0000D2141730A2181735220987749464324AB
:100DD00001F1A60081F8A740202181706D21C1702A
:100DE000412101716D214171732181712021C171F6
:100DF000B24C516FB1FBF4F430340472AF4CB1FB20
:100E0000F4F504FB1514AE4DB4FBF5F43034447224
:100E10002C46B1FBF4F504FB1514AA4DB4FBF5F414
:100E2000303484722C46B1FBF4F504FB1514A24D4A
:100E3000B4FBF5F43034C4722C46B1FBF4F504FB7A
:100E400015143D46B4FBF5F4303404732C46B1FB65
:100E5000F4F504FB15144FF47A75B4FBF5F4303453
:100E600044732C46B1FBF4F504FB15146425B4FB64
:100E7000F5F4303484732C46B1FBF4F504FB1515FE
:100E80000A24B5FBF4F43034C4730A24B1FBF4F53E
:100E900004FB1511303101740D214174847452200A
:100EA00083F831004946432401F1B90081F8BA4082
:100EB000202181702521C170202101714171817132
:100EC000917A6424B1FBF4F43034C4716424B1FB2E
:100ED000F4F504FB15140A25B4FBF5F43034047260
:100EE0002C46B1FBF4F504FB1511303141720D2194
:100EF00081720A21C1724C24494683F83D40442541
:100F000081F8C65001F1C500432181702021C170D4
:100F10006D21017141214171682181712021C171CF
:100F2000664D916FB1FBF5F530350572634DB1FB40
:100F3000F5F605FB1615624EB5FBF6F53035457234
:100F40003546B1FBF5F605FB16155E4EB5FBF6F51D
:100F5000303585723546B1FBF5F605FB1615564E54
:100F6000B5FBF6F53035C5723546B1FBF5F605FB38
:100F700016153E46B5FBF6F5303505733546B1FB23
:100F8000F5F605FB16154FF47A76B5FBF6F5303518
:100F900045733546B1FBF5F605FB16156426B5FB22
:100FA000F6F5303585733546B1FBF5F605FB1615BC
:100FB0000A26B5FBF6F53035C5733546B1FBF5F6B7
:100FC00005FB1611303101740D2141740A21817421
:100FD00083F850404946432401F1D80081F8D940B4
:100FE00084702021C1706D210171412141716821FE
:100FF00081712021C17102F18001304C0968B1FB7F
:10100000F4F4303404722D4CB1FBF4F504FB1514E8
:101010002B4DB4FBF5F4303444722C46B1FBF4F59F
:1010200004FB1514274DB4FBF5F4303484722C46C0
:10103000B1FBF4F504FB15141F4DB4FBF5F430348B
:10104000C4722C46B1FBF4F504FB15143D46B4FB09
:10105000F5F4303404732C46B1FBF4F504FB15149D
:101060004FF47A75B4FBF5F4303444732C46B1FB7D
:10107000F4F504FB15146425B4FBF5F430348473E3
:101080002C46B1FBF4F504FB15150A24B5FBF4F46A
:101090003034C4730A24B1FBF4F504FB151130316C
:1010A00001740D214174847442208AF8EB00484693
:1010B000502300F1EB0107E0A086010000E1F505F7
:1010C0008096980040420F0080F8EC302020887015
:1010D0005320C87054200871552048712020887111
:1010E000D0690923B3EB107F01D2372300E030230E
:1010F0009D4C03EB1073C0F3036984F8F230B9F12F
:10110000090F02D909F1370301E009F13003964CC8
:10111000C0F30357092F84F8F33002D907F13703DE
:1011200001E007F13003904CC0F30346092E84F828
:10113000F43002D906F1370301E006F130038A4C9E
:10114000C0F30335092D84F8F53002D905F13703D2
:1011500001E005F13003844C84F8F630C0F3032439
:10116000092C02D904F1370301E004F13003DFF860
:10117000F8C18CF8F730C0F30313092B02D903F13F
:10118000370C01E003F1300CDFF8DC8100F00F02D6
:10119000092A88F8F8C002D902F1370C01E002F1FF
:1011A000300CDFF8C4814FF00D0B4FF00A0E88F8B9
:1011B000F9C088F8FAB081F810E04FF0570C8AF8BF
:1011C000FCC0DFF8A4C14FF04B080CF1FC018CF817
:1011D000FD804FF020088CF8FE804FF0530C81F812
:1011E00003C04FF0540C81F804C04FF0550C81F847
:1011F00005C0DFF878C181F806804FF00908DCF8F7
:1012000018C0B8EB107F07D2372000EB1C70DFF856
:1012100058C18CF8030105E0302000EB1C7C5248DB
:1012200080F803C1DFF844C1DFF83C816046B9F1C2
:10123000090F8069C0F3036001D9373000E0303016
:1012400088F804014948092F474F8069C0F30350CB
:1012500001D9373000E0303087F805014348092EC6
:10126000414E8069C0F3034001D9373000E030308F
:1012700086F806013D48092D3B4D008BC0F3033035
:1012800001D9373000E0303085F807013748092CA4
:10129000354C008BC0F3032001D9373000E03030EB
:1012A00084F808013148092B2F4B007EC0F303104E
:1012B00001D9373000E0303083F809012B48092A82
:1012C000294A007E00F00F0001D9373000E03030AD
:1012D00082F80A0124484D25544680F80BB181F864
:1012E00010E0542020498AF80D0101F20D1081F818
:1012F0000E51502181707021C170612101717221E4
:101300004171202181719CF804006421B0FBF1F54A
:10131000303584F81451B0FBF1F501FB150172462C
:10132000B1FBF2F61049303601F58A7581F8156186
:10133000B0FBF2F102FB11003030A8705B4684F87C
:101340001731094840F21B14214680F818218AF809
:10135000193180F81A2103F04DFC2146BDE8F05FF9
:10136000014803F0C5BB000020C7072030C3072099
:101370000021084A08468B23434302EB8303401CA9
:10138000B3F81432C0B201EB43010228F3D3024890
:10139000816570479C00001030C30720F0B5194EDE
:1013A00000208B21414306EB8101401CCA8980B299
:1013B00002F47042CA810228F3D3002201270020E0
:1013C0008B21514306EB8101B1F8405007FA00F33D
:1013D0009CB21D420CD001EB4003B3F842C0B1F8FF
:1013E000643103F5FA739C4502D9CB892343CB8141
:1013F000401C80B20C28E9D3521C92B2022ADED3E0
:10140000F0BD00009C00001078B51248C068009044
:10141000114EC0074FF0010404D01049002000F025
:1014200021F8346000980C4D8007A5F1080500D51F
:101430002C600B48C0680090C00705D00749012008
:10144000103100F00FF874600098800700D56C60D0
:1014500078BD00000040044008C3072000C70720F3
:101460000080044068B10B48026AD30F4B73C2F38B
:1014700080738B73C2F303420A73426A0A6013B12A
:1014800005E00548F0E7826A4A60C26A8A60042182
:101490004160704700800440004004402DE9F8435B
:1014A000071E2948294DDFF8A8804FF0000613D009
:1014B000444650F8C41F11D141F40051016000238B
:1014C000012219461846009602F002FB0023012271
:1014D00011461846009610E02C46EAE741F4804198
:1014E00001600023012207210220009602F0F0FA99
:1014F0000023012208210220009602F0E9FA0120CF
:101500004FF0E0224106C2F80011124A102182F881
:101510000014114A0221116020602661A6600F4864
:1015200007B145460E4A0A21B2FBF1F1B1FBF0F0DA
:10153000401EC0F309010B48806A0843686103201C
:101540002061BDE8F883000000C00F400040044067
:101550000080044019E000E000C0034020A1070023
:1015600040787D01104C000018B103480021016053
:1015700070470248FAE70000008004400040044041
:1015800040B10549CA695207FCD5044A012142F815
:10159000201070470249F5E70080044000C307208F
:1015A00000400440F0B5384B384C18469A69006D3D
:1015B000D10520F000404FF000051BD5D96F014444
:1015C000D967A14209D9B1FBF4F69F6F3E449E67EB
:1015D000B1FBF4F604FB1611D967596F884202D2A9
:1015E000091A596706E09E6C1EB1761E21449E645E
:1015F000F6E75D6791052ED591032CD4224A8032FF
:10160000516801445160A14209D9B1FBF4F6176851
:101610003E441660B1FBF4F604FB16115160596F9D
:1016200008445867A0420CD9996C184A491C524288
:1016300010449964586745F20820814201D35D67E0
:101640009864134848F6AC21B0F86201884202D988
:10165000986C58641864D86F9630D867586F96287D
:1016600001D9963806E0996C31B1491E9964074951
:1016700096390844586700E05D67986F4FF47A51D7
:10168000B0FBF1F09882F0BD30C3072080EE360049
:101690009C00001010B50B4C012809D0002211212C
:1016A000012000F011FAA06920F00200A06110BD35
:1016B00001221121104600F007FAA06940F0020053
:1016C000F4E7000030C3072018B50C46010A21706A
:1016D00060708DF800108DF801000221684603F05B
:1016E00093F9010AA170E07018BD00002DE9F043E4
:1016F000DFF894800C263546B8F842400021234696
:101700004FF0010900208B224A4308EB820CBCF801
:10171000407009FA00F2174217D00CEB4002B2F801
:101720004220A24207D9C1F1010606EB460600EBB2
:1017300086061446B6B29A4207D21346C1F1010298
:1017400002EB420200EB820295B2401CC0B20C28B0
:10175000DFD3491CC9B20229D4D3E01A82B20021D6
:101760008B20484308EB8000491CA0F86241A0F898
:101770006431A0F86621A0F86861C9B2A0F86A5186
:101780000229EDD3BDE8F0839C000010F0B51B48A2
:101790001B4D00260468AB69EA6C23F400714FF41A
:1017A0009677A4F2FF40B4F5A06F12D26FF0130445
:1017B000604364244443B4FBF2F2AA81B84218D9CE
:1017C00040F00040286523F4007040F48070A86168
:1017D000F0BD00EB8000800064244443B4FBF2F2CF
:1017E000EA81B84205D9286523F4807040F400707E
:1017F000EDE721F480702E65E9E700006CCB07204F
:1018000030C3072010B50B4C012809D0002210214D
:10181000012000F059F9A06920F00100A06110BD7D
:1018200001221021104600F04FF9A06940F001009C
:10183000F4E7000030C30720274810B5A02101704D
:10184000012141708170A121C170C1790279837930
:1018500001EB02614279120402EB03220A44A0F573
:101860008F710A66C27A037A847A02EB0362437A42
:101870001B0403EB04231A444A66027B4A72027C6F
:10188000437BC47B02EB0362837B1B0403EB0423D7
:101890001A448A66027D437CC47C02EB0362837C2B
:1018A0001B0403EB04231A44CA66027E437DC47DF5
:1018B00002EB0362837D1B0403EB04231A440A67D3
:1018C000827E437E02EB03220A82027FC07E02EB0D
:1018D0000020488210BD00004EC407202DE9F043CF
:1018E0003F48A021A0F58F790170002141700121AE
:1018F0008170A121C170C1790279837901EB026104
:101900004279120402EB03220A44C9F86020C37A28
:10191000047A857A03EB0463447A4946240404EB91
:10192000052403EB0408C9F8648090F80CC089F81A
:1019300009C0047C437BC57B04EB0363847B2404E4
:1019400004EB05241F198F66037D447CC57C03EBE3
:101950000463847C240404EB05241E19CE66037EF4
:10196000447DC57D03EB0463847D240404EB0524DE
:101970001D190D67837E447E03EB04239CB20C8209
:10198000037FC07E03EB002083B24B82D9F858104E
:1019900001208A4200D00020D9F8482049469045CD
:1019A00000D000208A7A944500D000200A6C97422B
:1019B00000D000208A6F964200D00020084A9E3A4C
:1019C0001268954200D00020B9F814108C4200D063
:1019D0000020A3F5B441A53900D00020BDE8F08374
:1019E0004EC407201E48A021A0F1EC020170012185
:1019F00041708170916D0B0EC3700B0C03710B0A5B
:101A000043718171916C0B0EC3710B0C03720B0A45
:101A100043728172917AC172116C0B0E03730B0CBD
:101A200043730B0A8373C173916F0B0E03740B0C1A
:101A300043740B0A8374C174A0F16C0109680B0E26
:101A400003750B0C43750B0A8375C175918A0A0ADD
:101A5000027641765A218176A521C1767047000031
:101A60001CC4072030B51048104AB0F8081210788E
:101A700002F11403A2F1C404884201D91878E0707D
:101A8000D07C884201D2D87CE0700020155C8D4269
:101A900005D215186D788D4201D91D5CE570401C8A
:101AA000C0B21328F2D330BD9C000010F4C307204D
:101AB000044A02EB4010406901228A40104000D0E5
:101AC0000120704700C0092001238B40034901EB2E
:101AD00040100AB183617047C361704700C009209C
:101AE0000549002851F8C40F02D040F4004001E03D
:101AF00020F400400860704700C00F4010B5064C4D
:101B0000012304EB40108B4001680AB1194300E047
:101B10009943016010BD000000C0092010B50B4CB6
:101B2000012809D000220E210120FFF7CDFFA06976
:101B300020F00400A06110BD01220E211046FFF725
:101B4000C3FFA06940F00400F4E7000030C30720A1
:101B50002DE9F04F3448416801F0F80111F0070F0A
:101B60005AD1324C4FEAE1080425E77894F801C0D5
:101B7000791CCBB2A168E34614264A1CACF1010CD7
:101B800094F802904FF0200E0CF0FF0AB8F10C0F01
:101B900042D2DFE808F041060C12191B1932401935
:101BA0003445097881600560C0F818E003E00978E1
:101BB0008160A2600560E3702EE009788160A26018
:101BC000056084F801A0F6E7066025E094F804C0FB
:101BD000BCF1000F05D05FEA0B060BD084F801A022
:101BE00003E04F4501D906600CE009788160A260EE
:101BF000E37010E0714601600EE02421FBE74F45E1
:101C000003D985610021217006E083680B70A26012
:101C1000E178491CE170056008218161BDE8F08F21
:101C200083680B70A260CFE700C00140F4C20720B8
:101C300010B501220F211046FFF760FF012210218D
:101C40001046FFF75BFF012211211046FFF756FFF8
:101C500001220E211046FFF751FF01220A211046F2
:101C6000FFF74CFF002205211046FFF747FF002237
:101C700005210220FFF742FF002203210220FFF787
:101C80003DFF002204210220FFF738FF022100223D
:101C90000846FFF733FF012218211046FFF72EFFF9
:101CA000012219211046FFF729FF01221A211046AF
:101CB000FFF724FF01221B211046FFF71FFF01221F
:101CC0001C211046FFF71AFF01221D211046FFF7C5
:101CD00015FF01220F211046FFF7F6FE002210210A
:101CE0000120FFF7F1FE002211210120FFF7ECFE99
:101CF00000220E210120FFF7E7FE012218211046E5
:101D0000FFF7E2FE012219211046FFF7DDFE012256
:101D10001A211046FFF7D8FE01221B211046FFF7BB
:101D2000D3FE01221C211046FFF7CEFE0122BDE8A2
:101D300010401D211046FFF7C7BE000010B50D4C26
:101D40006078002814D10521FFF7B2FE18B9A078F9
:101D500040F00100A070A078002809D005210020E3
:101D6000FFF7A6FE012803D1A07860700020A070C4
:101D700010BD0000C0C407202DE9F0474A480026E6
:101D80004A4C00780A2801D226701BE0A0F10A0113
:101D9000142901D2012014E0A0F11E01142901D25E
:101DA00002200EE0A0F13201142901D2032008E044
:101DB000A0F14601142901D2042002E05A2801D9D9
:101DC000052020703A4D4FF416774FF49678286826
:101DD0004FF4E179C10530D5810558D4400556D47A
:101DE0006068B8421FD009DC012816D0962816D0AA
:101DF000404516D048454AD1022019E0A0F50070B0
:101E0000EE3812D0FA2812D0A0F58060E2380CD05B
:101E1000A0F53060B8383AD122E0052008E004206F
:101E200006E0032004E0012002E0002000E020782A
:101E300000F040F82888C00529D42868810526D5F7
:101E4000400524D46068B8421CD00BDC01281CD0AB
:101E5000962813D0404513D0484518D1042014E0EB
:101E6000666014E0A0F50070EE3805D0FA280BD0BB
:101E7000A0F58060E238CBD1002006E0022004E02B
:101E8000032002E0052000E0207800F013F8286825
:101E900010F4407F05D1400503D4207800F00AF803
:101EA0006660BDE8F08700003AC30720C0C4072081
:101EB00048C3072010B506285BD2DFE800F0030511
:101EC0001B222E3F012200E0002219210120FFF7F2
:101ED000FBFD01221A210120FFF7F6FD01221B2143
:101EE0000120FFF7F1FD01221C210120FFF7ECFD8D
:101EF000012238E0002219210120FFF7E5FD002230
:101F0000E8E7002219210120FFF7DEFD00221A2157
:101F10000120FFF7D9FD0022E1E70022192101206D
:101F2000FFF7D2FD00221A210120FFF7CDFD00228C
:101F30001B210120FFF7C8FD0022D5E7002219214F
:101F40000120FFF7C1FD00221A210120FFF7BCFD8F
:101F500000221B210120FFF7B7FD00221C210120D8
:101F6000FFF7B2FD00221D21BDE810400120FFF760
:101F7000ABBD10BD30B5194A1168814201D21420A1
:101F800030BD916B814201D9D22030BD002152F881
:101F90002150854205D902EB81056D68854200D24A
:101FA0000C46491C89B20F29F1D30D4A04EB840475
:101FB000002102EBC40252F82150854205D902EB00
:101FC00081056D68854200D20B46491C89B20A29F9
:101FD000F1D303EB44003C3080B230BDB8C20720DF
:101FE00088C0072000B546490120FFF76DFB444932
:101FF0000220091DFFF768FB414904200831FFF763
:1020000063FB3F4906200C31FFF75EFB3C4908208B
:102010001031FFF759FB3A490A201431FFF754FBFE
:1020200037490C201831FFF74FFB35490E201C3182
:10203000FFF74AFB324910202031FFF745FB3049BA
:1020400012202431FFF740FB2D494FF458702831FE
:10205000FFF73AFB2A494FF45A702C31FFF734FB53
:1020600027494FF44A703031FFF72EFB244940F2E4
:1020700047303431FFF728FB214940F20120383145
:10208000FFF722FB1E4940F201303C31FFF71CFBF9
:102090001B494FF4A0604031FFF716FB184940F28E
:1020A00047504431FFF710FB15494FF4A160483108
:1020B000FFF70AFB124940F24F504C31FFF704FB87
:1020C0000F4940F26F505031FFF7FEFA0C4940F2D1
:1020D00067505431FFF7F8FA094940F2117058314E
:1020E000FFF7F2FA064940F212705C31FFF7ECFAA2
:1020F000034940F2137060315DF804EBFFF7E4BA76
:1021000024C007202DE9F05FFA4EDFF8EC934FF082
:10211000010A307800244FF00A0BA9F62845B8B11F
:1021200080287CD001287BD1012216211046FFF7A0
:10213000CBFCB088192874D074DC0F2873D073DC02
:10214000032859D071DC012845D00228EBD10CE1DD
:10215000B08846F6AA28332868D03DDC172866D018
:1021600025DC0E28F0D00ADC0128EDD0022875D03D
:10217000042874D00528D6D1DE4858301BE20F2839
:102180006ED011286DD013286CD01528CBD1002427
:102190008B20604305EB800021461C3000F082FF5D
:1021A000641CE4B2022CF3D3D248383019E225285B
:1021B0007ED008DC18287CD019287BD02228C3D0F8
:1021C0002328B0D183E1272875D0282874D0292866
:1021D00073D03228A7D1E0E34FF0150B87286DD0DC
:1021E0002DDC7E28F7D00ADC352868D0372867D068
:1021F000742834D0752873D1BE484C30DBE17F2879
:102200002ED081287ED083287DD0852868D10024D7
:102210008B20604305EB800021461C3008E093E3EF
:102220005EE0FDE3A9E3FCE39BE394E3C7E1C2E0E6
:1022300000F038FF641CE4B2022CE9D3B4E7B0F537
:10224000DA7F7DD00FDC88287BD0A0F580701D3828
:10225000C1D0012876D0962842D19EE342E072E0B8
:1022600086E088E097E0B0F5DB7F7ED0A0F5807057
:10227000B7381ED00128A9D0022831D186F800A095
:10228000002100208B2201FB02F305EB830202EB0D
:102290004002401CC0B2A2F842400C28F5D3491CB1
:1022A000C9B20229EDD3002100208B224A4308E065
:1022B00010E106E108E121E17CE17DE10AE281E152
:1022C00093E105EB820303EB4003401CC0B2A3F88B
:1022D0006E410528EBD3491CC9B20229E4D3B4806E
:1022E000BDE8F09F00274FF0BE0A4FF0910BA046CB
:1022F0008B2207FB02F0FE2105F82010402105EBA0
:10230000800401E0C9E1D6E1617084F802A084F89C
:1023100003B0A4F80E8084F8048010206071204679
:10232000062102F071FB010AF0807F1CA171FFB24F
:10233000E071022FDCD300214B4600208B2203E00A
:10234000D1E26CE29DE210E04A4305EB820400EB2F
:10235000C106245C1E44401CC0B234710828F4D36A
:10236000491CC9B20229E8D38AE262487C3022E1E2
:1023700060482C3035E100248B20604305EB800061
:102380002146103000F08EFE641CE4B2022CF3D320
:102390005848303025E100248B20604305EB800055
:1023A0002146163000F07EFE641CE4B2022CF3D30A
:1023B0005048343015E100278B20784305EB80002E
:1023C0003946223000F06EFE7F1CFFB2022FF3D39D
:1023D00000218B20484305EB8000491C10F8102F8A
:1023E000C9B24378022902EB0322A0F84A2082787E
:1023F000C37802EB0322A0F84C200279437902EB68
:102400000322A0F84E208279C37902EB0322A0F8C0
:102410005020027A437A02EB0322A0F85220827AFB
:10242000C37A02EB0322A0F85420027B437B02EB29
:102430000322A0F85620827BC37B02EB0322A0F884
:102440005820027C437C02EB0322A0F85A20827CB5
:10245000C37C02EB0322A0F85C20027D437D02EBEB
:102460000322A0F85E20827DC37D02EB0322A0F848
:102470006020AED30021474680234FF08B0C002014
:1024800001FB0CF205EB820C0CEB400CBCF85AC0C3
:10249000BC4500D03370401CC0B20C28F2D3491C9C
:1024A000C9B20229E9D3307880287DD17078052817
:1024B00005D2401C70703470A6F804A010E7337089
:1024C0000EE70C48803076E00A48683073E009482F
:1024D0003C3086E000248B20604305EB80002146E1
:1024E000283000F0DFFD641CE4B2022CF3D3014875
:1024F000403076E000C00720C40C001000278B207D
:10250000784305EB800039462E3000F0CBFD7F1C70
:10251000FFB2022FF3D300218B20484305EB80004C
:10252000491C10F8282FC9B24378022902EB032274
:1025300042868278C37802EB03228286027943794D
:1025400002EB0322C2868279C37902EB032202875F
:10255000027A437A02EB03224287827AC37A02EB41
:1025600003228287D8D30021C446802700208B22F3
:1025700001FB02F305EB830202EB4002B2F85A20A2
:10258000624500D03770401CC0B20628F2D3491C07
:10259000C9B20229EAD33078802805D1707805289D
:1025A00006D2401C707000E0EAE034700C2031E18B
:1025B000377095E6F948EFE3F8481438ECE3F7484C
:1025C00040380EE000248B20604305EB800021465C
:1025D000343000F067FD641CE4B2022CF3D3EF4802
:1025E0003C38BDE8F05F00F0A3BD00278B207843A6
:1025F00005EB800039463A3000F054FD7F1CFFB2F5
:10260000022FF3D300218B20484305EB8000491CA7
:1026100010F8342FC9B24378022902EB0322C28496
:102620008378C27803EB022202850379427903EBB7
:10263000022242858379C27903EB02228285E2D3AA
:102640000020434680228B21414305EB8101B1F8F4
:102650005A709F4200D03270B1F85C709F4200D037
:102660003270B1F85E709F4200D03270B1F86010E5
:10267000994200D03270401CC0B20228E3D33078B7
:1026800080287DD17078052805D2401C7070347088
:10269000A6F804B024E6327022E600248B206043C2
:1026A00005EB80002146103000F0FCFC641CE4B215
:1026B000022CF3D36CE600248B2104FB01F005EB24
:1026C00080002146163000F0EDFC641CE4B2022CC0
:1026D000F2D36DE600278B20784305EB8000394666
:1026E000223000F0DFFC7F1CFFB2022FF3D3002169
:1026F0008B20484305EB8000491C10F8102F4378CD
:1027000002EB032242868278C37802EB03228286A0
:102710000279437902EB0322C2868279C37902EB04
:1027200003220287027A437A02EB03224287827AEB
:10273000C37A02EB03228287027B437B02EB0322F4
:10274000C287827BC37B02EB0322A0F84020027C7D
:10275000437C02EB0322A0F84220827CC37C02EB84
:102760000322A0F84420027D437D02EB0322A0F85F
:102770004620827DC37D02EB0322A0F8482000E0C2
:102780003FE0C9B20229B3D3002246F2A817A946F6
:1027900000218B204AF2F87B554602FB00FC09EB36
:1027A0008C0000EB4103B3F84230BB4201D85B45DB
:1027B00007D2B0F8403005FA01F843EA0803A0F860
:1027C0004030491CC9B20C29E9D3002142F21078EB
:1027D00000EB4103B3F84230434507D8B0F840C09E
:1027E00005FA01F32CEA030CA0F840C0491CC9B259
:1027F0000C29EDD3521CD2B2022AC9D330788028DA
:1028000001D074706CE57078052805D2401C70709A
:1028100034703E20B08063E58020307060E5D8469B
:10282000002740F2555A4FF0550B8B21794305EBA9
:1028300081042046A4F80EA084F804B084F8058032
:10284000062102F0E1F8010AF0807F1CA171FFB2BD
:10285000E071022FE9D300214A4600208B2301FBBF
:1028600003F405EB840300EBC1061B5C1644401C1B
:10287000C0B233710828F4D3491CC9B20229ECD381
:102880004BE2002740F6AA284FF0AA0A4FF01A0B95
:102890008B21794305EB81042046A4F80E8084F84F
:1028A00004A084F805B0062102F0AEF8010AF08019
:1028B0007F1CA171FFB2E071022FE9D300214B46CA
:1028C00000208B224A4305EB820400EBC106245C06
:1028D0001E44401CC0B234710828F4D3491CC9B24C
:1028E0000229EDD319E200278B20784305EB800401
:1028F0000621E08900F47040E0812071C0F30320DC
:1029000040F010006071204602F07EF8010AF0806D
:102910007F1CA171FFB2E071022FE5D300214A466E
:1029200000208B2301FB03F405EB840300EBC106BD
:102930001B5C1644401CC0B233710828F4D3491CF8
:10294000C9B20229ECD3E8E1BDE8F05F002216210C
:102950000120FFF7B9B80C281FD00D287FF4AEADC9
:1029600006E511380828BFF4A9ADDFE800F09D05A1
:10297000AB05BAFC0504A4E5B2E44FF6FF792928BB
:102980007ED00FDCA0F122000728F5D2DFE800F0AE
:10299000050908EE08ED04000CE67EE284C007207D
:1029A0009EE494E53228D7D033283FF408AE35288A
:1029B00067D03728E0D100278B20784305EB8000D3
:1029C00039463A3000F06EFB7F1CFFB2022FF3D382
:1029D00000218B20484305EB8000491C10F8342F60
:1029E000C9B24378022902EB0322A0F8E2218278DF
:1029F000C37802EB0322A0F8E6210279437902EBC7
:102A00000322A0F8EA218279C37902EB0322A0F81D
:102A1000EE21C27A80F8F121DBD300214B4601E0A0
:102A2000BBE133E08B20484305EB8000B0F8162271
:102A30009A4201D0A0F81422B0F81A229A4201D08A
:102A4000A0F81822B0F81E229A4201D0A0F81C2249
:102A5000B0F822229A4201D0A0F8202290F8252234
:102A6000FF2A01D080F82422491CC9B20229D6D3FA
:102A7000F069401CF061316A0A2904D2491C01E066
:102A800005E20EE231620A296ED01AE200248B20A0
:102A9000604305EB80002146103000F003FB641C0E
:102AA000E4B2022CF3D373E400248B20604305EBE3
:102AB00080002146163000F0F5FA641CE4B2022CC6
:102AC000F3D375E400248B20604305EB800021469E
:102AD0001C3000F0E7FA641CE4B2022CF3D3FFF7D9
:102AE00063BB00248B20604305EB8000214622302D
:102AF00000F0D8FA641CE4B2022CF3D300218B203E
:102B0000484305EB800010F8102F437802EB0322B6
:102B1000A0F84A208278C37802EB0322A0F84C2068
:102B20000279437902EB0322A0F84E208279C3791F
:102B300002EB0322A0F85020027A437A02EB032230
:102B4000A0F85220827AC37A02EB0322A0F8542024
:102B5000027B437B02EB0322A0F85620827BC37BDF
:102B600002EB032203E07EE0AAE128E118E1A0F8ED
:102B70005820027C437C491C02EB0322A0F85A2017
:102B8000827CC37CC9B202EB0322A0F85C20027DE8
:102B9000437D022902EB0322A0F85E20827DC37DE3
:102BA00002EB0322A0F86020A9D30021D446A94655
:102BB00000208B22376A44F24F6801FB02F509EBD3
:102BC00085020CFA00F4B2F84030234210D002EB38
:102BD0004003B3F85A30A3F5C244A93C444507D298
:102BE00000EB800402EB840202EB4702A2F8723091
:102BF000401CC0B20C28E2D3491CC9B20229D7D369
:102C0000B9F8640148F2E8014A46884205D8B2F8AA
:102C1000621148F2D043994217D9B2F86211081AEA
:102C2000B0F5FA7F03DDBDE8F05FFEF7B7BB00202B
:102C30008B21414302EB8101401CCB89C0B203F4DC
:102C40007043CB810228F3D338E400208B21414329
:102C500002EB8101401CCB89C0B203F47043CB81ED
:102C60000228F3D32AE4D6E905404FF4005A4FF482
:102C7000805C4FF480474FF40048A0425DD90024A7
:102C8000AB468B2204FB02F0FE210BF820100BEB6D
:102C9000800540216970BE20A8709120E870E88905
:102CA00000F47041B1F5805F0CD051453BD0B94282
:102CB0003ED041450ED100F088012971082101EA7A
:102CC000102004E000F011012971C0F3002040F051
:102CD000100068715E462846062101F095FEEF4916
:102CE000641CE4B2C880010AA971E871022CC8D33F
:102CF00000214C46334600208B224A4303EB8205D9
:102D000000EBC1062D5C2644401CC0B2357108287A
:102D1000F4D3491CC9B20229EDD3BDE8F05FDF4806
:102D2000243000F0C3BE00F0220129710221C6E761
:102D300000F0440129710421C1E700238B2058438E
:102D400005EB8001C88900F47042524512D008DCBE
:102D50005AB1624518D1C0F30B0040F40050C8814D
:102D600012E0BA420BD042450ED1C0F30B0040F442
:102D70008050F4E7C0F30B0040F48040EFE7C0F36D
:102D80000B0040F40040EAE75B1CDBB2022BD5D31A
:102D900004F57A74B4610CE47BE0C048643078E0F8
:102DA00000248B20604305EB80002146283000F092
:102DB00079F9641CE4B2022CF3D3FFF798BB002727
:102DC0002C468B20784304EB800039462E3000F0EF
:102DD00069F97F1CFFB2022FF3D300218B204843F7
:102DE00004EB8000491C10F8282FC9B2437802294F
:102DF00002EB0322A0F850218278C37802EB032271
:102E0000A0F852210279437902EB0322A0F8542161
:102E10008279C37902EB0322A0F85621027A437A21
:102E200002EB0322A0F85821827AC37A02EB032234
:102E3000A0F8EA21D2D3002147F64F0800208B22C8
:102E4000D6F820C001FB02F304EB830202EB40053D
:102E5000B5F87851A5F1C907474507D200EB8007BF
:102E600002EB870707EB4C07A7F88251401CC0B262
:102E70000528E9D304EB8300B0F81202484501D0DD
:102E8000A2F81002491CC9B20229D7D304E483482E
:102E90006C30BDE8F05F00F06FB9BDE8F05F00F0A6
:102EA000EDBD00248B20604305EB800021463430CB
:102EB00000F0F8F8641CE4B2022CF3D3FFF78FBBE8
:102EC000346216287ED9764E00220020002146F872
:102ED0002140491CC9B20C29F9D300218B2700EBF2
:102EE000800802FB07F305EB830707EB880707EB76
:102EF000410756F820C0B7F87270491C6744C9B240
:102F000046F820700A29EED3D946B7FBF9F105EB54
:102F1000830303EB4003401CC0B2A3F842100C280B
:102F2000D4D3521CD2B2022ACFD3FEF7DFFB002249
:102F30000020002146F82140491CC9B20529F9D3D7
:102F400000218B2700EB800802FB07F305EB8307CA
:102F500007EB880707EB410756F820C0B7F88271E6
:102F6000491C6744C9B246F820700A29EED3B7FB62
:102F7000F9F105EB830303EB4003401CC0B2A3F857
:102F80006E110528D5D3521CD2B2022AD0D300210B
:102F900000208B2201FB02FC05EB8C0202EB4003BC
:102FA00042F21077B3F86E3103FB07F6B2F81072F5
:102FB00002EB8002FB1A96FBF3F3401CC0B2C2F88E
:102FC000E83100E066E00528E6D3491CC9B20229D1
:102FD000DED30026A94600258B2106FB01F809EB6C
:102FE000880707EB8500D0F8E801FEF7C3FFD22879
:102FF00003D207EB4501A1F8FC016D1CEDB2052DD4
:10300000EDD3761CF6B2022EE5D3B9F8FC510527B4
:10301000CC462B463E46002100208B2201FB02F8C5
:103020000CEB880202EB4002B2F8FC21AA4206D95E
:10303000C1F1010707EB870707441546BFB29A4263
:1030400006D21346C1F1010202EB8202024496B29B
:10305000401CC0B20528E3D3491CC9B20229DBD306
:103060000020E91A1FFA81F88B2200FB02F10CEB19
:103070008101401CA1F80652A1F80832A1F80A8289
:10308000A1F80C72C0B2A1F80E620228ECD3034979
:10309000C1F808A001488480D6E5000000C00720E0
:1030A000B81000107CB5214D0446C1F10106286915
:1030B00000EBC60001798DF8001041798DF8011000
:1030C00081798DF80210C1798DF80310017A8DF89D
:1030D0000410407A8DF805000621684601F094FC42
:1030E000E880010A8DF80610C0B28DF807002A6941
:1030F00002EBC602937A994216D1D17A884213D153
:103100009DF8000020709DF8010060709DF802009D
:10311000A0709DF80300E0709DF8040020719DF8F8
:103120000500607101207CBD00207CBD00C007202F
:1031300030B40F4A017811704178517081789170E4
:10314000C0780021D070FF23002000EBC10414449C
:10315000401CC0B223710828F7D3491CC9B2022908
:10316000F2D3044A14210248D26830BC1047000050
:10317000C40C001000C00720064902780A7042788B
:103180004A7082788A70C078034AC8700421D26875
:1031900000481047C40C001000C007202DE9F05F64
:1031A000F9484C214323017054214170837036212A
:1031B000C170382101713121417181710D21C171BD
:1031C0000A2109220172002642F2107E4FF0200BE4
:1031D00043238354831856245C7083F802B0D21CB6
:1031E00000258B2306FB03F4E84B92B20746884682
:1031F00003EB840A0AEB45036D1CB3F842407346A7
:10320000B4FBF3FC0CF1300C07F802C0B4FBFEFC7D
:103210000EFB1C434FF47A7CB3FBFCF9BB1809F19D
:10322000300983F80190B4FBFCF90CFB19494FF00D
:10323000640CB9FBFCF909F1300983F80290B4FB86
:10324000FCF90CFB194CBCFBF8FC0CF1300C83F8BE
:1032500003C0B4FBF8FC08FB1C4430341C71D21DC5
:1032600083F805B0EDB283F806B092B20C2DC1D34D
:103270000D23BB54BB18921C761CF6B283F8018058
:1032800092B2022EA4D34D23835483184124121DDD
:103290005C701FFA82F95824BC4A9C7083F803B012
:1032A000B2F862617346B6FBF3F4B6FBF3F2303466
:1032B00000F809400EFB12624FF47A74B2FBF4F589
:1032C00000EB090230355570B6FBF4F504FB156CC4
:1032D0006425BCFBF5FC0CF1300C82F802C0B6FB97
:1032E000F5FC05FB1C6CBCFBF1FC0CF1300C82F80E
:1032F00003C0B6FBF1FC01FB1C66303616710D26CF
:103300005671917109F1070292B24D2686548618C2
:103310004FF0490C121D86F801C01FFA82F94FF0D8
:103320004E0C9A4ADA4686F802C086F803A0B2F834
:103330006461B6FBF3FCB6FBF3F20CF1300C03FB5B
:10334000126200F809C0B2FBF4FC00EB09020CF1B8
:10335000300C82F801C0B6FBF4FC04FB1C6CBCFB17
:10336000F5FC0CF1300C82F802C0B6FBF5FC05FB55
:103370001C6CBCFBF1FC0CF1300C82F803C0B6FBFA
:10338000F1FC01FB1C66303616710D2656719171E9
:1033900009F1070292B25826865486184FF04E0C57
:1033A000121D86F801C01FFA82F94FF04D0C774AC2
:1033B00086F802C086F803A0B2F86861B6FBF3FC99
:1033C000B6FBF3F20CF1300C03FB126200F809C0FB
:1033D000B2FBF4FC00EB09020CF1300C82F801C0E6
:1033E000B6FBF4FC04FB1C6CBCFBF5FC0CF1300CD4
:1033F00082F802C0B6FBF5FC05FB1C6CBCFBF1FCC3
:103400000CF1300C82F803C0B6FBF1FC01FB1C662A
:10341000303616710D265671917109F1070292B27C
:103420004E268654B4468618121D86F801C01FFA2F
:1034300082F94FF04D0C554A86F802C086F803A079
:10344000B2F86A61B6FBF3FCB6FBF3F20CF1300C98
:1034500003FB126200F809C0B2FBF4FC00EB0902A6
:103460000CF1300C82F801C0B6FBF4FC04FB1C6CC0
:10347000BCFBF5FC0CF1300C82F802C0B6FBF5FC8D
:1034800005FB1C6CBCFBF1FC0CF1300C82F803C09A
:10349000B6FBF1FC01FB1C66303616710D26567129
:1034A000917109F1070292B24426865486184FF0B2
:1034B0004C0C86F801C04FF0540C86F802C086F818
:1034C00003A0121D96B2314ADFF8C0904FF00D0AEA
:1034D000B2F86621B2FBF3FC0CF1300C00F806C028
:1034E000B2FBF3FC0EFB1C23B3FBF4F3B81930332F
:1034F0004370B2FBF4F304FB1323B3FBF5F3303357
:103500008370B2FBF5F305FB1323B3FBF1F3303308
:10351000C370B2FBF1F301FB1322303202710D22B2
:1035200042718171F61DB0B200214FF0420C5A4633
:1035300007F800C03B184C245C70C01C9A7080B225
:1035400030233B548B2301FB03F409EB840407EB8A
:103550000006E489C4F30325092D01D9373500E0BD
:1035600030357570C4F30315092D07EB000601D93A
:10357000373500E03035B57004F00F04092C07EB47
:10358000000505D9373404E0F40400109C00001055
:103590003034001DEC7080B23C1807F800A0801C8D
:1035A000491CC9B284F8018080B20229C0D3F34615
:1035B00000244FF47A7EBC4647210CF800100CEB37
:1035C000000156224A702022C01C8A7000238B21E1
:1035D00004FB01F280B209EB820707EB43015B1C9D
:1035E000B1F86E215946B2FBF1F530350CF80050B8
:1035F000B2FBFBF50BFB15217546B1FBF5F60CEBA9
:10360000000130364E70B2FBFEF60EFB1626642526
:10361000B6FBF5F630368E70B2FBF5F605FB1626D6
:10362000B6FBF8F63036CE70B2FBF8F608FB162281
:1036300030320A712022C01D4A71DBB28A7180B219
:10364000052BCAD30CF800A00CEB0001801C641CF5
:10365000E4B2534681F8018080B2022CACD3DA4642
:1036600000214C46AB4666469E46522333543318DF
:1036700046255D709A70C01C83B28B2501FB05F056
:1036800004EB80005546B0F810024FF47A7CB0FB92
:10369000F5F73037F754B0FBFAF70AFB1705674622
:1036A000B5FBF7F9F51809F1300985F80190B0FB81
:1036B000FCF90CFB1907D946B7FBF9F73037AF70A7
:1036C000B0FBF9F70BFB1707B7FBF8F73037EF70D4
:1036D000B0FBF8F708FB1700303028715B1D98B27B
:1036E000351806F800E0801C491CC9B2734685F8FD
:1036F000018080B20229B8D300214FF0430BE64687
:103700009246532232543218C01C82F801B082F81B
:1037100002A082B28B20484304EB800042F2107575
:10372000B0F81402491CB0FBF5F73037B754B0FBC2
:10373000F5F705FB17077546B7FBF5FCB7180CF155
:10374000300C87F801C0B0FBFEFC0EFB1C0C4D4694
:10375000BCFBF5FC0CF1300C87F802C0B0FBF5FCAB
:1037600009FB1C0CBCFBF8FC0CF1300C87F803C007
:10377000B0FBF8FC08FB1C0030303871521D90B2D1
:1037800032183354801CC9B282F8018080B20229F9
:10379000B7D3522232543218452757704FF056098A
:1037A00082F8029082F803A08B22514304EB81013E
:1037B000001D91F82422AE49092780B291F8241205
:1037C0004FF0370EB7EB121F02D20EEB111102E0D1
:1037D000302707EB11113154A54902F00F02092AD5
:1037E00091F8241206EB000201F00F0101D93731E4
:1037F00000E030315170801C80B23118335481F8B0
:103800000180801C81B24FF04D0C701806F801C089
:103810006E2242706D228270964A80F803A057464D
:10382000D269B8EB127F03D9302404EB127401E0A3
:103830000EEB12740471C2F303640A2C01D230340B
:1038400000E037344471C2F303540A2C01D23034FF
:1038500000E037348471C2F303440A2C01D23034BF
:1038600000E03734C471C2F303340A2C01D230347F
:1038700000E037340472C2F303240A2C01D230343E
:1038800000E037344472C2F303140A2C01D23034FE
:1038900000E0373402F00F0284720A2A01D230327B
:1038A00000E03732C2720C3188B231183354801CB8
:1038B00081F8018080B231183354801C81F8018076
:1038C00080B24C21315431189A461A4654234B7019
:1038D00081F802B03624CC7038240C71401D80B2BF
:1038E000311837544B7045238B704D24CC705024C5
:1038F000401D0C7180B231183254801CB946DFF87B
:1039000070B181F8018080B200223746C64644215A
:103910003954391845234B7056238B70F446B2FB4B
:10392000FCF33033CB70B2FBFCF30EFB13233033CC
:103930000B7181F80590801D00218B2602FB06F398
:1039400080B20BEB830606EB4103491CB3F8FC4144
:10395000C9B2B4FBF5F330333B54B4FBF5F305FBCC
:103960001343B3FBFCF83B1808F1300883F80180DF
:10397000B4FBFCF80CFB18443034001D9C7083F839
:10398000039080B20529DED307F800A03918801C07
:10399000521CD2B281F801E080B2022AB7D34D2284
:1039A0003A54391841234B7058238B7081F8039097
:1039B000001DBBF8066281B2B6FBF5F030307854DA
:1039C000B6FBF5F005FB106C7046BCFBF0F807EB9E
:1039D000010C08F130088CF80180B6FBF0F80EFB02
:1039E000186630368CF80260C91C89B207EB010CEE
:1039F00007F801A0891C89B28CF801E07A547A1882
:103A00004FF0490C82F801C04FF04E0C4B4682F843
:103A100002C0D370BBF80822091DB2FBF5F389B2CE
:103A200030337B54B2FBF5F305FB1323B3FBF0F407
:103A30007B1830345C70B2FBF0F400FB142230329F
:103A4000C91C9A7089B256467E547A18891C5070E7
:103A500089B27A187E54891C50708CB2214606486F
:103A600001F0C8F82146BDE8F05F034801F040B816
:103A70009C00001000C00720F40400100020094B37
:103A8000AA2203EB800103F820204A70401C8A70B0
:103A9000C0B2CA700228F4D3034A08210148D26890
:103AA00010470000C40C001000C00720064902782F
:103AB0000A7042784A7082788A70C078034AC87067
:103AC0001421D26800481047C40C001000C0072021
:103AD000F0B50024059E0D46102903D3A1F1100472
:103AE000E5B20124C70007EB8407124C3C44276869
:103AF0006D004FF0030C0CFA05FC27EA0C07276059
:103B00002768AA4017432760226C22EA0C0222642D
:103B1000226CAB401A43226401228A400549012EDF
:103B200001EB8000816E03D0914381660020F0BDDF
:103B30001143FAE700C002400022022800D105220A
:103B400009B942F00A020248C2670020704700002B
:103B500000C0024070B52F4E00250124F57175712B
:103B600034707470F069C10200D57471C10300D55E
:103B70007471410500D57471810304D53570B16944
:103B800021F08071B161010301D4410300D5F471CA
:103B9000C10601D53570F471410600D5F471810676
:103BA00008D5B169B56441F080717567B161B572CE
:103BB0007570F471010600D5F471C10501D4810559
:103BC00002D535707570F471010701D53570F47147
:103BD000400701D57570F471307800B10120FDF710
:103BE00059FD707800B10120FDF70CFEB07800B1EE
:103BF0000120FDF793FFF07908B1002204E070790D
:103C000008B1B47170BD012218210120FDF75CFFDD
:103C1000B57170BD30C307200C4900B511F8202FD5
:103C200089B000920A7901920A7A02920A7B039281
:103C30000A7C06928A8A07920A7E0492898B0591F1
:103C400020226946FCF7DCFA09B000BD00400240C2
:103C50000B49002008600B4951F8C42F42F4007250
:103C60000A60094991F85C20D20605D591F85C20DC
:103C700042F0100281F85C200874087308727047E3
:103C8000C8C4072000C00F40004002400348017A2A
:103C900041F00101017201210170704700400240B2
:103CA0000448017841F001010170034901200860D6
:103CB0007047000000400240C8C407202DE9F05FB3
:103CC000474CDDE90A975425DDF830B025704925C9
:103CD0004FF47A766570B7FBF6FC4D25A570452547
:103CE000E570202525710CF1300C84F805C0B7FB78
:103CF000F6FC06FB1C7C4FF0640ABCFBFAF8A446F9
:103D000008F130088CF80680B7FBFAF80CF10506CC
:103D10000AFB18784FF00A0CB8FBFCF808F13008E1
:103D200086F80280B7FBFCF80CFB18773037F77089
:103D3000B9FBFCF73571B9FBFCF60CFB1798303674
:103D4000B3FBFCF7A672264608F1300886F80B8014
:103D5000357330376773B3FBFCF70CFB173823461A
:103D600008F1300883F80E80DD73BBFBFCF33033C1
:103D7000237423460D265D74B2FBFCF33033A37429
:103D8000B2FBFCF30CFB132722463037D7741575B2
:103D9000B1FBFCF230326275B1FBFCF20CFB12138A
:103DA000214630338B75CD75B0FBFCF13031217677
:103DB000B0FBFCF10CFB11022046303242768576D6
:103DC000E67680F81CC066771F2480F81EC0214666
:103DD00000F010FF2146BDE8F05F014800F088BE0A
:103DE00054CF07201C4B10B5996C64204143186CCC
:103DF000B1FBF0F4B1FBF0F200FB1414D2B29A72F2
:103E0000B4EB500F01D9521C9A72D2B2642A21D954
:103E1000B1FBF0F4B1FBF0F200FB1414D2B29A72D1
:103E2000B4EB500F01D9521C9A72D2B2642A11D944
:103E3000B1FBF0F2B1FBF0F400FB1411D2B29A72B4
:103E4000B1EB500F01D9521C9A72D0B2642801D93B
:103E50006420987210BD000030C3072000220F219B
:103E60000120FDF731BE000010B50A4CA060218092
:103E700000206080A08002461021FDF725FEA0688A
:103E8000054A10F8011B9160A0602088401E208028
:103E900010BD000060000010000002400F4A10B585
:103EA0000120D061506800060FD591680D4C0C4B75
:103EB00060881954401C6080208838B1A16811F8CE
:103EC000013B9360401EA160208010BD01221021A3
:103ED0000020FDF7F9FD0020A08010BD0000024089
:103EE000ECC407206000001038B51C48D0F8A811B9
:103EF00041F40031C0F8A81150F8C41F41F480719A
:103F000001600024234603220F2120460094FFF77E
:103F1000DFFD00230322112118460094FFF7D8FD8E
:103F200000230322122118460094FFF7D1FD01223D
:103F300010210020FDF7E2FD012210210020FDF7F5
:103F4000C3FD0748B82101603221C1604FF0E02174
:103F50004FF40050C1F8000138BD000000C00F4010
:103F60000000024070B5174D0026174CA86029804C
:103F70006E80AE8002206060324606213046FDF73A
:103F8000A3FD124A14E0E1688907FCD5A96811F87D
:103F9000013BA360401EA9602880E068C007FCD0F8
:103FA000E0684007FCD5A16868881154401C68800F
:103FB00028880028E7D101220621FDF785FD6660EB
:103FC00070BD00008000001000000340F4100010DD
:103FD00038B51948D0F8A81141F40011C0F8A8115B
:103FE00050F8C41F41F4806101600024234602227E
:103FF000072120460094FFF76BFD002302220821D1
:1040000018460094FFF764FD002302220921184698
:104010000094FFF75DFD012206210020FDF76EFDF3
:10402000012206210020FDF74FFD044840F6C7217C
:1040300001600521016138BD00C00F400000034050
:1040400030B51E491E4C0120087020781D4A0128F9
:1040500002D11078401C10701378002002210A2B26
:1040600006D9194B5D6825F001055D60217010705F
:10407000164C174A2378012B02D113785B1C13705E
:1040800013780A2B06D9134B5D6825F001055D6096
:1040900021701070104C114A2378012B02D1137833
:1040A0005B1C137013780A2B06D90D4B5D6825F045
:1040B00001055D602170107030BD0000000000102F
:1040C00033000010300000100000014034000010E8
:1040D000310000100080094035000010320000104F
:1040E00000C0094070B52F482021C0F8A011D0F8B9
:1040F000A011890603D5D0F8A0114906FBD50326E7
:10410000C0F804610024C0F8A841C0F8AC41012502
:10411000C0F80C512449C0F88410AA22C0F88C20A1
:104120005523C0F88C30C0F88050C0F88C20C0F8FF
:104130008C30D0F888104901FBD5C0F88060C0F8F9
:104140008C20C0F88C30D0F88810C1F301610329AD
:10415000F9D12321C0F8A410C0F8AC20C0F8AC30CD
:10416000C0F8A050C0F8AC20C0F8AC30D0F8A8100F
:104170004905FBD5C0F8A060C0F8AC20C0F8AC3051
:10418000D0F8A810C1F301210329F9D10749C0F8DB
:10419000C410C0F8C841016821F4704141F4804165
:1041A000016070BD00C00F4063000500DE87280479
:1041B000174A9068C0F34201164801291BD0022912
:1041C00018D11378816901F8013B0123C370816123
:1041D00001894FF00003491C0181C188491E09046F
:1041E000090CC180037005D1516821F001015160B3
:1041F0000221C17070474189491E0904090C41819F
:10420000F8D0C16911F8013B1370C161704700001B
:104210000000014030000010174A9068C0F34201CE
:10422000164801291BD0022918D11378016A01F818
:10423000013B012303710162C1894FF00003491C56
:10424000C1818189491E0904090C8181437005D10E
:10425000516821F001015160022101717047018A0A
:10426000491E0904090C0182F8D0416A11F8013B8A
:104270001370416270470000008009403000001058
:10428000174A9068C0F34201164801291BD0022941
:1042900018D11378816A01F8013B012343718162CF
:1042A000818A4FF00003491C8182418A491E09041A
:1042B000090C4182837005D1516821F001015160E0
:1042C000022141717047C18A491E0904090CC1824B
:1042D000F8D0C16A11F8013B1370C1627047000049
:1042E00000C0094030000010002809DB00F01F0268
:1042F000012191404009800000F1E020C0F8001148
:104300007047002809DB00F01F020121914040099D
:10431000800000F1E020C0F80011704738B5254852
:10432000D0F8A81141F08071C0F8A81150F8C41F4E
:1043300041F480510160002402231A4619462046A8
:104340000094FFF7C5FB02231A46032100200094C6
:10435000FFF7BEFB02230122172100200094FFF784
:10436000B7FB02230122182100200094FFF7B0FBC5
:1043700002230122192100200094FFF7A9FB022348
:1043800001221A2100200094FFF7A2FB022303223E
:104390001E2101200094FFF79BFB022303221F2113
:1043A00001200094FFF794FB044803490160C460B6
:1043B00038BD000000C00F40FF092100004003404D
:1043C00010B5002219210320FDF77EFB014801688A
:1043D000016010BD0040034038B51B48D0F8A8115B
:1043E00041F40041C0F8A81150F8C41F41F0800109
:1043F00001600124022322461C2100200094FFF7C3
:1044000067FB022301221B2100200094FFF760FBC1
:1044100001210020FFF790FB0C48FA210161416166
:10442000402101604FF0E0210015C1F80001012298
:104430001A210320FDF762FBBDE8384000221A2153
:104440000320FDF741BB000000C00F4000C0014049
:1044500030B50C4A0024012390609170D470137021
:1044600002215170C178CD0706D0007801F0FE011D
:10447000884201D1137100E01471034920200860C3
:1044800030BD0000F4C2072000C0014070B50C48E8
:104490000C4D002144884FF6FF7303EAC110082237
:1044A000460403EA400000D56040521E1204120C7C
:1044B000F6D125F81100491C89B2FF29EDD970BD4C
:1044C00000C00720B80E001088B00120FDF708FBDF
:1044D000012216211046FDF711FB0122172110467B
:1044E000FDF70CFB002205211046FDF707FB01221A
:1044F00016211046FDF7E8FA012217211046FDF7B4
:10450000E3FAFDF795FB0520FDF7D4FC0022182106
:104510000120FDF7D9FA012211211046FDF7EEFA2C
:10452000002211210120FDF7CFFA012210211046AF
:10453000FDF7E4FA002210210120FDF7C5FA01225F
:104540000F211046FDF7DAFA00220F210120FDF7B6
:10455000BBFA01220E211046FDF7D0FA00220E21EF
:104560000120FDF7B1FA01220A211046FDF7C6FA33
:1045700000220A210120FDF7A7FA012213210020C1
:10458000FDF7BCFA012213210020FDF79DFA01225C
:104590000F211046FDF798FA002217210120FDF7A0
:1045A00093FA002216210120FDF78EFA0521002042
:1045B000FDF77EFA0028F9D000F05CFA00F0AEFAC0
:1045C00000F0E2FAFFF790FCFFF702FDFFF7A6FE0E
:1045D000FFF702FF00F032FA4FF0E020E1494161BD
:1045E000E14AF82182F8141D002585610721016147
:1045F000FFF74CFFFDF7F6FCFFF7E2FEFFF728FBA5
:10460000FFF744FB0020FCF749FF0120FCF746FFC1
:104610000020FCF7A9FF0120FCF7A6FF0020FCF713
:10462000AFFF0120FCF7ACFFDFF840A3DFF840B399
:10463000D04C4FF47A7701264FF0A0084FF0A10933
:1046400020780128FCD125706068CB49401C60604F
:104650000860CA490860B0FBF7F107FB110010B908
:10466000E068401CE060FDF769FBC548017831B1A6
:104670000570E068032802D9FF20607002E06078CE
:10468000FF2802D1E078401CE070FBF771FFBD48C5
:104690000168491C0160FDF735FDBB490888401CD5
:1046A00008806078102871D021DC88B30128C7D138
:1046B000DAF80000C10603D5B44B1968491C19602B
:1046C000810603D5B24B1968491C1960410603D510
:1046D000B04B1968491C1960000603D5AE48016843
:1046E000491C0160AD48006800287DD092E0202878
:1046F000D9D0FF28A4D1E078642876D076DC0128D0
:1047000075D002289CD1FDF76DF91E21A44846E022
:10471000FFE7A4480078802801D11020607060680D
:1047200040F2A462A0F2A46190423BD014DCB0F548
:104730002F7FE2D0B0F5966F29D0A0F5C060723817
:10474000B5D11E2298498A48FBF79EFF0028AED1BA
:1047500040F28A20606073E7642934D0A1F540619B
:10476000E439F8D1FDF77EF9904891490078087056
:104770009049096841436420B1FBF0F08E4908601C
:1047800066700120FCF786FF0120CDE0E3E086485B
:104790001E2180F800804670867080F80390FFF735
:1047A00057FE4DE7FDF748F884480088A0F5B4416E
:1047B000A53902D02020607042E76E480B211030EE
:1047C00000F018FA3CE77E4801687E4801607E48A8
:1047D00001687E4801607E487E49006808607E4826
:1047E0007E490078087003E012E0A0E093E097E0D3
:1047F0007B4900280A686F490A607A497A4A098821
:104800001180A8D17948016841F08071016017E7F3
:10481000102060707648006834280BD9FBF744FFFD
:10482000FBF754FFFFF796F9FDF7A6FA7148016808
:10483000491C01606068B0FBF7F107FB110000281C
:1048400089D1A068401CA060DAF80010CA0503D521
:10485000694B1A68521C1A60890503D567490A68B2
:10486000521C0A600A280BD97821B0FBF1F201FB37
:10487000120028B9FDF7B6F81E214948FFF7E8FDF8
:104880005F48007801280FD1207AC00707D10022A5
:1048900018210120FDF718F9207AC00704D0012261
:1048A00018211046FDF710F9A068032884D9A078D4
:1048B000401CC0B2A0700B2884D2DFE800F00607CD
:1048C0000B111406061706062A00B9E6FEF766FC69
:1048D000002200E0012217210120FDF7F5F8AFE6E4
:1048E000FBF7B4FFACE6FBF75BFDA9E66846FFF714
:1048F00093F9202269464348FBF782FC414800F1C6
:10490000100191E80E108DE80E100FC8FFF7D6F9D0
:1049100096E6A57094E6C82814D0D228D5D117E021
:104920000020FCF7B7FE0020FCF76CFF88E68BF850
:1049300000808BF801608BF802608BF803901E21D9
:104940000B482CE7FCF7CAFF0028BED1E57077E6DC
:10495000FFF784FA74E6002216210120FDF7B4F86F
:10496000F6E700009F8601000FE000E06C000010F9
:104970004EC407200000001014C007207C00001067
:10498000C1C407209000001004C007207000001070
:1049900080C407207400001084C407206CCB07205B
:1049A0001CC4072000C007208CC4072033C3072085
:1049B00034C3072070C3072074C3072042C30720F5
:1049C0009CC30720A8C30720A0C30720B0C30720AB
:1049D00094C3072078C3072039C307203AC30720B0
:1049E00098C3072040C3072044C3072048C30720BB
:1049F0001CC00720C4C407207800001088C407200A
:104A000036C30720CCC4072030B5102300220A4D3E
:104A10000AE0845C521C84EAD314E4B292B235F802
:104A2000144084EA03239BB28A42F2D34FF6FF700C
:104A300000EA430030BD0000B80E00100B48D0F86B
:104A4000AC1141F40041C0F8AC1150F8C41F41F45E
:104A5000000101600648002101673121C160322157
:104A60008161012141610420FFF74BBC00C00F4070
:104A70000040094038B51C48D0F8A81141F44071F5
:104A8000C0F8A81150F8C41F41F0100101600024C3
:104A900002231A46214618460094FFF719F802230C
:104AA0001A46012118460094FFF712F8022101224C
:104AB0000846FDF723F801220D210220FDF71EF81C
:104AC0000A480121017203210173022242608322FC
:104AD0000273042202700471D92282620173BDE85C
:104AE00038400620FFF700BC00C00F400000014026
:104AF00070B50D460446022101220846FCF7E4FF8A
:104B0000044A0549D461558114F8010B0870D46139
:104B100070BD0000300000100000014038B518489A
:104B2000D0F8AC1141F44031C0F8AC1150F8C41FBA
:104B300041F0807101600024022301220A212046F5
:104B40000094FEF7C5FF022301220B2100200094F0
:104B5000FEF7BEFF0B4801210172032101730222FF
:104B6000426083220273042202700471D92280F809
:104B700028200173BDE838400720FFF7B5BB0000CF
:104B800000C00F400080094038B51848D0F8AC117B
:104B900041F44021C0F8AC1150F8C41F41F000713D
:104BA00001600024022303221C2104200094FEF74C
:104BB0008FFF022303221D2104200094FEF788FFAB
:104BC0000B480121017203210173022242608322FA
:104BD0000273042202700471D92280F82820017324
:104BE000BDE838400820FFF77FBB000000C00F4041
:104BF00000C00940044A054BD062D18210F8011B65
:104C00001970D062704700003000001000C00940E9
:104C10000000000000000000000000000000000094
:104C200000C001000000000000C0120000000000F1
:104C300000C023000000000000C0250000000000AC
:104C400000C03600000000000000000000C0480066
:104C500000C04900944C0000000000109C000000BF
:104C600064010000304D000000C00720CC040000AB
:104C700008010000304D00009C0000101C110000D5
:104C800080010000AC4F0000CCC40720EC0C0000F9
:104C90008001000000000000000000000000000093
:104CA00000000000454550524F4D204F4B0A0D006B
:104CB00000000000000000000000000000000000F4
:104CC00000000000000000000000000000000000E4
:104CD00000000000000000000000000000000000D4
:104CE00000000000000000000000000000000000C4
:104CF00000000000000000000000000000000000B4
:104D000000000000000000000000000000000000A3
:104D10000000000000000000000000000000000093
:104D20000000000000000000000000000000000083
:104D30002183994523693E0574ECC4072014E9E9F1
:104D4000021420BF022410980213710214F04902C9
:104D500014213A021428170214B8FF011478E00154
:104D600014F0CC011438B70114E0A50124409601D9
:104D70001377011460670114F554011420480114DD
:104D80005040011BB0301C13190114A40A0114F87F
:104D9000010123A0F523F2E923EEDE2302D22394BE
:104DA000CA232AC1234CB823DCAF238CA62350A0EE
:104DB000232099234A9223CE8B23F68423D07F236A
:104DC000447A1BF47404226F23D46A239E6623481A
:104DD00062232E5E23465A235C5623F85223924FB9
:104DE00023544C233E49233B461B80434822401B0F
:104DF0003A3E08223B237239233C37231635230ED3
:104E0000331B1A312C222F23782D23C02B1B1C2A55
:104E10008822281B102764222523402423EC221BF0
:104E2000AC21E31A2098221F23281E1B241D442294
:104E30001C231D1B1B2C1A842219236A18238E176E
:104E400023C1161BFE153C1904238C1423D8131AF6
:104E50002F041B8E12A422111A62041BCC10781985
:104E6000041BBE0F90190423C40E1A4C0423DD0D3D
:104E70001A660423F80C1A94041A30041BCC0BB8DD
:104E800019041A180423C80A1A6E041A1D0423CE22
:104E9000091A88041A420423FC081AB4041A7A0472
:104EA0001A340423F8071ABC041A85041A4E041A8B
:104EB0001C0423EA061AB8041A84041A54041A2C8F
:104EC0000423FA051AD2041AAB041A82041A5A04EB
:104ED0001A3C041A14041BF3046419041AB0041ACB
:104EE00092041A74041A55041A38041A1A0423FC7A
:104EF000031AE80414E9E9021438B70114A40A01FA
:104F0000238CA623D46A1B3B46E0222F2377204B19
:104F1000C116EC29C829A42980395C193C11021A50
:104F200002192711192F51198F3112101A0104215A
:104F30001A2006195921033B6464CB204E04013822
:104F400010157869487130755C76EC771879E079DE
:104F5000A87A707B387C30147D647D967DC87D2C6A
:104F60007EC27E587F2080E880DC827812030A119E
:104F70001B232B32373C41464B50555A5F6409186E
:104F800018696E73787D82878C91969B3C3F43486D
:104F90005054575A5C5F6264011B6362011AA0FAA5
:0C4FA000012E1932023AA1093C3E21000A
:04000005000000CD2A
:00000001FF
