:020000040000FA
:10000000C8D10720C5010000CD010000CF010000CC
:10001000D1010000D3010000D50100000000000064
:10002000000000000000000000000000D7010000F8
:10003000D901000000000000DB0100006140000069
:10004000DF010000DF010000DF010000DF01000030
:10005000DF010000DF010000D14100003942000053
:10006000A1420000DF010000591B0000DF01000079
:10007000DF010000BD3E0000DF010000DF010000E5
:10008000DF010000C13C0000DF010000DF010000D3
:10009000DF010000F5020000DF010000DF010000C9
:1000A000DF01000011140000DF010000DF0100008B
:1000B000DF010000DF010000DF010000DF010000C0
:1000C000DF010000DF010000DF01000000F002F8A6
:1000D00000F068F80AA090E8000C82448344AAF17A
:1000E0000107DA4501D100F05DF8AFF2090EBAE878
:1000F0000F0013F0010F18BFFB1A43F0010318475C
:10010000C84B0000084C00000A444FF0000C10F8E7
:10011000013B13F0070408BF10F8014B1D1108BF85
:1001200010F8015B641E05D010F8016B641E01F825
:10013000016BF9D113F0080F1EBF10F8014BAD1C75
:100140000C1B09D16D1E58BF01F801CBFAD505E093
:1001500014F8016B01F8016B6D1EF9D59142D6D3ED
:1001600070470000103A24BF78C878C1FAD8520707
:1001700024BF30C830C144BF04680C607047000021
:100180000023002400250026103A28BF78C1FBD8A0
:10019000520728BF30C148BF0B6070471FB51FBD55
:1001A00010B510BD00F061F81146FFF7F7FF04F03D
:1001B0009BF900F07FF803B4FFF7F2FF03BC00F0F7
:1001C00087F800000948804709480047FEE7FEE736
:1001D000FEE7FEE7FEE7FEE7FEE7FEE7FEE7FEE7F7
:1001E00004480549034A054B7047000005410000DB
:1001F000CD000000D0110010C8D10720C8CF0720C3
:1002000010B5203AC0F00B80B1E81850203AA0E8B1
:100210001850B1E81850A0E81850BFF4F5AF5FEAE5
:10022000027C24BFB1E81850A0E8185044BF18C998
:1002300018C0BDE810405FEA827C24BF51F8043B3F
:1002400040F8043B08BF7047D20728BF31F8023B93
:1002500048BF11F8012B28BF20F8023B48BF00F827
:10026000012B7047704770477047754600F02CF8B7
:10027000AE4605006946534620F00700854618B093
:1002800020B5FFF7ADFFBDE820404FF000064FF06E
:1002900000074FF000084FF0000B21F00701AC46BB
:1002A000ACE8C009ACE8C009ACE8C009ACE8C009DA
:1002B0008D46704710B50446AFF300802046BDE878
:1002C0001040FFF778BF0000004870476C11001025
:1002D00001491820ABBEFEE726000200704700006F
:1002E000000940F63F1148430149B0FBF1F0704767
:1002F000FFFF0F007047000000000000FFFFFFFF3E
:1003000070B50446214842210170FF21417081707F
:10031000C1700171052103F035FE1D4D1D4869783E
:1003200000F8241000EB8400AA784270EB78837008
:100330002D79C57002EB0120174D03EB0022174801
:1003400004EB840100EB0110EA60297840F82120D9
:100350001CB9132915D0491C2970697801290FD1BE
:100360000022114650F82130491CC9B21A44142900
:10037000F8D31420B2FBF0F00849283941F82400E2
:1003800070BD0021297001216970E9E724C90720A7
:100390000811001014CF0720A8C40720F4CB0720B1
:1003A0002DE9F05F3A4C41204FF00D0820704420B9
:1003B00060703720A0703120E0703220207134202E
:1003C00060710A2584F806800821E57100204FF04D
:1003D000430B4FF0480E04F5FA7A42F210794FF4CD
:1003E0007A764FF0640CB0FBF5F3621804F801B0B4
:1003F00082F801E030339370B0FBF5F305FB130393
:100400003033D37020231371491D8AB25AF820105B
:100410004B46B1FBF3F73037A754B1FBF9F709FBB3
:100420001713B3FBF6F7A31830375F70B1FBF6F77D
:1004300006FB1717B7FBFCF730379F70B1FBFCF7D3
:100440000CFB1717B7FBF5F73037DF70B1FBF5F78B
:1004500005FB171130311971521D91B2621804F861
:100460000180891C401CC0B2557089B20128BAD9DC
:1004700004F801806018891C45708CB2214604483C
:1004800004F0F2FB2146BDE8F05F014804F06ABBCE
:1004900088C9072030B403F00703029C01F01F0154
:1004A000E40344EA033343EA411102F01F0211431B
:1004B00000F03F02044802700A0A4270817030BCAA
:1004C000032103F05FBD000024C90720F0B4C90771
:1004D000090D02F00302DDE9044541EA422103F07F
:1004E000010241EA022104F00102DDE9066741EA66
:1004F000C21105F0010241EA821106F0010241EA4F
:10050000421107F00302DDF820C041EAC2010CF0FD
:100510000702114300F03F02044802700A0A4270C9
:100520008170F0BC032103F02DBD000024C9072019
:1005300030B44905DDE9024502F0010241EA025109
:1005400041EA435104F0010241EA0241C5F30902C4
:10055000114300F03F02054802700A0C42700A0A7B
:100560008270C17030BC042103F00CBD24C9072087
:1005700070B5444C0026012560684349072286B0C7
:10058000B0F5617F1CD006DCB0F5FA7F0BD0B0F57A
:100590002F7F71D10BE0B0F57A7F30D0A0F580606D
:1005A000013869D133E00D704A70542002E00D70BB
:1005B0004A70502088700321334803F0E3FC5BE06D
:1005C0000D704A70C020887003212F4803F0DAFCB8
:1005D000022001950295CDE9030600231A4619462B
:1005E00019200096FFF772FF3C20CDE90060002241
:1005F000032311462120FFF79BFF009600E00095A2
:100600000023112219460920FFF744FF34E000209F
:10061000FFF776FE00231122194609200096FFF706
:1006200039FF1A4E002206F15003A3F5257553F841
:100630002200FFF755FE46F82200A0680F2808D2D6
:1006400053F82200FFF74CFE55F82210084445F8F5
:100650002200A068401CA060102806D155F8220096
:100660000F21B0FBF1F045F82200521C92B2072A8C
:10067000DDD940F2E73060606068401C606006B021
:1006800070BD0000A8C4072024C907207CCB072028
:1006900070B504460120002306E0E55CCE5CB5425F
:1006A00000D000205B1CDBB29342F6D370BD00008B
:1006B00000B501F06FF800F079FF03F0A3FB0448E8
:1006C0000068192803D95DF804EB00F055BE00BDA1
:1006D00058C007205C4810B501468269096D940531
:1006E00042F2107321F0004105D5994203D9C46943
:1006F00044F00804C461D20505D5994203D9C16903
:1007000041F00401C161817A0A29C16902D241F430
:10071000803101E021F48031C1614C490A68012A2D
:100720007ED14B4C00220A60B4F8641146F29C332F
:10073000994209D2016A491C01623C2905D9C16963
:1007400041F02001C16100E00262B4F8621148F694
:100750009463994209D9416A491C4162282905D903
:10076000C16941F01001C16100E04262836D49F24C
:100770006A518B4209D2816A491C8162282905D9B4
:10078000C16941F08001C16100E082624DF2DE5139
:100790008B4209D9C16A491CC162282905D9C1699E
:1007A00041F04001C16100E0C262B4F80632A02B02
:1007B00008D9016B491C0163642903D9C16941F45B
:1007C0008071C161962B04D20263C16921F48071EA
:1007D000C161B4F808123C2908D2446B641C44631C
:1007E000642C03D9C46944F40074C461412904D958
:1007F0004263C46924F40074C461642908D2846B20
:10080000641C8463642C03D9C46944F40034C46157
:10081000662904D98263C46924F40034C46100E009
:100820000BE0591A0F2909DDC16B491CC16364290A
:1008300003D9C16941F48061C16110BDC263C1695E
:1008400021F48061F8E700003CC3072044C0072082
:10085000B00000102DE9F05FFE4B42204FF0410E3A
:10086000187083F801E0542098700D25DD700A247B
:100870001C714220587119464FF05608481D81F8E6
:10088000068020218170C1706D220271DFF8C8B32B
:1008900080F805808171F14FDBF8582042F2107A20
:1008A000B2FBF7F63036C671B2FBF7F607FB162C33
:1008B000BCFBFAF6B2FBFAFC30360AFB1C2C0672C3
:1008C0004FF47A79BCFBF9F6B2FBF9FC303646728C
:1008D00009FB1C2C6426BCFBF6FC0CF1300C80F8E8
:1008E0000AC0B2FBF6FC06FB1C2CBCFBF4FC0CF1B2
:1008F000300C80F80BC0B2FBF4FC04FB1C2230323D
:10090000027345738473502018751A4602F114005F
:1009100082F815809175D1756D22027180F805807D
:100920008171DBF85C20B2FBF7FC0CF1300C80F835
:1009300007C0B2FBF7FC07FB1C2CBCFBFAF7B2FBB1
:10094000FAFC30370AFB1C2C0772BCFBF9F7B2FB30
:10095000F9FC3037477209FB1C27B7FBF6F7303735
:100960008772B2FBF6F706FB1726B6FBF4F63036B5
:10097000C672B2FBF4F604FB1622303202734573E2
:100980008473432083F823001A4602F1230082F87F
:10099000241081704F22C27046220271532242718C
:1009A00081713022C27102723126467232278772FB
:1009B0003726C6723926067345738473482083F838
:1009C00032001E464FF0430C06F1320086F833C069
:1009D00081704F26C6704626067153264671817176
:1009E000C27102723126467287723526C672027350
:1009F00045738473432083F841001A4602F1410095
:100A000082F8421081706D22C27080F804E041715A
:100A1000DBF85010002901DA2D2200E02B228D4B4B
:100A20008E4E42F2107783F8472021F07842B2FBD5
:100A3000F6F1303183F84810B2FBF6F106FB1121D4
:100A4000B1FBF7F130310172B2FBF7F107FB112175
:100A50004FF47A74B1FBF4F130314172B2FBF4F12E
:100A600004FB11216423B1FBF3F130318172B2FB3D
:100A7000F3F103FB11250A21B5FBF1F53035C57201
:100A8000B2FBF1F501FB1522303202734FF00D0875
:100A9000DFF8C09180F80D808173442289F85020DE
:100AA0004A46532582F8515002F150004722827085
:100AB0005222C2704FF0410A80F804A054224271C1
:100AC000DFF894B1452282712025C571BBF80C2056
:100AD000B2FBF4FC04FB1C2CBCFBF3FC0CF1300C53
:100AE00080F808C0B2FBF3FC03FB1C2CBCFBF1FC40
:100AF0000CF1300C80F809C0B2FBF1FC01FB1C22A8
:100B00003032827280F80B8001734FF0430E4A46F8
:100B100089F85DE04FF0480C02F15D0082F85EC09C
:100B2000472282705222C27080F804A0542242717F
:100B300045228271C571BBF80E20B2FBF4FC04FBA8
:100B40001C2CBCFBF3FC0CF1300C80F808C0B2FB91
:100B5000F3FC03FB1C2CBCFBF1FC0CF1300C80F80B
:100B600009C0B2FBF1FC01FB1C223032827280F81A
:100B70000B800173482289F86A204A4602F16A0014
:100B800082F86BE08570C5706D22027180F805A057
:100B90008571DBF85420B2FBF6FC0CF1300C80F8C8
:100BA00007C0B2FBF6FC06FB1C2CBCFBF7FC0CF1EF
:100BB000300C80F808C0B2FBF7FC07FB1C2CBCFB18
:100BC000F4FC0CF1300C80F809C0B2FBF4FC04FB1F
:100BD0001C2CBCFBF3FC0CF1300C80F80AC0B2FBFF
:100BE000F3FC03FB1C2CBCFBF1FC0CF1300C80F87B
:100BF0000BC0B2FBF1FC01FB1C223032027380F807
:100C00000D808173462289F879204A4602F17900E5
:100C100082F87AE085706D22C27080F804A06822A4
:100C200042718571DBF84050B5FBF6FC0CF1300CDD
:100C300080F807C0B5FBF6FC06FB1C56B6FBF7F6C2
:100C400030360672B5FBF7F607FB1656B6FBF4F620
:100C5000303605E030C707203CC30720A0860100DE
:100C60004672B5FBF4F604FB1654B4FBF3F43034CF
:100C70008472B5FBF3F403FB1453B3FBF1F330338D
:100C8000C372B5FBF1F301FB1351303101734B46D5
:100C90000D2183F886100A2181739A465346462017
:100CA00003F8880F4946432481F8894001F1880000
:100CB000722181706D21C170412101714271202129
:100CC0005A468171FE4C516CB1FBF4F43034C4715E
:100CD000FB4CB1FBF4F504FB15143D46B4FBF5F4F5
:100CE000303404722C46B1FBF4F504FB15144FF4B8
:100CF0007A75B4FBF5F4303444722C46B1FBF4F54C
:100D000004FB15156424B5FBF4F4303484726424B8
:100D1000B1FBF4F504FB15140A25B4FBF5F43034EB
:100D2000C4722C46B1FBF4F504FB1511303101738C
:100D30000D2141730A2181735220D87349464324FF
:100D400081F8984001F19700202181706D21C170D8
:100D5000412101716821417120218171D84C916C30
:100D6000B1FBF4F43034C471D54CB1FBF4F504FBA1
:100D700015143D46B4FBF5F4303404722C46B1FB37
:100D8000F4F504FB15144FF47A75B4FBF5F4303424
:100D900044722C46B1FBF4F504FB15146425B4FB36
:100DA000F5F4303484722C46B1FBF4F504FB1514D1
:100DB0000A25B4FBF5F43034C4722C46B1FBF4F5CB
:100DC00004FB1511303101730D2141730A21817328
:100DD000522098774946432401F1A60081F8A740A4
:100DE000202181706D21C170412101716D214171FE
:100DF000732181712021C171B24C516FB1FBF4F4A8
:100E000030340472AF4CB1FBF4F504FB1514AE4D55
:100E1000B4FBF5F4303444722C46B1FBF4F504FB1A
:100E20001514AA4DB4FBF5F4303484722C46B1FB92
:100E3000F4F504FB1514A24DB4FBF5F43034C47280
:100E40002C46B1FBF4F504FB15143D46B4FBF5F458
:100E5000303404732C46B1FBF4F504FB15144FF445
:100E60007A75B4FBF5F4303444732C46B1FBF4F5D9
:100E700004FB15146425B4FBF5F4303484732C465C
:100E8000B1FBF4F504FB15150A24B5FBF4F430347A
:100E9000C4730A24B1FBF4F504FB1511303101745D
:100EA0000D2141748474522083F831004946432453
:100EB00001F1B90081F8BA40202181702521C1706B
:100EC0002021017141718171917A6424B1FBF4F4A4
:100ED0003034C4716424B1FBF4F504FB15140A2505
:100EE000B4FBF5F4303404722C46B1FBF4F504FB8A
:100EF0001511303141720D2181720A21C1724C24C9
:100F0000494683F83D40442581F8C65001F1C500AB
:100F1000432181702021C1706D21017141214171F6
:100F2000682181712021C171664D916FB1FBF5F58A
:100F300030350572634DB1FBF5F605FB1615624EB3
:100F4000B5FBF6F5303545723546B1FBF5F605FBD8
:100F500016155E4EB5FBF6F5303585723546B1FB9C
:100F6000F5F605FB1615564EB5FBF6F53035C57290
:100F70003546B1FBF5F605FB16153E46B5FBF6F515
:100F8000303505733546B1FBF5F605FB16154FF404
:100F90007A76B5FBF6F5303545733546B1FBF5F697
:100FA00005FB16156426B5FBF6F530358573354619
:100FB000B1FBF5F605FB16150A26B5FBF6F530353F
:100FC000C5733546B1FBF5F605FB161130310174DA
:100FD0000D2141740A21817483F85040494643240D
:100FE00001F1D80081F8D94084702021C1706D21B1
:100FF000017141214171682181712021C17102F18A
:101000008001304C0968B1FBF4F4303404722D4C8B
:10101000B1FBF4F504FB15142B4DB4FBF5F430349F
:1010200044722C46B1FBF4F504FB1514274DB4FBB8
:10103000F5F4303484722C46B1FBF4F504FB15143E
:101040001F4DB4FBF5F43034C4722C46B1FBF4F5FB
:1010500004FB15143D46B4FBF5F4303404732C4600
:10106000B1FBF4F504FB15144FF47A75B4FBF5F4F9
:10107000303444732C46B1FBF4F504FB151464259D
:10108000B4FBF5F4303484732C46B1FBF4F504FB67
:1010900015150A24B5FBF4F43034C4730A24B1FBEB
:1010A000F4F504FB1511303101740D214174847481
:1010B00042208AF8EB004846502300F1EB0107E09C
:1010C000A086010000E1F5058096980040420F00DF
:1010D00080F8EC30202088705320C87054200871AC
:1010E0005520487120208871D0690923B3EB107F07
:1010F00001D2372300E030239D4C03EB1073C0F383
:10110000036984F8F230B9F1090F02D909F1370304
:1011100001E009F13003964CC0F30357092F84F81E
:10112000F33002D907F1370301E007F13003904CA7
:10113000C0F30346092E84F8F43002D906F13703D0
:1011400001E006F130038A4CC0F30335092D84F821
:10115000F53002D905F1370301E005F13003844C85
:1011600084F8F630C0F30324092C02D904F13703C4
:1011700001E004F13003DFF8F8C18CF8F730C0F378
:101180000313092B02D903F1370C01E003F1300CF2
:10119000DFF8DC8100F00F02092A88F8F8C002D9D4
:1011A00002F1370C01E002F1300CDFF8C4814FF09E
:1011B0000D0B4FF00A0E88F8F9C088F8FAB081F8E4
:1011C00010E04FF0570C8AF8FCC0DFF8A4C14FF0D4
:1011D0004B080CF1FC018CF8FD804FF020088CF8D6
:1011E000FE804FF0530C81F803C04FF0540C81F88F
:1011F00004C04FF0550C81F805C0DFF878C181F8C4
:1012000006804FF00908DCF818C0B8EB107F07D251
:10121000372000EB1C70DFF858C18CF8030105E0A3
:10122000302000EB1C7C524880F803C1DFF844C139
:10123000DFF83C816046B9F1090F8069C0F30360B3
:1012400001D9373000E0303088F804014948092FCF
:10125000474F8069C0F3035001D9373000E0303088
:1012600087F805014348092E414E8069C0F30340C9
:1012700001D9373000E0303086F806013D48092DAD
:101280003B4D008BC0F3033001D9373000E03030E4
:1012900085F807013748092C354C008BC0F3032033
:1012A00001D9373000E0303084F808013148092B8B
:1012B0002F4B007EC0F3031001D9373000E03030EF
:1012C00083F809012B48092A294A007E00F00F0003
:1012D00001D9373000E0303082F80A0124484D252A
:1012E000544680F80BB181F810E0542020498AF868
:1012F0000D0101F20D1081F80E5150218170702105
:10130000C1706121017172214171202181719CF8AC
:1013100004006421B0FBF1F5303584F81451B0FBC2
:10132000F1F501FB15017246B1FBF2F610493036BA
:1013300001F58A7581F81561B0FBF2F102FB11002D
:101340003030A8705B4684F81731094840F21B140E
:10135000214680F818218AF8193180F81A2103F003
:1013600083FC2146BDE8F05F014803F0FBBB0000B1
:1013700030C707203CC307200021084A08468B23BA
:10138000434302EB8303401CB3F81432C0B201EBB9
:1013900043010228F3D3024881657047B000001072
:1013A0003CC30720F0B5194E00208B21414306EBCA
:1013B0008101401CCA8980B202F47042CA810228AD
:1013C000F3D30022012700208B21514306EB81013A
:1013D000B1F8405007FA00F39CB21D420CD001EB6B
:1013E0004003B3F842C0B1F8643103F5FA739C4589
:1013F00002D9CB892343CB81401C80B20C28E9D38E
:10140000521C92B2022ADED3F0BD0000B0000010E0
:1014100078B51248C0680090114EC0074FF0010423
:1014200004D01049002000F021F8346000980C4DE1
:101430008007A5F1080500D52C600B48C068009016
:10144000C00705D007490120103100F00FF8746083
:101450000098800700D56C6078BD00000040044013
:101460003C00001010C707200080044068B10B4802
:10147000026AD30F4B73C2F380738B73C2F30342C0
:101480000A73426A0A6013B105E00548F0E7826A10
:101490004A60C26A8A60042141607047008004404B
:1014A000004004402DE9F843071E2948294DDFF884
:1014B000A8804FF0000613D0444650F8C41F11D145
:1014C00041F400510160002301221946184600969C
:1014D00002F0FCFA0023012211461846009610E0A3
:1014E0002C46EAE741F480410160002301220721F4
:1014F0000220009602F0EAFA0023012208210220CD
:10150000009602F0E3FA01204FF0E0224106C2F813
:101510000011124A102182F80014114A02211160B0
:1015200020602661A6600F4807B145460E4A0A2191
:10153000B2FBF1F1B1FBF0F0401EC0F309010B4822
:10154000806A0843686103202061BDE8F8830000D9
:1015500000C00F40004004400080044019E000E05B
:1015600000C0034020A1070040787D01844C0000AA
:1015700018B103480021016070470248FAE70000F3
:10158000008004400040044040B10549CA69520748
:10159000FCD5044A012142F8201070470249F5E7C2
:1015A000008004403400001000400440F0B5384B87
:1015B000384C18469A69006DD10520F000404FF074
:1015C00000051BD5D96F0144D967A14209D9B1FBE8
:1015D000F4F69F6F3E449E67B1FBF4F604FB1611D0
:1015E000D967596F884202D2091A596706E09E6C82
:1015F0001EB1761E21449E64F6E75D6791052ED5E7
:1016000091032CD4224A8032516801445160A14296
:1016100009D9B1FBF4F617683E441660B1FBF4F645
:1016200004FB16115160596F08445867A0420CD949
:10163000996C184A491C524210449964586745F203
:101640000820814201D35D679864134848F6AC21B5
:10165000B0F86201884202D9986C58641864D86F57
:101660009630D867586F962801D9963806E0996C5D
:1016700031B1491E9964074996390844586700E01A
:101680005D67986F4FF47A51B0FBF1F09882F0BD2E
:101690003CC3072080EE3600B000001010B50B4CA4
:1016A000012809D000221121012000F011FAA069BF
:1016B00020F00200A06110BD01221121104600F0AF
:1016C00007FAA06940F00200F4E700003CC30720DD
:1016D00018B50C46010A217060708DF800108DF865
:1016E00001000221684603F0C9F9010AA170E07007
:1016F00018BD00002DE9F043DFF894800C26354634
:10170000B8F84240002123464FF0010900208B2207
:101710004A4308EB820CBCF8407009FA00F2174209
:1017200017D00CEB4002B2F84220A24207D9C1F117
:10173000010606EB460600EB86061446B6B29A4250
:1017400007D21346C1F1010202EB420200EB820212
:1017500095B2401CC0B20C28DFD3491CC9B2022983
:10176000D4D3E01A82B200218B20484308EB8000DA
:10177000491CA0F86241A0F86431A0F86621A0F8E5
:101780006861C9B2A0F86A510229EDD3BDE8F083BF
:10179000B0000010F0B51B481B4D00260468AB6973
:1017A000EA6C23F400714FF49677A4F2FF40B4F58D
:1017B000A06F12D26FF01304604364244443B4FB5F
:1017C000F2F2AA81B84218D940F00040286523F40B
:1017D000007040F48070A861F0BD00EB80008000D4
:1017E00064244443B4FBF2F2EA81B84205D9286587
:1017F00023F4807040F40070EDE721F480702E65D2
:10180000E9E700007CCB07203CC3072010B50B4C58
:10181000012809D000221021012000F059F9A06907
:1018200020F00100A06110BD01221021104600F03F
:101830004FF9A06940F00100F4E700003CC3072025
:10184000274810B5A0210170012141708170A121AC
:10185000C170C1790279837901EB02614279120486
:1018600002EB03220A44A0F58F710A66C27A037A5A
:10187000847A02EB0362437A1B0403EB04231A44C9
:101880004A66027B4A72027C437BC47B02EB0362A2
:10189000837B1B0403EB04231A448A66027D437C8A
:1018A000C47C02EB0362837C1B0403EB04231A4415
:1018B000CA66027E437DC47D02EB0362837D1B0406
:1018C00003EB04231A440A67827E437E02EB032261
:1018D0000A82027FC07E02EB0020488210BD000019
:1018E0005AC407202DE9F0433F48A021A0F58F7985
:1018F00001700021417001218170A121C170C17965
:101900000279837901EB02614279120402EB03222E
:101910000A44C9F86020C37A047A857A03EB046329
:10192000447A4946240404EB052403EB0408C9F86F
:10193000648090F80CC089F809C0047C437BC57BA7
:1019400004EB0363847B240404EB05241F198F66D6
:10195000037D447CC57C03EB0463847C240404EB9A
:1019600005241E19CE66037E447DC57D03EB04630A
:10197000847D240404EB05241D190D67837E447EB9
:1019800003EB04239CB20C82037FC07E03EB002098
:1019900083B24B82D9F8581001208A4200D000202F
:1019A000D9F848204946904500D000208A7A9445CD
:1019B00000D000200A6C974200D000208A6F964227
:1019C00000D00020084A9E3A1268954200D00020BC
:1019D000B9F814108C4200D00020A3F5B441A53909
:1019E00000D00020BDE8F0835AC407201E48A02183
:1019F000A0F1EC020170012141708170916D0B0E1C
:101A0000C3700B0C03710B0A43718171916C0B0E47
:101A1000C3710B0C03720B0A43728172917AC1720B
:101A2000116C0B0E03730B0C43730B0A8373C1739E
:101A3000916F0B0E03740B0C43740B0A8374C17407
:101A4000A0F16C0109680B0E03750B0C43750B0AB2
:101A50008375C175918A0A0A027641765A21817688
:101A6000A521C1767047000028C4072030B5104872
:101A7000104AB0F80812107802F11403A2F1C4045D
:101A8000884201D91878E070D07C884201D2D87C95
:101A9000E0700020155C8D4205D215186D788D42DE
:101AA00001D91D5CE570401CC0B21328F2D330BDD3
:101AB000B000001000C40720044A02EB4010406947
:101AC00001228A40104000D00120704700C0092048
:101AD00001238B40034901EB40100AB18361704739
:101AE000C361704700C009200549002851F8C40FA0
:101AF00002D040F4004001E020F40040086070474C
:101B000000C00F4010B5064C012304EB40108B4081
:101B100001680AB1194300E09943016010BD00005B
:101B200000C0092010B50B4C012809D000220E215D
:101B30000120FFF7CDFFA06920F00400A06110BDD7
:101B400001220E211046FFF7C3FFA06940F00400F8
:101B5000F4E700003CC307202DE9F04F344841680A
:101B600001F0F80111F0070F5AD1324C4FEAE108A9
:101B70000425E77894F801C0791CCBB2A168E3464C
:101B800014264A1CACF1010C94F802904FF0200E80
:101B90000CF0FF0AB8F10C0F42D2DFE808F0410662
:101BA0000C12191B193240193445097881600560FF
:101BB000C0F818E003E009788160A2600560E37076
:101BC0002EE009788160A260056084F801A0F6E744
:101BD000066025E094F804C0BCF1000F05D05FEA70
:101BE0000B060BD084F801A003E04F4501D9066035
:101BF0000CE009788160A260E37010E0714601603A
:101C00000EE02421FBE74F4503D9856100212170B7
:101C100006E083680B70A260E178491CE170056002
:101C200008218161BDE8F08F83680B70A260CFE767
:101C300000C0014030C3072010B501220F2110461B
:101C4000FFF760FF012210211046FFF75BFF012222
:101C500011211046FFF756FF01220E211046FFF713
:101C600051FF01220A211046FFF74CFF00220521F7
:101C70001046FFF747FF002205210220FFF742FF31
:101C8000002203210220FFF73DFF00220421022051
:101C9000FFF738FF022100220846FFF733FF012239
:101CA00018211046FFF72EFF012219211046FFF7D9
:101CB00029FF01221A211046FFF724FF01221B21D0
:101CC0001046FFF71FFF01221C211046FFF71AFFE5
:101CD00001221D211046FFF715FF01220F2110469A
:101CE000FFF7F6FE002210210120FFF7F1FE00228F
:101CF00011210120FFF7ECFE00220E210120FFF749
:101D0000E7FE012218211046FFF7E2FE0122192109
:101D10001046FFF7DDFE01221A211046FFF7D8FE1C
:101D200001221B211046FFF7D3FE01221C21104681
:101D3000FFF7CEFE0122BDE810401D211046FFF73F
:101D4000C7BE000010B50D4C6078002814D10521E5
:101D5000FFF7B2FE18B9A07840F00100A070A0789B
:101D6000002809D005210020FFF7A6FE012803D195
:101D7000A07860700020A07010BD0000A8000010C6
:101D80002DE9F0474B4800264B4C00780A2801D239
:101D900026701BE0A0F10A01142901D2012014E0F1
:101DA000A0F11E01142901D202200EE0A0F132019F
:101DB000142901D2032008E0A0F14601142901D220
:101DC000042002E05A2801D9052020703B4D4FF431
:101DD00016774FF4967828684FF4E179C10530D52D
:101DE000810558D4400556D46068B8421FD009DC3C
:101DF000012816D0962816D0404516D048454AD11D
:101E0000022019E0A0F50070EE3812D0FA2812D0A6
:101E1000A0F58060E2380CD0A0F53060B8383AD137
:101E200022E0052008E0042006E0032004E0012071
:101E300002E0002000E0207800F042F82888C00589
:101E400029D42868810526D5400524D46068B84285
:101E50001CD00BDC01281CD0962813D0404513D091
:101E6000484518D1042014E0666014E0A0F5007025
:101E7000EE3805D0FA280BD0A0F58060E238CBD13F
:101E8000002006E0022004E0032002E0052000E03C
:101E9000207800F015F8286810F4407F05D140053F
:101EA00003D4207800F00CF866606068401C606025
:101EB000BDE8F08746C30720A800001054C30720E0
:101EC00010B506285BD2DFE800F003051B222E3F89
:101ED000012200E0002219210120FFF7F9FD012273
:101EE0001A210120FFF7F4FD01221B210120FFF739
:101EF000EFFD01221C210120FFF7EAFD012238E05D
:101F0000002219210120FFF7E3FD0022E8E700226B
:101F100019210120FFF7DCFD00221A210120FFF723
:101F2000D7FD0022E1E7002219210120FFF7D0FDB3
:101F300000221A210120FFF7CBFD00221B210120E6
:101F4000FFF7C6FD0022D5E7002219210120FFF787
:101F5000BFFD00221A210120FFF7BAFD00221B213C
:101F60000120FFF7B5FD00221C210120FFF7B0FD85
:101F700000221D21BDE810400120FFF7A9BD10BDC2
:101F800030B5194A1168814201D2142030BD916BDD
:101F9000814201D9D22030BD002152F82150854222
:101FA00005D902EB81056D68854200D20C46491CBB
:101FB00089B20F29F1D30D4A04EB8404002102EB0E
:101FC000C40252F82150854205D902EB81056D68A3
:101FD000854200D20B46491C89B20A29F1D303EB92
:101FE00044003C3080B230BDF4C20720C4C007209A
:101FF00000B546490120FFF76BFB44490220091D4B
:10200000FFF766FB414904200831FFF761FB3F49B8
:1020100006200C31FFF75CFB3C4908201031FFF72C
:1020200057FB3A490A201431FFF752FB37490C207D
:102030001831FFF74DFB35490E201C31FFF748FBE7
:10204000324910202031FFF743FB30491220243160
:10205000FFF73EFB2D494FF458702831FFF738FB4E
:102060002A494FF45A702C31FFF732FB27494FF4BD
:102070004A703031FFF72CFB244940F247303431AD
:10208000FFF726FB214940F201203831FFF720FB02
:102090001E4940F201303C31FFF71AFB1B494FF457
:1020A000A0604031FFF714FB184940F2475044311B
:1020B000FFF70EFB15494FF4A1604831FFF708FB0D
:1020C000124940F24F504C31FFF702FB0F4940F2EA
:1020D0006F505031FFF7FCFA0C4940F26750543111
:1020E000FFF7F6FA094940F211705831FFF7F0FA9C
:1020F000064940F212705C31FFF7EAFA034940F2F8
:10210000137060315DF804EBFFF7E2BA60C007209E
:102110002DE9F05FFE48DFF8FC83FD4E00784FF0BC
:10212000010A00244FF00A0BA8F6284520B18028A8
:102130007DD001287CD00DE2B08846F6AA2933284C
:1021400077D02CDC172875D014DC0E2826D008DCBC
:102150000128FBD0022857D004286CD00528EAD1EA
:10216000A7E00F2868D0112867D0132866D015285B
:10217000E1D1C5E025287CD008DC18287AD01928C0
:1021800079D02228E2D02328D5D157E1272873D04F
:10219000282872D0292871D03228CCD1F7E34FF00B
:1021A000150B87286BD014DC7E28F7D008DC352887
:1021B00066D0372865D0742874D07528BBD122E248
:1021C0007F2879D0812870D083286FD08528B2D11C
:1021D00038E2B0F5DA7F6AD00ADC882868D0A0F54A
:1021E00080701D38DAD0012879D09628A3D1CEE3AB
:1021F000B0F5DB7F56D0A0F58070B7383AD0012813
:10220000C7D0022897D162E300274FF0BE0B4FF0F2
:10221000910AA1468B2207FB02F0FE2105F820104F
:1022200005EB80044021617084F802B007E07AE396
:102230007FE37BE174E035E03EE040E050E084F88D
:1022400003A0A4F80E9084F804901020607120463A
:10225000062102F013FC010AF0807F1CA171FFB27D
:10226000E071022FD6D30021434600208B224A433F
:1022700008E0E6E0DCE0DEE0F3E052E153E1EFE12C
:1022800057E168E105EB820400EBC106245C1E44C3
:10229000401CC0B234710828EAD3491CC9B20229D3
:1022A000E3D3AFE29A487C30EBE3AFE1BCE1DCE2A0
:1022B00078E297485830E4E395482C3048E1002410
:1022C0008B20604305EB80002146103000F0E8FED3
:1022D000641CE4B2022CF3D38D48303038E192E232
:1022E00000248B20604305EB80002146163000F06F
:1022F000D7FE641CE4B2022CF3D38548343027E1C6
:1023000000248B20604305EB800021461C3000F048
:10231000C7FE641CE4B2022CF3D37D48383017E1C9
:1023200000278B20784305EB80003946223000F0EF
:10233000B7FE7F1CFFB2022FF3D300218B2048434E
:1023400005EB8000491C10F8102FC9B24378022910
:1023500002EB0322A0F84A208278C37802EB032222
:10236000A0F84C200279437902EB0322A0F84E201A
:102370008279C37902EB0322A0F85020027A437AD3
:1023800002EB0322A0F85220827AC37A02EB0322E6
:10239000A0F85420027B437B02EB0322A0F85620D6
:1023A000827BC37B02EB0322A0F85820027C437C93
:1023B00002EB0322A0F85A20827CC37C02EB0322AA
:1023C000A0F85C20027D437D02EB0322A0F85E2092
:1023D000827DC37D02EB0322A0F86020AED30021F2
:1023E0004F4680234FF08B0C002001FB0CF205EBD5
:1023F000820C0CEB400CBCF85AC0BC4500D03370CA
:10240000401CC0B20C28F2D3491CC9B20229E9D33E
:10241000307880280AD17078052805D2401C707069
:102420003470A6F804A095E0337093E0747091E0E6
:102430003748803025E33648683022E334483C3062
:1024400086E000248B20604305EB80002146283085
:1024500000F026FE641CE4B2022CF3D32C4840307A
:1024600076E000278B2107FB01F005EB8000394661
:102470002E3000F015FE7F1CFFB2022FF2D3002198
:102480008B20484305EB8000491C10F8282FC9B267
:102490004378022902EB032242868278C37802EB5A
:1024A000032282860279437902EB0322C286827973
:1024B000C37902EB03220287027A437A02EB0322FA
:1024C0004287827AC37A02EB03228287D8D3002123
:1024D000CC46802700208B2201FB02F305EB830210
:1024E00002EB4002B2F85A20624500D03770401C1F
:1024F000C0B20628F2D3491CC9B20229EAD3307807
:10250000802893D17078052809D2401C707003E0B0
:102510003CC00720D80C001034700C203DE137700F
:1025200018E0FE48ADE2FD481438AAE2FB48403806
:102530000EE000248B20604305EB80002146343000
:1025400000F0AEFD641CE4B2022CF3D3F3483C3837
:1025500000F0ECFDFEE200278B20784305EB8000C5
:1025600039463A3000F09CFD7F1CFFB2022FF3D3B6
:1025700000218B20484305EB8000491C10F8342FC4
:10258000C9B24378022902EB0322C2848278C3785D
:1025900002EB032202850279437902EB0322428592
:1025A0008279C37902EB03228285E2D300204B4675
:1025B00080228B21414305EB8101B1F85A709F4283
:1025C00000D03270B1F85C709F4200D03270B1F828
:1025D0005E709F4200D03270B1F86010994200D016
:1025E0003270401CC0B20228E3D33078802888D1F2
:1025F0007078052805D2401C70703470A6F804B0BD
:10260000A8E23270A6E2C5483838D6E300248B2011
:10261000604305EB80002146103000F041FD641C52
:10262000E4B2022CF3D357E600248B20604305EB81
:1026300080002146163000F033FD641CE4B2022C09
:10264000F3D35AE600248B20604305EB800021463B
:102650001C3000F025FD641CE4B2022CF3D35CE6D0
:1026600000278B20784305EB80003946223000F0AC
:1026700017FD7F1CFFB2022FF3D300218B204843AC
:1026800005EB8000491C10F8102FC9B243780229CD
:1026900002EB032242868278C37802EB0322828611
:1026A0000279437902EB0322C2868279C37902EB75
:1026B00003220287027A437A02EB03224287827A5C
:1026C000C37A02EB03228287027B437B02EB032265
:1026D000C287827BC37B02EB0322A0F84020027CEE
:1026E000437C02EB0322A0F84220827CC37C02EBF5
:1026F0000322A0F84420027D437D02EB0322A0F8D0
:102700004620827DC37D02EB0322A0F84820B5D38A
:10271000002246F2A817A94600218B204AF2F87B36
:10272000554602FB00FC09EB8C0000EB4103B3F8BB
:102730004230BB4201D85B4507D2B0F8403005FAC1
:1027400001F843EA0803A0F84030491CC9B20C293B
:10275000E9D3002142F2107300EB410CBCF842C0F7
:102760009C4507D8B0F840C005FA01F82CEA080CDF
:10277000A0F840C0491CC9B20C29EDD3521CD2B2FA
:10278000022AC9D3307880287FF450AE70780528AB
:1027900005D2401C707034703E20B080DAE1802099
:1027A0003070D7E1D946002740F2555A4FF0550B0B
:1027B0008B21794305EB81042046A4F80EA084F810
:1027C00004B084F80590062102F058F9010AF0805F
:1027D0007F1CA171FFB2E071022FE9D300214346B3
:1027E00000208B224A4305EB820400EBC106245CE7
:1027F0001E44401CC0B234710828F4D3491CC9B22D
:102800000229EDD31FE2002740F6AA294FF0AA0AB9
:102810004FF01A0B8B21794305EB81042046A4F875
:102820000E9084F804A084F805B0062102F026F981
:10283000010AF0807F1CA171FFB2E071022FE9D381
:102840000021434600208B224A4305EB820400EB23
:10285000C106245C1E44401CC0B234710828F4D365
:10286000491CC9B20229EDD3EDE100278B2107FBFA
:1028700001F005EB80040621E08900F47040E0815E
:102880002071C0F3032040F010006071204602F078
:10289000F5F8010AF0807F1CA171FFB2E071022FF0
:1028A000E4D30021424600208B2301FB03F405EB17
:1028B000840300EBC1061B5C1644401CC0B233719C
:1028C0000828F4D3491CC9B20229ECD3BBE186F82D
:1028D00000A0002100208B2201FB02F305EB830204
:1028E00002EB4002401CC0B2A2F842400C28F5D3D3
:1028F000491CC9B20229EDD3002100208B224A4392
:1029000005EB820303EB4003401CC0B2A3F86E4109
:102910000528F5D3491CC9B2022901E0C0C007202F
:10292000EBD3B480B3E3002216210120FFF7D0F8E7
:10293000ADE3012216211046FFF7CAF8B088192826
:102940007ED01ADC0F2835D00DDC03283FF437ACDD
:1029500004DC01281BD00228E4D1A3E40C28F9D020
:102960000D28DFD1A8E411380828DBD2DFE800F019
:1029700030F23EF24CF3F2045AE54FF6FF79292883
:102980007ED00DDCA0F122000728CBD200E0F3E0DE
:10299000DFE800F0F205E0F1E0F00400C1E54DE50C
:1029A0003228D7D033283FF4C1AD35286AD0372834
:1029B000B8D117E200248B20604305EB800021464C
:1029C000103000F06DFB641CE4B2022CF3D383E4FE
:1029D00000248B20604305EB80002146163000F078
:1029E0005FFB641CE4B2022CF3D386E400248B204A
:1029F000604305EB800021461C3000F051FB641C55
:102A0000E4B2022CF3D388E400248B20604305EB6E
:102A100080002146223000F043FB641CE4B2022C0B
:102A2000F3D300218B2201FB02F005EB800010F8AC
:102A3000102F437802EB0322A0F84A20827800E0AE
:102A40003FE1C37802EB0322A0F84C2002794379DE
:102A500002EB0322A0F84E208279C37902EB032215
:102A6000A0F85020027A437A02EB0322A0F8522009
:102A7000827AC37A02EB0322A0F85420027B02E0A0
:102A800099E19AE19FE1437B491C02EB0322A0F804
:102A90005620827BC37BC9B202EB0322A0F85820E8
:102AA000027C437C022902EB0322A0F85A20827C9C
:102AB000C37C02EB0322A0F85C20027D437D02EB85
:102AC0000322A0F85E20827DC37D02EB0322A0F8E2
:102AD0006020A7D30021D446A94600208B22376A64
:102AE00044F24F6801FB02F509EB85020CFA00F491
:102AF000B2F84030234210D002EB4003B3F85A3012
:102B0000A3F5C244A93C444507D200EB800402EB84
:102B1000840202EB4702A2F87230401CC0B20C28BB
:102B2000E2D3491CC9B20229D7D3B9F8640148F2EB
:102B3000E8014A46884205D8B2F8621148F2D0430B
:102B400099421AD9B2F86211081AB0F5FA7F03DD7A
:102B5000FEF728FC9BE21EE000208B21414302EBA4
:102B60008101401CCB89C0B203F47043CB810228A1
:102B7000F3D38CE2B7E0A7E022E100208B214143B0
:102B800002EB8101401CCB89C0B203F47043CB81BE
:102B90000228F3D37BE2D6E905404FF4005A4FF404
:102BA000805C4FF480474FF40049A04259D900247B
:102BB000B3468B2204FB02F0FE2105F8201005EB42
:102BC000800640217170BE20B0709120F070F089B5
:102BD00000F47041B1F5805F0CD0514537D0B94257
:102BE0003AD049450ED100F088013171082101EA3F
:102BF000102004E000F011013171C0F3002040F01A
:102C0000100070713046062101F038FF010AABF860
:102C10000600641CB171E4B2F071022CC9D300212A
:102C2000434600208B224A4305EB820400EBC10699
:102C3000245C1E44401CC0B234710828F4D3491CE3
:102C4000C9B20229EDD3FE4800F02EFF1FE200F0CA
:102C5000220131710221CAE700F0440131710421DF
:102C6000C5E70023D0468B20584305EB8001C88977
:102C700000F47042424512D008DC5AB1624518D1C6
:102C8000C0F30B0040F40050C88112E0BA420BD0F0
:102C90004A450ED1C0F30B0040F48050F4E7C0F376
:102CA0000B0040F48040EFE7C0F30B0040F400401D
:102CB000EAE75B1CDBB2022BD5D304F57A74B4616E
:102CC000E5E1DF48403078E000248B20604305EBED
:102CD00080002146283000F0E3F9641CE4B2022CA5
:102CE000F3D3FFF7BBBB00272C468B20784304EBC4
:102CF000800039462E3000F0D3F97F1CFFB2022F3E
:102D0000F3D300218B20484304EB8000491C10F8CA
:102D1000282FC9B24378022902EB0322A0F85021E0
:102D20008278C37802EB0322A0F85221027943791A
:102D300002EB0322A0F854218279C37902EB03222B
:102D4000A0F85621027A437A02EB0322A0F8582118
:102D5000827AC37A02EB0322A0F8EA21D2D30021BF
:102D600047F64F0800208B22D6F820C001FB02F363
:102D700004EB830202EB4005B5F87851A5F1C907D1
:102D8000474507D200EB800702EB870707EB4C07AC
:102D9000A7F88251401CC0B20528E9D304EB830098
:102DA000B0F81202484501D0A2F81002491CC9B27D
:102DB0000229D7D36BE1A248483000F0DBF966E185
:102DC00000F05AFE63E100248B20604305EB800095
:102DD0002146343000F064F9641CE4B2022CF3D3D1
:102DE000FFF7B4BB00278B20784305EB8000394602
:102DF0003A3000F055F97F1CFFB2022FF3D30021C7
:102E00008B20484305EB8000491C10F8342FC9B2D1
:102E10004378022902EB0322A0F8E2218278C378EA
:102E200002EB0322A0F8E6210279437902EB0322A8
:102E3000A0F8EA218279C37902EB0322A0F8EE21FF
:102E4000C27A80F8F121DBD300214B468B20484326
:102E500005EB8000B0F816229A4201D0A0F81422A7
:102E6000B0F81A229A4201D0A0F81822B0F81E2217
:102E70009A4201D0A0F81C22B0F822229A4201D036
:102E8000A0F8202290F82522FF2A01D080F82422E1
:102E9000491CC9B20229D9D3F069401CF061316ADA
:102EA0000A2901D2491C31620A2900D1346216284C
:102EB0007ED9644E00220020002146F82140491CA2
:102EC000C9B20C29F9D300218B2700EB800802FB43
:102ED00007F305EB830707EB880707EB410756F875
:102EE00020C0B7F87270491C6744C9B246F8207018
:102EF0000A29EED3D946B7FBF9F105EB830303EBBF
:102F00004003401CC0B2A3F842100C28D4D3521C7A
:102F1000D2B2022ACFD3FEF7EDFB0022002000211F
:102F200046F82140491CC9B20529F9D300218B2755
:102F300000EB800802FB07F305EB830707EB88072C
:102F400007EB410756F820C0B7F88271491C674467
:102F5000C9B246F820700A29EED3B7FBF9F105EBA8
:102F6000830303EB4003401CC0B2A3F86E11052895
:102F7000D5D3521CD2B2022AD0D3002100208B22FA
:102F800001FB02FC05EB8C0202EB400342F21077DE
:102F9000B3F86E3103FB07F6B2F8107202EB800251
:102FA000FB1A96FBF3F3401CC0B2C2F8E83100E014
:102FB0006BE00528E6D3491CC9B20229DED30026FE
:102FC000A94600258B2106FB01F809EB880707EBD2
:102FD0008500D0F8E801FEF7D3FFD22803D207EB33
:102FE0004501A1F8FC016D1CEDB2052DEDD3761C59
:102FF000F6B2022EE5D3B9F8FC510527CC462B4694
:103000003E46002100208B2201FB02F80CEB8802D7
:1030100002EB4002B2F8FC21AA4206D9C1F1010735
:1030200007EB870707441546BFB29A4206D21346FC
:10303000C1F1010202EB8202024496B2401C03E09D
:1030400060C00720CC100010C0B20528DED3491C98
:10305000C9B20229D6D30020E91A1FFA81F88B22BF
:1030600000FB02F10CEB8101401CA1F80652A1F813
:103070000832A1F80A82A1F80C72C0B2A1F80E625F
:103080000228ECD30549C1F808A00448848003480D
:103090008188491C8180BDE8F09F00003CC007206A
:1030A0007CB5214D0446C1F10106286900EBC6003C
:1030B00001798DF8001041798DF8011081798DF832
:1030C0000210C1798DF80310017A8DF80410407A4E
:1030D0008DF805000621684601F0D0FCE880010A61
:1030E0008DF80610C0B28DF807002A6902EBC602FF
:1030F000937A994216D1D17A884213D19DF8000073
:1031000020709DF8010060709DF80200A0709DF88D
:103110000300E0709DF8040020719DF805006071C7
:1031200001207CBD00207CBD3CC0072030B40F4A8C
:10313000017811704178517081789170C0780021C8
:10314000D070FF23002000EBC1041444401CC0B227
:1031500023710828F7D3491CC9B20229F2D3044AC3
:1031600014210248D26830BC10470000D80C00106F
:103170003CC00720064902780A7042784A7082787B
:103180008A70C078034AC8700421D268004810478A
:10319000D80C00103CC007202DE9F05FF9484C2105
:1031A000432301705421417083703621C17038214E
:1031B00001713121417181710D21C1710A210922F1
:1031C0000172002642F2107E4FF0200B43238354FD
:1031D000831856245C7083F802B0D21C00258B2320
:1031E00006FB03F4E84B92B20746884603EB840AD9
:1031F0000AEB45036D1CB3F842407346B4FBF3FC85
:103200000CF1300C07F802C0B4FBFEFC0EFB1C43B3
:103210004FF47A7CB3FBFCF9BB1809F1300983F851
:103220000190B4FBFCF90CFB19494FF0640CB9FB9D
:10323000FCF909F1300983F80290B4FBFCF90CFBAE
:10324000194CBCFBF8FC0CF1300C83F803C0B4FB48
:10325000F8FC08FB1C4430341C71D21D83F805B007
:10326000EDB283F806B092B20C2DC1D30D23BB543E
:10327000BB18921C761CF6B283F8018092B2022E23
:10328000A4D34D23835483184124121D5C701FFA6C
:1032900082F95824BC4A9C7083F803B0B2F862618A
:1032A0007346B6FBF3F4B6FBF3F2303400F8094092
:1032B0000EFB12624FF47A74B2FBF4F500EB0902D4
:1032C00030355570B6FBF4F504FB156C6425BCFB7A
:1032D000F5FC0CF1300C82F802C0B6FBF5FC05FBE6
:1032E0001C6CBCFBF1FC0CF1300C82F803C0B6FB8B
:1032F000F1FC01FB1C66303616710D26567191717A
:1033000009F1070292B24D26865486184FF0490CF7
:10331000121D86F801C01FFA82F94FF04E0C9A4A2E
:10332000DA4686F802C086F803A0B2F86461B6FBFC
:10333000F3FCB6FBF3F20CF1300C03FB126200F865
:1033400009C0B2FBF4FC00EB09020CF1300C82F86E
:1033500001C0B6FBF4FC04FB1C6CBCFBF5FC0CF1DF
:10336000300C82F802C0B6FBF5FC05FB1C6CBCFB04
:10337000F1FC0CF1300C82F803C0B6FBF1FC01FB50
:103380001C66303616710D265671917109F10702CF
:1033900092B25826865486184FF04E0C121D86F8AD
:1033A00001C01FFA82F94FF04D0C774A86F802C02F
:1033B00086F803A0B2F86861B6FBF3FCB6FBF3F243
:1033C0000CF1300C03FB126200F809C0B2FBF4FCF4
:1033D00000EB09020CF1300C82F801C0B6FBF4FCE2
:1033E00004FB1C6CBCFBF5FC0CF1300C82F802C039
:1033F000B6FBF5FC05FB1C6CBCFBF1FC0CF1300CC6
:1034000082F803C0B6FBF1FC01FB1C663036167176
:103410000D265671917109F1070292B24E2686541B
:10342000B4468618121D86F801C01FFA82F94FF0C3
:103430004D0C554A86F802C086F803A0B2F86A61BE
:10344000B6FBF3FCB6FBF3F20CF1300C03FB12629B
:1034500000F809C0B2FBF4FC00EB09020CF1300CDF
:1034600082F801C0B6FBF4FC04FB1C6CBCFBF5FC51
:103470000CF1300C82F802C0B6FBF5FC05FB1C6CAD
:10348000BCFBF1FC0CF1300C82F803C0B6FBF1FC84
:1034900001FB1C66303616710D265671917109F1CB
:1034A000070292B24426865486184FF04C0C86F8D8
:1034B00001C04FF0540C86F802C086F803A0121D1C
:1034C00096B2314ADFF8C0904FF00D0AB2F866218B
:1034D000B2FBF3FC0CF1300C00F806C0B2FBF3FCBD
:1034E0000EFB1C23B3FBF4F3B81930334370B2FB6B
:1034F000F4F304FB1323B3FBF5F330338370B2FB17
:10350000F5F305FB1323B3FBF1F33033C370B2FBC8
:10351000F1F301FB1322303202710D2242718171ED
:10352000F61DB0B200214FF0420C5A4607F800C019
:103530003B184C245C70C01C9A7080B230233B5402
:103540008B2301FB03F409EB840407EB0006E489F9
:10355000C4F30325092D01D9373500E030357570E6
:10356000C4F30315092D07EB000601D9373500E038
:103570003035B57004F00F04092C07EB000505D9B0
:10358000373404E008050010B00000103034001D8E
:10359000EC7080B23C1807F800A0801C491CC9B22E
:1035A00084F8018080B20229C0D3F34600244FF48E
:1035B0007A7EBC4647210CF800100CEB0001562225
:1035C0004A702022C01C8A7000238B2104FB01F268
:1035D00080B209EB820707EB43015B1CB1F86E2157
:1035E0005946B2FBF1F530350CF80050B2FBFBF553
:1035F0000BFB15217546B1FBF5F60CEB00013036DF
:103600004E70B2FBFEF60EFB16266425B6FBF5F6F1
:1036100030368E70B2FBF5F605FB1626B6FBF8F6D3
:103620003036CE70B2FBF8F608FB162230320A7143
:103630002022C01D4A71DBB28A7180B2052BCAD329
:103640000CF800A00CEB0001801C641CE4B2534693
:1036500081F8018080B2022CACD3DA4600214C46BE
:10366000AB4666469E4652233354331846255D705A
:103670009A70C01C83B28B2501FB05F004EB80001F
:103680005546B0F810024FF47A7CB0FBF5F73037AE
:10369000F754B0FBFAF70AFB17056746B5FBF7F9D5
:1036A000F51809F1300985F80190B0FBFCF90CFB25
:1036B0001907D946B7FBF9F73037AF70B0FBF9F708
:1036C0000BFB1707B7FBF8F73037EF70B0FBF8F7D5
:1036D00008FB1700303028715B1D98B2351806F8CA
:1036E00000E0801C491CC9B2734685F8018080B295
:1036F0000229B8D300214FF0430BE64692465322ED
:1037000032543218C01C82F801B082F802A082B292
:103710008B20484304EB800042F21075B0F814028D
:10372000491CB0FBF5F73037B754B0FBF5F705FB94
:1037300017077546B7FBF5FCB7180CF1300C87F886
:1037400001C0B0FBFEFC0EFB1C0C4D46BCFBF5FCA7
:103750000CF1300C87F802C0B0FBF5FC09FB1C0C27
:10376000BCFBF8FC0CF1300C87F803C0B0FBF8FC94
:1037700008FB1C0030303871521D90B2321833549F
:10378000801CC9B282F8018080B20229B7D35222CC
:1037900032543218452757704FF0560982F802907C
:1037A00082F803A08B22514304EB8101001D91F8A4
:1037B0002422AE49092780B291F824124FF0370E27
:1037C000B7EB121F02D20EEB111102E0302707EB0C
:1037D00011113154A54902F00F02092A91F824125F
:1037E00006EB000201F00F0101D9373100E0303162
:1037F0005170801C80B23118335481F80180801CD4
:1038000081B24FF04D0C701806F801C06E22427064
:103810006D228270964A80F803A05746D269B8EBB1
:10382000127F03D9302404EB127401E00EEB127402
:103830000471C2F303640A2C01D2303400E037343F
:103840004471C2F303540A2C01D2303400E03734FF
:103850008471C2F303440A2C01D2303400E03734BF
:10386000C471C2F303340A2C01D2303400E037347F
:103870000472C2F303240A2C01D2303400E037343E
:103880004472C2F303140A2C01D2303400E03734FE
:1038900002F00F0284720A2A01D2303200E037327D
:1038A000C2720C3188B231183354801C81F8018007
:1038B00080B231183354801C81F8018080B24C21D1
:1038C000315431189A461A4654234B7081F802B08D
:1038D0003624CC7038240C71401D80B23118375416
:1038E0004B7045238B704D24CC705024401D0C71BF
:1038F00080B231183254801CB946DFF870B181F8BB
:10390000018080B200223746C64644213954391816
:1039100045234B7056238B70F446B2FBFCF33033D7
:10392000CB70B2FBFCF30EFB132330330B7181F829
:103930000590801D00218B2602FB06F380B20BEB65
:10394000830606EB4103491CB3F8FC41C9B2B4FB42
:10395000F5F330333B54B4FBF5F305FB1343B3FBF2
:10396000FCF83B1808F1300883F80180B4FBFCF840
:103970000CFB18443034001D9C7083F8039080B217
:103980000529DED307F800A03918801C521CD2B2DA
:1039900081F801E080B2022AB7D34D223A54391897
:1039A00041234B7058238B7081F80390001DBBF8A6
:1039B000066281B2B6FBF5F030307854B6FBF5F014
:1039C00005FB106C7046BCFBF0F807EB010C08F12E
:1039D00030088CF80180B6FBF0F80EFB1866303624
:1039E0008CF80260C91C89B207EB010C07F801A032
:1039F000891C89B28CF801E07A547A184FF0490C8E
:103A000082F801C04FF04E0C4B4682F802C0D370D2
:103A1000BBF80822091DB2FBF5F389B230337B54A1
:103A2000B2FBF5F305FB1323B3FBF0F47B18303442
:103A30005C70B2FBF0F400FB14223032C91C9A70A7
:103A400089B256467E547A18891C507089B27A1809
:103A50007E54891C50708CB22146064801F004F94E
:103A60002146BDE8F05F034801F07CB8B0000010CB
:103A70003CC00720080500100020094BAA2203EBD8
:103A8000800103F820204A70401C8A70C0B2CA70BE
:103A90000228F4D3034A08210148D26810470000E5
:103AA000D80C00103CC00720064902780A70427802
:103AB0004A7082788A70C078034AC8701421D2682C
:103AC00000481047D80C00103CC00720F0B5002477
:103AD000059E0D46102903D3A1F11004E5B201247F
:103AE000C70007EB8407124C3C4427686D004FF079
:103AF000030C0CFA05FC27EA0C0727602768AA408C
:103B000017432760226C22EA0C022264226CAB402D
:103B10001A43226401228A400549012E01EB8000EC
:103B2000816E03D0914381660020F0BD1143FAE716
:103B300000C002400022022800D1052209B942F04B
:103B40000A020248C26700207047000000C002401D
:103B500070B52F4E00250124F571757134707470A5
:103B6000F069C10200D57471C10300D574714105BB
:103B700000D57471810304D53570B16921F080716D
:103B8000B161010301D4410300D5F471C10601D52F
:103B90003570F471410600D5F471810608D5B1691C
:103BA000B56441F080717567B161B5727570F4717B
:103BB000010600D5F471C10501D4810502D5357027
:103BC0007570F471010701D53570F471400701D5A6
:103BD0007570F471307800B10120FDF75FFD7078E9
:103BE00000B10120FDF712FEB07800B10120FDF711
:103BF00099FFF07908B1002204E0707908B1B4713E
:103C000070BD012218210120FDF762FFB57170BD62
:103C10003CC307200C4900B511F8202F89B0009251
:103C20000A7901920A7A02920A7B03920A7C06922E
:103C30008A8A07920A7E0492898B0591202269461E
:103C4000FCF7DEFA09B000BD004002400B4900203D
:103C500008600B4951F8C42F42F400720A60094908
:103C600091F85C20D20605D591F85C2042F0100254
:103C700081F85C200874087308727047B8C4072084
:103C800000C00F4000400240F0B505AC94E8E010E1
:103C9000054C04F8200F2171227223732774A4F8B5
:103CA00014C02576A683F0BD004002400348017A87
:103CB00041F0010101720121017070470040024092
:103CC0000448017841F001010170034901200860B6
:103CD0007047000000400240B8C407202DE9F05FA3
:103CE000474CDDE90A975425DDF830B025704925A9
:103CF0004FF47A766570B7FBF6FC4D25A570452527
:103D0000E570202525710CF1300C84F805C0B7FB57
:103D1000F6FC06FB1C7C4FF0640ABCFBFAF8A446D8
:103D200008F130088CF80680B7FBFAF80CF10506AC
:103D30000AFB18784FF00A0CB8FBFCF808F13008C1
:103D400086F80280B7FBFCF80CFB18773037F77069
:103D5000B9FBFCF73571B9FBFCF60CFB1798303654
:103D6000B3FBFCF7A672264608F1300886F80B80F4
:103D7000357330376773B3FBFCF70CFB17382346FA
:103D800008F1300883F80E80DD73BBFBFCF33033A1
:103D9000237423460D265D74B2FBFCF33033A37409
:103DA000B2FBFCF30CFB132722463037D774157592
:103DB000B1FBFCF230326275B1FBFCF20CFB12136A
:103DC000214630338B75CD75B0FBFCF13031217657
:103DD000B0FBFCF10CFB11022046303242768576B6
:103DE000E67680F81CC066771F2480F81EC0214646
:103DF00000F03AFF2146BDE8F05F014800F0B2BE96
:103E000064CF07201C4B10B5996C64204143186C9B
:103E1000B1FBF0F4B1FBF0F200FB1414D2B29A72D1
:103E2000B4EB500F01D9521C9A72D2B2642A21D934
:103E3000B1FBF0F4B1FBF0F200FB1414D2B29A72B1
:103E4000B4EB500F01D9521C9A72D2B2642A11D924
:103E5000B1FBF0F2B1FBF0F400FB1411D2B29A7294
:103E6000B1EB500F01D9521C9A72D0B2642801D91B
:103E70006420987210BD00003CC3072000220F216F
:103E80000120FDF725BE000010B50A4CA06021807E
:103E900000206080A08002461021FDF719FEA06876
:103EA000054A10F8011B9160A0602088401E208008
:103EB00010BD000030C00720000002400F4A10B5BE
:103EC0000120D061506800060FD591680D4C0C4B55
:103ED00060881954401C6080208838B1A16811F8AE
:103EE000013B9360401EA160208010BD0122102183
:103EF0000020FDF7EDFD0020A08010BD0000024075
:103F0000FCC4072030C0072038B51C48D0F8A811E1
:103F100041F40031C0F8A81150F8C41F41F4807179
:103F200001600024234603220F2120460094FFF75E
:103F3000CDFD00230322112118460094FFF7C6FD92
:103F400000230322122118460094FFF7BFFD01222F
:103F500010210020FDF7D6FD012210210020FDF7E1
:103F6000B7FD0748B82101603221C1604FF0E02160
:103F70004FF40050C1F8000138BD000000C00F40F0
:103F80000000024070B5174D0026174CA86029802C
:103F90006E80AE8002206060324606213046FDF71A
:103FA00097FD124A14E0E1688907FCD5A96811F869
:103FB000013BA360401EA9602880E068C007FCD0D8
:103FC000E0684007FCD5A16868881154401C6880EF
:103FD00028880028E7D101220621FDF779FD6660D7
:103FE00070BD00009CC407200000034008110010B1
:103FF00038B51948D0F8A81141F40011C0F8A8113B
:1040000050F8C41F41F4806101600024234602225D
:10401000072120460094FFF759FD002302220821C2
:1040200018460094FFF752FD00230222092118468A
:104030000094FFF74BFD012206210020FDF762FDF1
:10404000012206210020FDF743FD044840F6C72168
:1040500001600521016138BD00C00F400000034030
:1040600030B51E491E4C0120087020781D4A0128D9
:1040700002D11078401C10701378002002210A2B06
:1040800006D9194B5D6825F001055D60217010703F
:10409000164C174A2378012B02D113785B1C13703E
:1040A00013780A2B06D9134B5D6825F001055D6076
:1040B00021701070104C114A2378012B02D1137813
:1040C0005B1C137013780A2B06D90D4B5D6825F025
:1040D00001055D602170107030BD0000000000100F
:1040E00003C0072000C007200000014004C00720D3
:1040F00001C007200080094005C0072002C007203A
:1041000000C0094070B52F482021C0F8A011D0F898
:10411000A011890603D5D0F8A0114906FBD50326C6
:10412000C0F804610024C0F8A841C0F8AC410125E2
:10413000C0F80C512449C0F88410AA22C0F88C2081
:104140005523C0F88C30C0F88050C0F88C20C0F8DF
:104150008C30D0F888104901FBD5C0F88060C0F8D9
:104160008C20C0F88C30D0F88810C1F3016103298D
:10417000F9D12321C0F8A410C0F8AC20C0F8AC30AD
:10418000C0F8A050C0F8AC20C0F8AC30D0F8A810EF
:104190004905FBD5C0F8A060C0F8AC20C0F8AC3031
:1041A000D0F8A810C1F301210329F9D10749C0F8BB
:1041B000C410C0F8C841016821F4704141F4804145
:1041C000016070BD00C00F4063000500DE87280459
:1041D000174A9068C0F34201164801291BD00229F2
:1041E00018D11378816901F8013B0123C370816103
:1041F00001894FF00003491C0181C188491E09044F
:10420000090CC180037005D1516821F00101516092
:104210000221C17070474189491E0904090C41817E
:10422000F8D0C16911F8013B1370C16170470000FB
:104230000000014000C00720174A9068C0F3420107
:10424000164801291BD0022918D11378016A01F8F8
:10425000013B012303710162C1894FF00003491C36
:10426000C1818189491E0904090C8181437005D1EE
:10427000516821F001015160022101717047018AEA
:10428000491E0904090C0182F8D0416A11F8013B6A
:1042900013704162704700000080094000C0072091
:1042A000174A9068C0F34201164801291BD0022921
:1042B00018D11378816A01F8013B012343718162AF
:1042C000818A4FF00003491C8182418A491E0904FA
:1042D000090C4182837005D1516821F001015160C0
:1042E000022141717047C18A491E0904090CC1822B
:1042F000F8D0C16A11F8013B1370C1627047000029
:1043000000C0094000C00720002809DB00F01F02A0
:10431000012191404009800000F1E020C0F8001127
:104320007047002809DB00F01F020121914040097D
:10433000800000F1E020C0F80011704738B5254832
:10434000D0F8A81141F08071C0F8A81150F8C41F2E
:1043500041F480510160002402231A461946204688
:104360000094FFF7B3FB02231A46032100200094B8
:10437000FFF7ACFB02230122172100200094FFF776
:10438000A5FB02230122182100200094FFF79EFBC9
:1043900002230122192100200094FFF797FB02233A
:1043A00001221A2100200094FFF790FB0223032230
:1043B0001E2101200094FFF789FB022303221F2105
:1043C00001200094FFF782FB044803490160C460A8
:1043D00038BD000000C00F40FF092100004003402D
:1043E00010B5002219210320FDF772FB0148016876
:1043F000016010BD0040034038B51B48D0F8A8113B
:1044000041F40041C0F8A81150F8C41F41F08001E8
:1044100001600124022322461C2100200094FFF7A2
:1044200055FB022301221B2100200094FFF74EFBC5
:1044300001210020FFF77EFB0C48FA210161416158
:10444000402101604FF0E0210015C1F80001012278
:104450001A210320FDF756FBBDE8384000221A213F
:104460000320FDF735BB000000C00F4000C0014035
:1044700030B50C4A0024012390609170D470137001
:1044800002215170C178CD0706D0007801F0FE01FD
:10449000884201D1137100E01471034920200860A3
:1044A00030BD000030C3072000C0014070B50C488B
:1044B0000C4D002144884FF6FF7303EAC110082217
:1044C000460403EA400000D56040521E1204120C5C
:1044D000F6D125F81100491C89B2FF29EDD970BD2C
:1044E0003CC00720CC0E001088B00120FDF7FCFA7C
:1044F000012216211046FDF705FB01221721104667
:10450000FDF700FB002205211046FDF7FBFA012212
:1045100016211046FDF7DCFA012217211046FDF79F
:10452000D7FAFDF789FB0520FDF7CAFC0022182108
:104530000120FDF7CDFA012211211046FDF7E2FA24
:10454000002211210120FDF7C3FA0122102110469B
:10455000FDF7D8FA002210210120FDF7B9FA012257
:104560000F211046FDF7CEFA00220F210120FDF7A2
:10457000AFFA01220E211046FDF7C4FA00220E21E7
:104580000120FDF7A5FA01220A211046FDF7BAFA2B
:1045900000220A210120FDF79BFA012213210020AD
:1045A000FDF7B0FA012213210020FDF791FA012254
:1045B0000F211046FDF78CFA002217210120FDF78C
:1045C00087FA002216210120FDF782FA052100203A
:1045D000FDF772FA0028F9D000F086FA00F0D8FA58
:1045E00000F00CFBFFF790FCFFF702FDFFF7A6FEC3
:1045F000FFF702FF00F05CFA4FF0E020F84941615C
:10460000F84AF82182F8141D00258561072101610F
:10461000FFF74CFFFDF7ECFCFFF7E2FEFFF716FBA0
:10462000FFF744FB0020FCF73DFF0120FCF73AFFB9
:104630000020FCF79DFF0120FCF79AFF0020FCF70B
:10464000A3FF0120FCF7A0FFDFF89CA3DFF89CB3D9
:10465000E74C4FF47A774FF0A0084FF0A1090126FC
:1046600020780128FCD12570A068E249401CA06098
:104670000860E1490860B0FBF7F107FB110010B9D1
:104680002069401C2061FDF75DFBDC48017831B1F9
:1046900005702069032802D9FF20607002E060786D
:1046A000FF2802D1A088401CA080FBF761FFFDF726
:1046B0002FFD607810286FD021DC78B30128CFD18E
:1046C000DAF80000C10603D5CD4B1968491C196002
:1046D000810603D5CB4B1968491C1960410603D5E7
:1046E000C94B1968491C1960000603D5C748016801
:1046F000491C0160C648006800287DD091E0202850
:10470000D9D0FF28ACD1A088C82876D076DC012883
:1047100075D0022874D06428A2D129E1FFE7BD48F2
:104720000078802801D110206070A06840F2A46257
:10473000A0F2A46190423BD014DCB0F52F7FECD006
:10474000B0F5966F29D0A0F5C060723888D11E22CE
:10475000B149A648FBF79CFF002881D140F28A208E
:10476000A0607DE7642934D0A1F54061E439F8D137
:10477000FDF77CF9A948AA4900780870A949096899
:1047800041436420B1FBF0F0A74908606670012046
:10479000FCF784FF0120E3E01BE19F481E2180F825
:1047A00000804670867080F80390FFF761FE57E73F
:1047B000FDF746F89D480088A0F5B441A53902D020
:1047C000202060704CE78A480B21143000F04CFA2E
:1047D00046E79748016897480160974801689748FD
:1047E00001609748974900680860974897490078A2
:1047F000087097490A6804E011E0C4E0A7E0ABE064
:10480000B1E0884900280A609249934A09881180DA
:10481000A7D19248016841F08071016020E7102023
:1048200060708F480068342807D9FBF741FFFBF719
:1048300051FFFFF78DF9FDF7A3FAA068B0FBF7F180
:1048400007FB110000288CD1E068401CE060DAF81A
:104850000000C10503D583490A68521C0A6080051F
:1048600003D581480168491C01606846FFF7D2F909
:10487000202269467D48FBF7C3FC7C4840F2E47186
:1048800042698A4202D8C069B42804D978480168CC
:1048900041F480110160E0680A280BD97821B0FB4F
:1048A000F1F201FB120028B9FDF7A0F81E217148B2
:1048B000FFF7DEFD7048007801280FD1207BC0078C
:1048C00007D1002218210120FDF702F9207BC00743
:1048D00004D0012218211046FDF7FAF8E0680328F9
:1048E0009CD96088401C80B260800B2896D2DFE89B
:1048F00000F006070B111406061706062C00AFE69B
:10490000FEF74AFC002200E0012217210120FDF7FA
:10491000DFF8A5E6FBF79EFFA2E6FBF741FD9FE669
:104920006846FFF777F9202269465048FBF768FC94
:104930004E48203800F13001203091E80E108DE80B
:104940000E100FC8FFF7CAF98AE6658088E6D228FC
:104950001FD0FA28D3D139E00020FCF79FFE0020B9
:10496000FCF754FF7CE6FDF741F81E2141481CE7A7
:104970008BF800808BF801608BF802608BF8039055
:104980001E211A4811E7FCF7ADFF0028B7D1A5801A
:1049900066E6DFF8D8C00322ACF1200C40F2E471E7
:1049A000CCF80050CCF80450CCE90256CCE90626ED
:1049B000CCE90461CDE90061CDE902262846334601
:1049C00002460146FFF760F9FFF770F9FFF756FA64
:1049D00046E6002216210120FDF77AF8F6E70000EE
:1049E0009F8601000FE000E08CC407205AC4072016
:1049F0000000001050C0072070000010A900001037
:104A00006400001090C407206800001094C40720C0
:104A10007CCB07203CC00720740000103FC3072058
:104A200040C307207CC3072080C307204EC3072054
:104A3000A8C30720B4C30720ACC30720BCC307200A
:104A4000A0C3072084C3072045C3072046C307200F
:104A5000A4C307204CC3072050C3072054C307201A
:104A600058C007206C00001098C40720DCC4072041
:104A700058C3072028C4072042C3072030B510239D
:104A800000220A4D0AE0845C521C84EAD314E4B28A
:104A900092B235F8144084EA03239BB28A42F2D3DF
:104AA0004FF6FF7000EA430030BD0000CC0E00104E
:104AB0000B48D0F8AC1141F40041C0F8AC1150F8EB
:104AC000C41F41F400010160064800210167312143
:104AD000C16032218161012141610420FFF721BCC5
:104AE00000C00F400040094038B51C48D0F8A8115C
:104AF00041F44071C0F8A81150F8C41F41F01001F2
:104B00000160002402231A46214618460094FEF74D
:104B1000DDFF02231A46012118460094FEF7D6FF56
:104B2000022101220846FCF7EDFF01220D2102209F
:104B3000FCF7E8FF0A4801210172032101730222F8
:104B4000426083220273042202700471D9228262BD
:104B50000173BDE838400620FFF7D6BB00C00F4008
:104B60000000014070B50D460446022101220846AE
:104B7000FCF7AEFF044A0549D461558114F8010BD6
:104B80000870D46170BD000000C007200000014023
:104B900038B51848D0F8AC1141F44031C0F8AC1128
:104BA00050F8C41F41F080710160002402230122EB
:104BB0000A2120460094FEF789FF022301220B21DF
:104BC00000200094FEF782FF0B48012101720321AF
:104BD0000173022242608322027304220270047174
:104BE000D92280F828200173BDE838400720FFF75C
:104BF0008BBB000000C00F400080094038B518484A
:104C0000D0F8AC1141F44021C0F8AC1150F8C41FE9
:104C100041F0007101600024022303221C210420C2
:104C20000094FEF753FF022303221D210420009469
:104C3000FEF74CFF0B480121017203210173022290
:104C4000426083220273042202700471D92280F828
:104C500028200173BDE838400820FFF755BB00004D
:104C600000C00F4000C00940044A054BD062D18209
:104C700010F8011B1970D0627047000000C00720B7
:104C800000C009400000000000000000000000001B
:104C90000000000000C001000000000000C0120081
:104CA0000000000000C023000000000000C025003C
:104CB0000000000000C036000000000000000000FE
:104CC00000C0480000C04900084D0000000000106E
:104CD000B000000064010000B84D000000C00720D3
:104CE000BC04000008010000B84D0000B000001036
:104CF00020110000800100001C500000BCC40720EF
:104D00000C0D000080010000000000000000000009
:104D10000000000000000000000000004545505267
:104D20004F4D204F4B0A0D00000000000000000016
:104D30000000000000000000000000000000000073
:104D4000000000000000000000000000060000005D
:104D50000800000000000000050000000000100036
:104D600001001000000020001000200000000000E2
:104D7000000000000000000000000000A00001A1F1
:104D80000000000000000000000000000000000023
:104D90000000000000000000000000000000000013
:104DA0000000000000000000000000000000000003
:104DB0000000000000000000013E83994523893E69
:104DC0000574FCC4072014E9E9021420BF02241072
:104DD000980213710214F0490214213A02142817A0
:104DE0000214B8FF011478E00114F0CC011438B7B4
:104DF0000114E0A5012440960113770114606701B6
:104E000014F5540114204801145040011BB0301C0B
:104E100013190114A40A0114F8010123A0F523F2C7
:104E2000E923EEDE2302D22394CA232AC1234CB8FD
:104E300023DCAF238CA62350A0232099234A92235E
:104E4000CE8B23F68423D07F23447A1BF474042270
:104E50006F23D46A239E66234862232E5E23465A1C
:104E6000235C5623F85223924F23544C233E49236C
:104E70003B461B80434822401B3A3E08223B23729C
:104E800039233C37231635230E331B1A312C222F9E
:104E900023782D23C02B1B1C2A8822281B10276453
:104EA000222523402423EC221BAC21E31A20982244
:104EB0001F23281E1B241D44221C231D1B1B2C1AD0
:104EC000842219236A18238E1723C1161BFE153C52
:104ED0001904238C1423D8131A2F041B8E12A42216
:104EE000111A62041BCC107819041BBE0F90190410
:104EF00023C40E1A4C0423DD0D1A660423F80C1A81
:104F000094041A30041BCC0BB819041A180423C8D3
:104F10000A1A6E041A1D0423CE091A88041A4204C0
:104F200023FC081AB4041A7A041A340423F8071A62
:104F3000BC041A85041A4E041A1C0423EA061AB883
:104F4000041A84041A54041A2C0423FA051AD204ED
:104F50001AAB041A82041A5A041A3C041A14041BC9
:104F6000F3046419041AB0041A92041A74041A554A
:104F7000041A38041A1A0423FC031AE80414E9E991
:104F8000021438B70114A40A01238CA623D46A1B87
:104F90003B46E0222F2377204BC116EC29C829A4D9
:104FA0002980395C193C11D202033B6464CB204E4A
:104FB00004013810157869487130755C76EC771803
:104FC00079E079A87A707B387C30147D647D967D99
:104FD000C87D2C7EC27E587F2080E880DC827812DB
:104FE000030A111B232B32373C41464B50555A5F65
:104FF00064091818696E73787D82878C91969B3C42
:105000003F43485054575A5C5F6264011B6362011E
:0C50100012A0022F011932025EA1000064
:04000005000000CD2A
:00000001FF
